{
	"contracts/Question/Problem-statement-5.sol": {
		"ProductRegistry": {
			"abi": [
				{
					"inputs": [
						{
							"internalType": "uint256",
							"name": "",
							"type": "uint256"
						}
					],
					"name": "products",
					"outputs": [
						{
							"internalType": "address",
							"name": "owner",
							"type": "address"
						},
						{
							"internalType": "bool",
							"name": "exists",
							"type": "bool"
						}
					],
					"stateMutability": "view",
					"type": "function"
				},
				{
					"inputs": [
						{
							"internalType": "uint256",
							"name": "_productID",
							"type": "uint256"
						}
					],
					"name": "registerProduct",
					"outputs": [],
					"stateMutability": "nonpayable",
					"type": "function"
				},
				{
					"inputs": [
						{
							"internalType": "uint256",
							"name": "_productID",
							"type": "uint256"
						},
						{
							"internalType": "address",
							"name": "_newOwner",
							"type": "address"
						}
					],
					"name": "transferOwnership",
					"outputs": [],
					"stateMutability": "nonpayable",
					"type": "function"
				}
			],
			"devdoc": {
				"kind": "dev",
				"methods": {},
				"version": 1
			},
			"evm": {
				"assembly": "    /* \"contracts/Question/Problem-statement-5.sol\":586:1269  contract ProductRegistry {\r... */\n  mstore(0x40, 0x80)\n  callvalue\n  dup1\n  iszero\n  tag_1\n  jumpi\n  0x00\n  dup1\n  revert\ntag_1:\n  pop\n  dataSize(sub_0)\n  dup1\n  dataOffset(sub_0)\n  0x00\n  codecopy\n  0x00\n  return\nstop\n\nsub_0: assembly {\n        /* \"contracts/Question/Problem-statement-5.sol\":586:1269  contract ProductRegistry {\r... */\n      mstore(0x40, 0x80)\n      callvalue\n      dup1\n      iszero\n      tag_1\n      jumpi\n      0x00\n      dup1\n      revert\n    tag_1:\n      pop\n      jumpi(tag_2, lt(calldatasize, 0x04))\n      shr(0xe0, calldataload(0x00))\n      dup1\n      0x29507f73\n      eq\n      tag_3\n      jumpi\n      dup1\n      0x7acc0b20\n      eq\n      tag_4\n      jumpi\n      dup1\n      0xc08e0f96\n      eq\n      tag_5\n      jumpi\n    tag_2:\n      0x00\n      dup1\n      revert\n        /* \"contracts/Question/Problem-statement-5.sol\":952:1266  function transferOwnership(uint256 _productID, address _newOwner) public {\r... */\n    tag_3:\n      tag_6\n      0x04\n      dup1\n      calldatasize\n      sub\n      dup2\n      add\n      swap1\n      tag_7\n      swap2\n      swap1\n      tag_8\n      jump\t// in\n    tag_7:\n      tag_9\n      jump\t// in\n    tag_6:\n      stop\n        /* \"contracts/Question/Problem-statement-5.sol\":695:738  mapping(uint256 => Product) public products */\n    tag_4:\n      tag_10\n      0x04\n      dup1\n      calldatasize\n      sub\n      dup2\n      add\n      swap1\n      tag_11\n      swap2\n      swap1\n      tag_12\n      jump\t// in\n    tag_11:\n      tag_13\n      jump\t// in\n    tag_10:\n      mload(0x40)\n      tag_14\n      swap3\n      swap2\n      swap1\n      tag_15\n      jump\t// in\n    tag_14:\n      mload(0x40)\n      dup1\n      swap2\n      sub\n      swap1\n      return\n        /* \"contracts/Question/Problem-statement-5.sol\":747:944  function registerProduct(uint256 _productID) public {\r... */\n    tag_5:\n      tag_16\n      0x04\n      dup1\n      calldatasize\n      sub\n      dup2\n      add\n      swap1\n      tag_17\n      swap2\n      swap1\n      tag_12\n      jump\t// in\n    tag_17:\n      tag_18\n      jump\t// in\n    tag_16:\n      stop\n        /* \"contracts/Question/Problem-statement-5.sol\":952:1266  function transferOwnership(uint256 _productID, address _newOwner) public {\r... */\n    tag_9:\n        /* \"contracts/Question/Problem-statement-5.sol\":1044:1052  products */\n      0x00\n        /* \"contracts/Question/Problem-statement-5.sol\":1044:1064  products[_productID] */\n      dup1\n        /* \"contracts/Question/Problem-statement-5.sol\":1053:1063  _productID */\n      dup4\n        /* \"contracts/Question/Problem-statement-5.sol\":1044:1064  products[_productID] */\n      dup2\n      mstore\n      0x20\n      add\n      swap1\n      dup2\n      mstore\n      0x20\n      add\n      0x00\n      keccak256\n        /* \"contracts/Question/Problem-statement-5.sol\":1044:1071  products[_productID].exists */\n      0x00\n      add\n      0x14\n      swap1\n      sload\n      swap1\n      0x0100\n      exp\n      swap1\n      div\n      0xff\n      and\n        /* \"contracts/Question/Problem-statement-5.sol\":1036:1098  require(products[_productID].exists, \"Product not registered\") */\n      tag_20\n      jumpi\n      mload(0x40)\n      0x08c379a000000000000000000000000000000000000000000000000000000000\n      dup2\n      mstore\n      0x04\n      add\n      tag_21\n      swap1\n      tag_22\n      jump\t// in\n    tag_21:\n      mload(0x40)\n      dup1\n      swap2\n      sub\n      swap1\n      revert\n    tag_20:\n        /* \"contracts/Question/Problem-statement-5.sol\":1147:1157  msg.sender */\n      caller\n        /* \"contracts/Question/Problem-statement-5.sol\":1117:1157  products[_productID].owner == msg.sender */\n      0xffffffffffffffffffffffffffffffffffffffff\n      and\n        /* \"contracts/Question/Problem-statement-5.sol\":1117:1125  products */\n      0x00\n        /* \"contracts/Question/Problem-statement-5.sol\":1117:1137  products[_productID] */\n      dup1\n        /* \"contracts/Question/Problem-statement-5.sol\":1126:1136  _productID */\n      dup5\n        /* \"contracts/Question/Problem-statement-5.sol\":1117:1137  products[_productID] */\n      dup2\n      mstore\n      0x20\n      add\n      swap1\n      dup2\n      mstore\n      0x20\n      add\n      0x00\n      keccak256\n        /* \"contracts/Question/Problem-statement-5.sol\":1117:1143  products[_productID].owner */\n      0x00\n      add\n      0x00\n      swap1\n      sload\n      swap1\n      0x0100\n      exp\n      swap1\n      div\n      0xffffffffffffffffffffffffffffffffffffffff\n      and\n        /* \"contracts/Question/Problem-statement-5.sol\":1117:1157  products[_productID].owner == msg.sender */\n      0xffffffffffffffffffffffffffffffffffffffff\n      and\n      eq\n        /* \"contracts/Question/Problem-statement-5.sol\":1109:1209  require(products[_productID].owner == msg.sender, \"Only the current owner can transfer the product\") */\n      tag_23\n      jumpi\n      mload(0x40)\n      0x08c379a000000000000000000000000000000000000000000000000000000000\n      dup2\n      mstore\n      0x04\n      add\n      tag_24\n      swap1\n      tag_25\n      jump\t// in\n    tag_24:\n      mload(0x40)\n      dup1\n      swap2\n      sub\n      swap1\n      revert\n    tag_23:\n        /* \"contracts/Question/Problem-statement-5.sol\":1249:1258  _newOwner */\n      dup1\n        /* \"contracts/Question/Problem-statement-5.sol\":1220:1228  products */\n      0x00\n        /* \"contracts/Question/Problem-statement-5.sol\":1220:1240  products[_productID] */\n      dup1\n        /* \"contracts/Question/Problem-statement-5.sol\":1229:1239  _productID */\n      dup5\n        /* \"contracts/Question/Problem-statement-5.sol\":1220:1240  products[_productID] */\n      dup2\n      mstore\n      0x20\n      add\n      swap1\n      dup2\n      mstore\n      0x20\n      add\n      0x00\n      keccak256\n        /* \"contracts/Question/Problem-statement-5.sol\":1220:1246  products[_productID].owner */\n      0x00\n      add\n      0x00\n        /* \"contracts/Question/Problem-statement-5.sol\":1220:1258  products[_productID].owner = _newOwner */\n      0x0100\n      exp\n      dup2\n      sload\n      dup2\n      0xffffffffffffffffffffffffffffffffffffffff\n      mul\n      not\n      and\n      swap1\n      dup4\n      0xffffffffffffffffffffffffffffffffffffffff\n      and\n      mul\n      or\n      swap1\n      sstore\n      pop\n        /* \"contracts/Question/Problem-statement-5.sol\":952:1266  function transferOwnership(uint256 _productID, address _newOwner) public {\r... */\n      pop\n      pop\n      jump\t// out\n        /* \"contracts/Question/Problem-statement-5.sol\":695:738  mapping(uint256 => Product) public products */\n    tag_13:\n      mstore(0x20, 0x00)\n      dup1\n      0x00\n      mstore\n      keccak256(0x00, 0x40)\n      0x00\n      swap2\n      pop\n      swap1\n      pop\n      dup1\n      0x00\n      add\n      0x00\n      swap1\n      sload\n      swap1\n      0x0100\n      exp\n      swap1\n      div\n      0xffffffffffffffffffffffffffffffffffffffff\n      and\n      swap1\n      dup1\n      0x00\n      add\n      0x14\n      swap1\n      sload\n      swap1\n      0x0100\n      exp\n      swap1\n      div\n      0xff\n      and\n      swap1\n      pop\n      dup3\n      jump\t// out\n        /* \"contracts/Question/Problem-statement-5.sol\":747:944  function registerProduct(uint256 _productID) public {\r... */\n    tag_18:\n        /* \"contracts/Question/Problem-statement-5.sol\":819:827  products */\n      0x00\n        /* \"contracts/Question/Problem-statement-5.sol\":819:839  products[_productID] */\n      dup1\n        /* \"contracts/Question/Problem-statement-5.sol\":828:838  _productID */\n      dup3\n        /* \"contracts/Question/Problem-statement-5.sol\":819:839  products[_productID] */\n      dup2\n      mstore\n      0x20\n      add\n      swap1\n      dup2\n      mstore\n      0x20\n      add\n      0x00\n      keccak256\n        /* \"contracts/Question/Problem-statement-5.sol\":819:846  products[_productID].exists */\n      0x00\n      add\n      0x14\n      swap1\n      sload\n      swap1\n      0x0100\n      exp\n      swap1\n      div\n      0xff\n      and\n        /* \"contracts/Question/Problem-statement-5.sol\":818:846  !products[_productID].exists */\n      iszero\n        /* \"contracts/Question/Problem-statement-5.sol\":810:877  require(!products[_productID].exists, \"Product already registered\") */\n      tag_27\n      jumpi\n      mload(0x40)\n      0x08c379a000000000000000000000000000000000000000000000000000000000\n      dup2\n      mstore\n      0x04\n      add\n      tag_28\n      swap1\n      tag_29\n      jump\t// in\n    tag_28:\n      mload(0x40)\n      dup1\n      swap2\n      sub\n      swap1\n      revert\n    tag_27:\n        /* \"contracts/Question/Problem-statement-5.sol\":911:936  Product(msg.sender, true) */\n      mload(0x40)\n      dup1\n      0x40\n      add\n      0x40\n      mstore\n      dup1\n        /* \"contracts/Question/Problem-statement-5.sol\":919:929  msg.sender */\n      caller\n        /* \"contracts/Question/Problem-statement-5.sol\":911:936  Product(msg.sender, true) */\n      0xffffffffffffffffffffffffffffffffffffffff\n      and\n      dup2\n      mstore\n      0x20\n      add\n        /* \"contracts/Question/Problem-statement-5.sol\":931:935  true */\n      0x01\n        /* \"contracts/Question/Problem-statement-5.sol\":911:936  Product(msg.sender, true) */\n      iszero\n      iszero\n      dup2\n      mstore\n      pop\n        /* \"contracts/Question/Problem-statement-5.sol\":888:896  products */\n      0x00\n        /* \"contracts/Question/Problem-statement-5.sol\":888:908  products[_productID] */\n      dup1\n        /* \"contracts/Question/Problem-statement-5.sol\":897:907  _productID */\n      dup4\n        /* \"contracts/Question/Problem-statement-5.sol\":888:908  products[_productID] */\n      dup2\n      mstore\n      0x20\n      add\n      swap1\n      dup2\n      mstore\n      0x20\n      add\n      0x00\n      keccak256\n        /* \"contracts/Question/Problem-statement-5.sol\":888:936  products[_productID] = Product(msg.sender, true) */\n      0x00\n      dup3\n      add\n      mload\n      dup2\n      0x00\n      add\n      exp(0x0100, 0x00)\n      dup2\n      sload\n      dup2\n      0xffffffffffffffffffffffffffffffffffffffff\n      mul\n      not\n      and\n      swap1\n      dup4\n      0xffffffffffffffffffffffffffffffffffffffff\n      and\n      mul\n      or\n      swap1\n      sstore\n      pop\n      0x20\n      dup3\n      add\n      mload\n      dup2\n      0x00\n      add\n      exp(0x0100, 0x14)\n      dup2\n      sload\n      dup2\n      0xff\n      mul\n      not\n      and\n      swap1\n      dup4\n      iszero\n      iszero\n      mul\n      or\n      swap1\n      sstore\n      pop\n      swap1\n      pop\n      pop\n        /* \"contracts/Question/Problem-statement-5.sol\":747:944  function registerProduct(uint256 _productID) public {\r... */\n      pop\n      jump\t// out\n        /* \"#utility.yul\":7:146   */\n    tag_31:\n      0x00\n        /* \"#utility.yul\":91:97   */\n      dup2\n        /* \"#utility.yul\":78:98   */\n      calldataload\n        /* \"#utility.yul\":69:98   */\n      swap1\n      pop\n        /* \"#utility.yul\":107:140   */\n      tag_33\n        /* \"#utility.yul\":134:139   */\n      dup2\n        /* \"#utility.yul\":107:140   */\n      tag_34\n      jump\t// in\n    tag_33:\n        /* \"#utility.yul\":59:146   */\n      swap3\n      swap2\n      pop\n      pop\n      jump\t// out\n        /* \"#utility.yul\":152:291   */\n    tag_35:\n      0x00\n        /* \"#utility.yul\":236:242   */\n      dup2\n        /* \"#utility.yul\":223:243   */\n      calldataload\n        /* \"#utility.yul\":214:243   */\n      swap1\n      pop\n        /* \"#utility.yul\":252:285   */\n      tag_37\n        /* \"#utility.yul\":279:284   */\n      dup2\n        /* \"#utility.yul\":252:285   */\n      tag_38\n      jump\t// in\n    tag_37:\n        /* \"#utility.yul\":204:291   */\n      swap3\n      swap2\n      pop\n      pop\n      jump\t// out\n        /* \"#utility.yul\":297:559   */\n    tag_12:\n      0x00\n        /* \"#utility.yul\":405:407   */\n      0x20\n        /* \"#utility.yul\":393:402   */\n      dup3\n        /* \"#utility.yul\":384:391   */\n      dup5\n        /* \"#utility.yul\":380:403   */\n      sub\n        /* \"#utility.yul\":376:408   */\n      slt\n        /* \"#utility.yul\":373:375   */\n      iszero\n      tag_40\n      jumpi\n        /* \"#utility.yul\":421:422   */\n      0x00\n        /* \"#utility.yul\":418:419   */\n      dup1\n        /* \"#utility.yul\":411:423   */\n      revert\n        /* \"#utility.yul\":373:375   */\n    tag_40:\n        /* \"#utility.yul\":464:465   */\n      0x00\n        /* \"#utility.yul\":489:542   */\n      tag_41\n        /* \"#utility.yul\":534:541   */\n      dup5\n        /* \"#utility.yul\":525:531   */\n      dup3\n        /* \"#utility.yul\":514:523   */\n      dup6\n        /* \"#utility.yul\":510:532   */\n      add\n        /* \"#utility.yul\":489:542   */\n      tag_35\n      jump\t// in\n    tag_41:\n        /* \"#utility.yul\":479:542   */\n      swap2\n      pop\n        /* \"#utility.yul\":435:552   */\n      pop\n        /* \"#utility.yul\":363:559   */\n      swap3\n      swap2\n      pop\n      pop\n      jump\t// out\n        /* \"#utility.yul\":565:972   */\n    tag_8:\n      0x00\n      dup1\n        /* \"#utility.yul\":690:692   */\n      0x40\n        /* \"#utility.yul\":678:687   */\n      dup4\n        /* \"#utility.yul\":669:676   */\n      dup6\n        /* \"#utility.yul\":665:688   */\n      sub\n        /* \"#utility.yul\":661:693   */\n      slt\n        /* \"#utility.yul\":658:660   */\n      iszero\n      tag_43\n      jumpi\n        /* \"#utility.yul\":706:707   */\n      0x00\n        /* \"#utility.yul\":703:704   */\n      dup1\n        /* \"#utility.yul\":696:708   */\n      revert\n        /* \"#utility.yul\":658:660   */\n    tag_43:\n        /* \"#utility.yul\":749:750   */\n      0x00\n        /* \"#utility.yul\":774:827   */\n      tag_44\n        /* \"#utility.yul\":819:826   */\n      dup6\n        /* \"#utility.yul\":810:816   */\n      dup3\n        /* \"#utility.yul\":799:808   */\n      dup7\n        /* \"#utility.yul\":795:817   */\n      add\n        /* \"#utility.yul\":774:827   */\n      tag_35\n      jump\t// in\n    tag_44:\n        /* \"#utility.yul\":764:827   */\n      swap3\n      pop\n        /* \"#utility.yul\":720:837   */\n      pop\n        /* \"#utility.yul\":876:878   */\n      0x20\n        /* \"#utility.yul\":902:955   */\n      tag_45\n        /* \"#utility.yul\":947:954   */\n      dup6\n        /* \"#utility.yul\":938:944   */\n      dup3\n        /* \"#utility.yul\":927:936   */\n      dup7\n        /* \"#utility.yul\":923:945   */\n      add\n        /* \"#utility.yul\":902:955   */\n      tag_31\n      jump\t// in\n    tag_45:\n        /* \"#utility.yul\":892:955   */\n      swap2\n      pop\n        /* \"#utility.yul\":847:965   */\n      pop\n        /* \"#utility.yul\":648:972   */\n      swap3\n      pop\n      swap3\n      swap1\n      pop\n      jump\t// out\n        /* \"#utility.yul\":978:1096   */\n    tag_46:\n        /* \"#utility.yul\":1065:1089   */\n      tag_48\n        /* \"#utility.yul\":1083:1088   */\n      dup2\n        /* \"#utility.yul\":1065:1089   */\n      tag_49\n      jump\t// in\n    tag_48:\n        /* \"#utility.yul\":1060:1063   */\n      dup3\n        /* \"#utility.yul\":1053:1090   */\n      mstore\n        /* \"#utility.yul\":1043:1096   */\n      pop\n      pop\n      jump\t// out\n        /* \"#utility.yul\":1102:1211   */\n    tag_50:\n        /* \"#utility.yul\":1183:1204   */\n      tag_52\n        /* \"#utility.yul\":1198:1203   */\n      dup2\n        /* \"#utility.yul\":1183:1204   */\n      tag_53\n      jump\t// in\n    tag_52:\n        /* \"#utility.yul\":1178:1181   */\n      dup3\n        /* \"#utility.yul\":1171:1205   */\n      mstore\n        /* \"#utility.yul\":1161:1211   */\n      pop\n      pop\n      jump\t// out\n        /* \"#utility.yul\":1217:1537   */\n    tag_54:\n      0x00\n        /* \"#utility.yul\":1380:1447   */\n      tag_56\n        /* \"#utility.yul\":1444:1446   */\n      0x16\n        /* \"#utility.yul\":1439:1442   */\n      dup4\n        /* \"#utility.yul\":1380:1447   */\n      tag_57\n      jump\t// in\n    tag_56:\n        /* \"#utility.yul\":1373:1447   */\n      swap2\n      pop\n        /* \"#utility.yul\":1477:1501   */\n      0x50726f64756374206e6f74207265676973746572656400000000000000000000\n        /* \"#utility.yul\":1473:1474   */\n      0x00\n        /* \"#utility.yul\":1468:1471   */\n      dup4\n        /* \"#utility.yul\":1464:1475   */\n      add\n        /* \"#utility.yul\":1457:1502   */\n      mstore\n        /* \"#utility.yul\":1528:1530   */\n      0x20\n        /* \"#utility.yul\":1523:1526   */\n      dup3\n        /* \"#utility.yul\":1519:1531   */\n      add\n        /* \"#utility.yul\":1512:1531   */\n      swap1\n      pop\n        /* \"#utility.yul\":1363:1537   */\n      swap2\n      swap1\n      pop\n      jump\t// out\n        /* \"#utility.yul\":1543:1922   */\n    tag_58:\n      0x00\n        /* \"#utility.yul\":1706:1773   */\n      tag_60\n        /* \"#utility.yul\":1770:1772   */\n      0x2f\n        /* \"#utility.yul\":1765:1768   */\n      dup4\n        /* \"#utility.yul\":1706:1773   */\n      tag_57\n      jump\t// in\n    tag_60:\n        /* \"#utility.yul\":1699:1773   */\n      swap2\n      pop\n        /* \"#utility.yul\":1803:1837   */\n      0x4f6e6c79207468652063757272656e74206f776e65722063616e207472616e73\n        /* \"#utility.yul\":1799:1800   */\n      0x00\n        /* \"#utility.yul\":1794:1797   */\n      dup4\n        /* \"#utility.yul\":1790:1801   */\n      add\n        /* \"#utility.yul\":1783:1838   */\n      mstore\n        /* \"#utility.yul\":1869:1886   */\n      0x666572207468652070726f647563740000000000000000000000000000000000\n        /* \"#utility.yul\":1864:1866   */\n      0x20\n        /* \"#utility.yul\":1859:1862   */\n      dup4\n        /* \"#utility.yul\":1855:1867   */\n      add\n        /* \"#utility.yul\":1848:1887   */\n      mstore\n        /* \"#utility.yul\":1913:1915   */\n      0x40\n        /* \"#utility.yul\":1908:1911   */\n      dup3\n        /* \"#utility.yul\":1904:1916   */\n      add\n        /* \"#utility.yul\":1897:1916   */\n      swap1\n      pop\n        /* \"#utility.yul\":1689:1922   */\n      swap2\n      swap1\n      pop\n      jump\t// out\n        /* \"#utility.yul\":1928:2252   */\n    tag_61:\n      0x00\n        /* \"#utility.yul\":2091:2158   */\n      tag_63\n        /* \"#utility.yul\":2155:2157   */\n      0x1a\n        /* \"#utility.yul\":2150:2153   */\n      dup4\n        /* \"#utility.yul\":2091:2158   */\n      tag_57\n      jump\t// in\n    tag_63:\n        /* \"#utility.yul\":2084:2158   */\n      swap2\n      pop\n        /* \"#utility.yul\":2188:2216   */\n      0x50726f6475637420616c72656164792072656769737465726564000000000000\n        /* \"#utility.yul\":2184:2185   */\n      0x00\n        /* \"#utility.yul\":2179:2182   */\n      dup4\n        /* \"#utility.yul\":2175:2186   */\n      add\n        /* \"#utility.yul\":2168:2217   */\n      mstore\n        /* \"#utility.yul\":2243:2245   */\n      0x20\n        /* \"#utility.yul\":2238:2241   */\n      dup3\n        /* \"#utility.yul\":2234:2246   */\n      add\n        /* \"#utility.yul\":2227:2246   */\n      swap1\n      pop\n        /* \"#utility.yul\":2074:2252   */\n      swap2\n      swap1\n      pop\n      jump\t// out\n        /* \"#utility.yul\":2258:2578   */\n    tag_15:\n      0x00\n        /* \"#utility.yul\":2411:2413   */\n      0x40\n        /* \"#utility.yul\":2400:2409   */\n      dup3\n        /* \"#utility.yul\":2396:2414   */\n      add\n        /* \"#utility.yul\":2388:2414   */\n      swap1\n      pop\n        /* \"#utility.yul\":2424:2495   */\n      tag_65\n        /* \"#utility.yul\":2492:2493   */\n      0x00\n        /* \"#utility.yul\":2481:2490   */\n      dup4\n        /* \"#utility.yul\":2477:2494   */\n      add\n        /* \"#utility.yul\":2468:2474   */\n      dup6\n        /* \"#utility.yul\":2424:2495   */\n      tag_46\n      jump\t// in\n    tag_65:\n        /* \"#utility.yul\":2505:2571   */\n      tag_66\n        /* \"#utility.yul\":2567:2569   */\n      0x20\n        /* \"#utility.yul\":2556:2565   */\n      dup4\n        /* \"#utility.yul\":2552:2570   */\n      add\n        /* \"#utility.yul\":2543:2549   */\n      dup5\n        /* \"#utility.yul\":2505:2571   */\n      tag_50\n      jump\t// in\n    tag_66:\n        /* \"#utility.yul\":2378:2578   */\n      swap4\n      swap3\n      pop\n      pop\n      pop\n      jump\t// out\n        /* \"#utility.yul\":2584:3003   */\n    tag_22:\n      0x00\n        /* \"#utility.yul\":2788:2790   */\n      0x20\n        /* \"#utility.yul\":2777:2786   */\n      dup3\n        /* \"#utility.yul\":2773:2791   */\n      add\n        /* \"#utility.yul\":2765:2791   */\n      swap1\n      pop\n        /* \"#utility.yul\":2837:2846   */\n      dup2\n        /* \"#utility.yul\":2831:2835   */\n      dup2\n        /* \"#utility.yul\":2827:2847   */\n      sub\n        /* \"#utility.yul\":2823:2824   */\n      0x00\n        /* \"#utility.yul\":2812:2821   */\n      dup4\n        /* \"#utility.yul\":2808:2825   */\n      add\n        /* \"#utility.yul\":2801:2848   */\n      mstore\n        /* \"#utility.yul\":2865:2996   */\n      tag_68\n        /* \"#utility.yul\":2991:2995   */\n      dup2\n        /* \"#utility.yul\":2865:2996   */\n      tag_54\n      jump\t// in\n    tag_68:\n        /* \"#utility.yul\":2857:2996   */\n      swap1\n      pop\n        /* \"#utility.yul\":2755:3003   */\n      swap2\n      swap1\n      pop\n      jump\t// out\n        /* \"#utility.yul\":3009:3428   */\n    tag_25:\n      0x00\n        /* \"#utility.yul\":3213:3215   */\n      0x20\n        /* \"#utility.yul\":3202:3211   */\n      dup3\n        /* \"#utility.yul\":3198:3216   */\n      add\n        /* \"#utility.yul\":3190:3216   */\n      swap1\n      pop\n        /* \"#utility.yul\":3262:3271   */\n      dup2\n        /* \"#utility.yul\":3256:3260   */\n      dup2\n        /* \"#utility.yul\":3252:3272   */\n      sub\n        /* \"#utility.yul\":3248:3249   */\n      0x00\n        /* \"#utility.yul\":3237:3246   */\n      dup4\n        /* \"#utility.yul\":3233:3250   */\n      add\n        /* \"#utility.yul\":3226:3273   */\n      mstore\n        /* \"#utility.yul\":3290:3421   */\n      tag_70\n        /* \"#utility.yul\":3416:3420   */\n      dup2\n        /* \"#utility.yul\":3290:3421   */\n      tag_58\n      jump\t// in\n    tag_70:\n        /* \"#utility.yul\":3282:3421   */\n      swap1\n      pop\n        /* \"#utility.yul\":3180:3428   */\n      swap2\n      swap1\n      pop\n      jump\t// out\n        /* \"#utility.yul\":3434:3853   */\n    tag_29:\n      0x00\n        /* \"#utility.yul\":3638:3640   */\n      0x20\n        /* \"#utility.yul\":3627:3636   */\n      dup3\n        /* \"#utility.yul\":3623:3641   */\n      add\n        /* \"#utility.yul\":3615:3641   */\n      swap1\n      pop\n        /* \"#utility.yul\":3687:3696   */\n      dup2\n        /* \"#utility.yul\":3681:3685   */\n      dup2\n        /* \"#utility.yul\":3677:3697   */\n      sub\n        /* \"#utility.yul\":3673:3674   */\n      0x00\n        /* \"#utility.yul\":3662:3671   */\n      dup4\n        /* \"#utility.yul\":3658:3675   */\n      add\n        /* \"#utility.yul\":3651:3698   */\n      mstore\n        /* \"#utility.yul\":3715:3846   */\n      tag_72\n        /* \"#utility.yul\":3841:3845   */\n      dup2\n        /* \"#utility.yul\":3715:3846   */\n      tag_61\n      jump\t// in\n    tag_72:\n        /* \"#utility.yul\":3707:3846   */\n      swap1\n      pop\n        /* \"#utility.yul\":3605:3853   */\n      swap2\n      swap1\n      pop\n      jump\t// out\n        /* \"#utility.yul\":3859:4028   */\n    tag_57:\n      0x00\n        /* \"#utility.yul\":3977:3983   */\n      dup3\n        /* \"#utility.yul\":3972:3975   */\n      dup3\n        /* \"#utility.yul\":3965:3984   */\n      mstore\n        /* \"#utility.yul\":4017:4021   */\n      0x20\n        /* \"#utility.yul\":4012:4015   */\n      dup3\n        /* \"#utility.yul\":4008:4022   */\n      add\n        /* \"#utility.yul\":3993:4022   */\n      swap1\n      pop\n        /* \"#utility.yul\":3955:4028   */\n      swap3\n      swap2\n      pop\n      pop\n      jump\t// out\n        /* \"#utility.yul\":4034:4130   */\n    tag_49:\n      0x00\n        /* \"#utility.yul\":4100:4124   */\n      tag_75\n        /* \"#utility.yul\":4118:4123   */\n      dup3\n        /* \"#utility.yul\":4100:4124   */\n      tag_76\n      jump\t// in\n    tag_75:\n        /* \"#utility.yul\":4089:4124   */\n      swap1\n      pop\n        /* \"#utility.yul\":4079:4130   */\n      swap2\n      swap1\n      pop\n      jump\t// out\n        /* \"#utility.yul\":4136:4226   */\n    tag_53:\n      0x00\n        /* \"#utility.yul\":4213:4218   */\n      dup2\n        /* \"#utility.yul\":4206:4219   */\n      iszero\n        /* \"#utility.yul\":4199:4220   */\n      iszero\n        /* \"#utility.yul\":4188:4220   */\n      swap1\n      pop\n        /* \"#utility.yul\":4178:4226   */\n      swap2\n      swap1\n      pop\n      jump\t// out\n        /* \"#utility.yul\":4232:4358   */\n    tag_76:\n      0x00\n        /* \"#utility.yul\":4309:4351   */\n      0xffffffffffffffffffffffffffffffffffffffff\n        /* \"#utility.yul\":4302:4307   */\n      dup3\n        /* \"#utility.yul\":4298:4352   */\n      and\n        /* \"#utility.yul\":4287:4352   */\n      swap1\n      pop\n        /* \"#utility.yul\":4277:4358   */\n      swap2\n      swap1\n      pop\n      jump\t// out\n        /* \"#utility.yul\":4364:4441   */\n    tag_79:\n      0x00\n        /* \"#utility.yul\":4430:4435   */\n      dup2\n        /* \"#utility.yul\":4419:4435   */\n      swap1\n      pop\n        /* \"#utility.yul\":4409:4441   */\n      swap2\n      swap1\n      pop\n      jump\t// out\n        /* \"#utility.yul\":4447:4569   */\n    tag_34:\n        /* \"#utility.yul\":4520:4544   */\n      tag_82\n        /* \"#utility.yul\":4538:4543   */\n      dup2\n        /* \"#utility.yul\":4520:4544   */\n      tag_49\n      jump\t// in\n    tag_82:\n        /* \"#utility.yul\":4513:4518   */\n      dup2\n        /* \"#utility.yul\":4510:4545   */\n      eq\n        /* \"#utility.yul\":4500:4502   */\n      tag_83\n      jumpi\n        /* \"#utility.yul\":4559:4560   */\n      0x00\n        /* \"#utility.yul\":4556:4557   */\n      dup1\n        /* \"#utility.yul\":4549:4561   */\n      revert\n        /* \"#utility.yul\":4500:4502   */\n    tag_83:\n        /* \"#utility.yul\":4490:4569   */\n      pop\n      jump\t// out\n        /* \"#utility.yul\":4575:4697   */\n    tag_38:\n        /* \"#utility.yul\":4648:4672   */\n      tag_85\n        /* \"#utility.yul\":4666:4671   */\n      dup2\n        /* \"#utility.yul\":4648:4672   */\n      tag_79\n      jump\t// in\n    tag_85:\n        /* \"#utility.yul\":4641:4646   */\n      dup2\n        /* \"#utility.yul\":4638:4673   */\n      eq\n        /* \"#utility.yul\":4628:4630   */\n      tag_86\n      jumpi\n        /* \"#utility.yul\":4687:4688   */\n      0x00\n        /* \"#utility.yul\":4684:4685   */\n      dup1\n        /* \"#utility.yul\":4677:4689   */\n      revert\n        /* \"#utility.yul\":4628:4630   */\n    tag_86:\n        /* \"#utility.yul\":4618:4697   */\n      pop\n      jump\t// out\n\n    auxdata: 0xa26469706673582212204cfa8724523ad1a4b57ec33927930ab6eff7b53d64cbd238037c787285f364e364736f6c63430008000033\n}\n",
				"bytecode": {
					"linkReferences": {},
					"object": "608060405234801561001057600080fd5b50610646806100206000396000f3fe608060405234801561001057600080fd5b50600436106100415760003560e01c806329507f73146100465780637acc0b2014610062578063c08e0f9614610093575b600080fd5b610060600480360381019061005b91906103c0565b6100af565b005b61007c60048036038101906100779190610397565b61020c565b60405161008a929190610500565b60405180910390f35b6100ad60048036038101906100a89190610397565b61025d565b005b60008083815260200190815260200160002060000160149054906101000a900460ff16610111576040517f08c379a000000000000000000000000000000000000000000000000000000000815260040161010890610529565b60405180910390fd5b3373ffffffffffffffffffffffffffffffffffffffff1660008084815260200190815260200160002060000160009054906101000a900473ffffffffffffffffffffffffffffffffffffffff1673ffffffffffffffffffffffffffffffffffffffff16146101b4576040517f08c379a00000000000000000000000000000000000000000000000000000000081526004016101ab90610549565b60405180910390fd5b8060008084815260200190815260200160002060000160006101000a81548173ffffffffffffffffffffffffffffffffffffffff021916908373ffffffffffffffffffffffffffffffffffffffff1602179055505050565b60006020528060005260406000206000915090508060000160009054906101000a900473ffffffffffffffffffffffffffffffffffffffff16908060000160149054906101000a900460ff16905082565b60008082815260200190815260200160002060000160149054906101000a900460ff16156102c0576040517f08c379a00000000000000000000000000000000000000000000000000000000081526004016102b790610569565b60405180910390fd5b60405180604001604052803373ffffffffffffffffffffffffffffffffffffffff1681526020016001151581525060008083815260200190815260200160002060008201518160000160006101000a81548173ffffffffffffffffffffffffffffffffffffffff021916908373ffffffffffffffffffffffffffffffffffffffff16021790555060208201518160000160146101000a81548160ff02191690831515021790555090505050565b60008135905061037c816105e2565b92915050565b600081359050610391816105f9565b92915050565b6000602082840312156103a957600080fd5b60006103b784828501610382565b91505092915050565b600080604083850312156103d357600080fd5b60006103e185828601610382565b92505060206103f28582860161036d565b9150509250929050565b6104058161059a565b82525050565b610414816105ac565b82525050565b6000610427601683610589565b91507f50726f64756374206e6f742072656769737465726564000000000000000000006000830152602082019050919050565b6000610467602f83610589565b91507f4f6e6c79207468652063757272656e74206f776e65722063616e207472616e7360008301527f666572207468652070726f6475637400000000000000000000000000000000006020830152604082019050919050565b60006104cd601a83610589565b91507f50726f6475637420616c726561647920726567697374657265640000000000006000830152602082019050919050565b600060408201905061051560008301856103fc565b610522602083018461040b565b9392505050565b600060208201905081810360008301526105428161041a565b9050919050565b600060208201905081810360008301526105628161045a565b9050919050565b60006020820190508181036000830152610582816104c0565b9050919050565b600082825260208201905092915050565b60006105a5826105b8565b9050919050565b60008115159050919050565b600073ffffffffffffffffffffffffffffffffffffffff82169050919050565b6000819050919050565b6105eb8161059a565b81146105f657600080fd5b50565b610602816105d8565b811461060d57600080fd5b5056fea26469706673582212204cfa8724523ad1a4b57ec33927930ab6eff7b53d64cbd238037c787285f364e364736f6c63430008000033",
					"opcodes": "PUSH1 0x80 PUSH1 0x40 MSTORE CALLVALUE DUP1 ISZERO PUSH2 0x10 JUMPI PUSH1 0x0 DUP1 REVERT JUMPDEST POP PUSH2 0x646 DUP1 PUSH2 0x20 PUSH1 0x0 CODECOPY PUSH1 0x0 RETURN INVALID PUSH1 0x80 PUSH1 0x40 MSTORE CALLVALUE DUP1 ISZERO PUSH2 0x10 JUMPI PUSH1 0x0 DUP1 REVERT JUMPDEST POP PUSH1 0x4 CALLDATASIZE LT PUSH2 0x41 JUMPI PUSH1 0x0 CALLDATALOAD PUSH1 0xE0 SHR DUP1 PUSH4 0x29507F73 EQ PUSH2 0x46 JUMPI DUP1 PUSH4 0x7ACC0B20 EQ PUSH2 0x62 JUMPI DUP1 PUSH4 0xC08E0F96 EQ PUSH2 0x93 JUMPI JUMPDEST PUSH1 0x0 DUP1 REVERT JUMPDEST PUSH2 0x60 PUSH1 0x4 DUP1 CALLDATASIZE SUB DUP2 ADD SWAP1 PUSH2 0x5B SWAP2 SWAP1 PUSH2 0x3C0 JUMP JUMPDEST PUSH2 0xAF JUMP JUMPDEST STOP JUMPDEST PUSH2 0x7C PUSH1 0x4 DUP1 CALLDATASIZE SUB DUP2 ADD SWAP1 PUSH2 0x77 SWAP2 SWAP1 PUSH2 0x397 JUMP JUMPDEST PUSH2 0x20C JUMP JUMPDEST PUSH1 0x40 MLOAD PUSH2 0x8A SWAP3 SWAP2 SWAP1 PUSH2 0x500 JUMP JUMPDEST PUSH1 0x40 MLOAD DUP1 SWAP2 SUB SWAP1 RETURN JUMPDEST PUSH2 0xAD PUSH1 0x4 DUP1 CALLDATASIZE SUB DUP2 ADD SWAP1 PUSH2 0xA8 SWAP2 SWAP1 PUSH2 0x397 JUMP JUMPDEST PUSH2 0x25D JUMP JUMPDEST STOP JUMPDEST PUSH1 0x0 DUP1 DUP4 DUP2 MSTORE PUSH1 0x20 ADD SWAP1 DUP2 MSTORE PUSH1 0x20 ADD PUSH1 0x0 KECCAK256 PUSH1 0x0 ADD PUSH1 0x14 SWAP1 SLOAD SWAP1 PUSH2 0x100 EXP SWAP1 DIV PUSH1 0xFF AND PUSH2 0x111 JUMPI PUSH1 0x40 MLOAD PUSH32 0x8C379A000000000000000000000000000000000000000000000000000000000 DUP2 MSTORE PUSH1 0x4 ADD PUSH2 0x108 SWAP1 PUSH2 0x529 JUMP JUMPDEST PUSH1 0x40 MLOAD DUP1 SWAP2 SUB SWAP1 REVERT JUMPDEST CALLER PUSH20 0xFFFFFFFFFFFFFFFFFFFFFFFFFFFFFFFFFFFFFFFF AND PUSH1 0x0 DUP1 DUP5 DUP2 MSTORE PUSH1 0x20 ADD SWAP1 DUP2 MSTORE PUSH1 0x20 ADD PUSH1 0x0 KECCAK256 PUSH1 0x0 ADD PUSH1 0x0 SWAP1 SLOAD SWAP1 PUSH2 0x100 EXP SWAP1 DIV PUSH20 0xFFFFFFFFFFFFFFFFFFFFFFFFFFFFFFFFFFFFFFFF AND PUSH20 0xFFFFFFFFFFFFFFFFFFFFFFFFFFFFFFFFFFFFFFFF AND EQ PUSH2 0x1B4 JUMPI PUSH1 0x40 MLOAD PUSH32 0x8C379A000000000000000000000000000000000000000000000000000000000 DUP2 MSTORE PUSH1 0x4 ADD PUSH2 0x1AB SWAP1 PUSH2 0x549 JUMP JUMPDEST PUSH1 0x40 MLOAD DUP1 SWAP2 SUB SWAP1 REVERT JUMPDEST DUP1 PUSH1 0x0 DUP1 DUP5 DUP2 MSTORE PUSH1 0x20 ADD SWAP1 DUP2 MSTORE PUSH1 0x20 ADD PUSH1 0x0 KECCAK256 PUSH1 0x0 ADD PUSH1 0x0 PUSH2 0x100 EXP DUP2 SLOAD DUP2 PUSH20 0xFFFFFFFFFFFFFFFFFFFFFFFFFFFFFFFFFFFFFFFF MUL NOT AND SWAP1 DUP4 PUSH20 0xFFFFFFFFFFFFFFFFFFFFFFFFFFFFFFFFFFFFFFFF AND MUL OR SWAP1 SSTORE POP POP POP JUMP JUMPDEST PUSH1 0x0 PUSH1 0x20 MSTORE DUP1 PUSH1 0x0 MSTORE PUSH1 0x40 PUSH1 0x0 KECCAK256 PUSH1 0x0 SWAP2 POP SWAP1 POP DUP1 PUSH1 0x0 ADD PUSH1 0x0 SWAP1 SLOAD SWAP1 PUSH2 0x100 EXP SWAP1 DIV PUSH20 0xFFFFFFFFFFFFFFFFFFFFFFFFFFFFFFFFFFFFFFFF AND SWAP1 DUP1 PUSH1 0x0 ADD PUSH1 0x14 SWAP1 SLOAD SWAP1 PUSH2 0x100 EXP SWAP1 DIV PUSH1 0xFF AND SWAP1 POP DUP3 JUMP JUMPDEST PUSH1 0x0 DUP1 DUP3 DUP2 MSTORE PUSH1 0x20 ADD SWAP1 DUP2 MSTORE PUSH1 0x20 ADD PUSH1 0x0 KECCAK256 PUSH1 0x0 ADD PUSH1 0x14 SWAP1 SLOAD SWAP1 PUSH2 0x100 EXP SWAP1 DIV PUSH1 0xFF AND ISZERO PUSH2 0x2C0 JUMPI PUSH1 0x40 MLOAD PUSH32 0x8C379A000000000000000000000000000000000000000000000000000000000 DUP2 MSTORE PUSH1 0x4 ADD PUSH2 0x2B7 SWAP1 PUSH2 0x569 JUMP JUMPDEST PUSH1 0x40 MLOAD DUP1 SWAP2 SUB SWAP1 REVERT JUMPDEST PUSH1 0x40 MLOAD DUP1 PUSH1 0x40 ADD PUSH1 0x40 MSTORE DUP1 CALLER PUSH20 0xFFFFFFFFFFFFFFFFFFFFFFFFFFFFFFFFFFFFFFFF AND DUP2 MSTORE PUSH1 0x20 ADD PUSH1 0x1 ISZERO ISZERO DUP2 MSTORE POP PUSH1 0x0 DUP1 DUP4 DUP2 MSTORE PUSH1 0x20 ADD SWAP1 DUP2 MSTORE PUSH1 0x20 ADD PUSH1 0x0 KECCAK256 PUSH1 0x0 DUP3 ADD MLOAD DUP2 PUSH1 0x0 ADD PUSH1 0x0 PUSH2 0x100 EXP DUP2 SLOAD DUP2 PUSH20 0xFFFFFFFFFFFFFFFFFFFFFFFFFFFFFFFFFFFFFFFF MUL NOT AND SWAP1 DUP4 PUSH20 0xFFFFFFFFFFFFFFFFFFFFFFFFFFFFFFFFFFFFFFFF AND MUL OR SWAP1 SSTORE POP PUSH1 0x20 DUP3 ADD MLOAD DUP2 PUSH1 0x0 ADD PUSH1 0x14 PUSH2 0x100 EXP DUP2 SLOAD DUP2 PUSH1 0xFF MUL NOT AND SWAP1 DUP4 ISZERO ISZERO MUL OR SWAP1 SSTORE POP SWAP1 POP POP POP JUMP JUMPDEST PUSH1 0x0 DUP2 CALLDATALOAD SWAP1 POP PUSH2 0x37C DUP2 PUSH2 0x5E2 JUMP JUMPDEST SWAP3 SWAP2 POP POP JUMP JUMPDEST PUSH1 0x0 DUP2 CALLDATALOAD SWAP1 POP PUSH2 0x391 DUP2 PUSH2 0x5F9 JUMP JUMPDEST SWAP3 SWAP2 POP POP JUMP JUMPDEST PUSH1 0x0 PUSH1 0x20 DUP3 DUP5 SUB SLT ISZERO PUSH2 0x3A9 JUMPI PUSH1 0x0 DUP1 REVERT JUMPDEST PUSH1 0x0 PUSH2 0x3B7 DUP5 DUP3 DUP6 ADD PUSH2 0x382 JUMP JUMPDEST SWAP2 POP POP SWAP3 SWAP2 POP POP JUMP JUMPDEST PUSH1 0x0 DUP1 PUSH1 0x40 DUP4 DUP6 SUB SLT ISZERO PUSH2 0x3D3 JUMPI PUSH1 0x0 DUP1 REVERT JUMPDEST PUSH1 0x0 PUSH2 0x3E1 DUP6 DUP3 DUP7 ADD PUSH2 0x382 JUMP JUMPDEST SWAP3 POP POP PUSH1 0x20 PUSH2 0x3F2 DUP6 DUP3 DUP7 ADD PUSH2 0x36D JUMP JUMPDEST SWAP2 POP POP SWAP3 POP SWAP3 SWAP1 POP JUMP JUMPDEST PUSH2 0x405 DUP2 PUSH2 0x59A JUMP JUMPDEST DUP3 MSTORE POP POP JUMP JUMPDEST PUSH2 0x414 DUP2 PUSH2 0x5AC JUMP JUMPDEST DUP3 MSTORE POP POP JUMP JUMPDEST PUSH1 0x0 PUSH2 0x427 PUSH1 0x16 DUP4 PUSH2 0x589 JUMP JUMPDEST SWAP2 POP PUSH32 0x50726F64756374206E6F74207265676973746572656400000000000000000000 PUSH1 0x0 DUP4 ADD MSTORE PUSH1 0x20 DUP3 ADD SWAP1 POP SWAP2 SWAP1 POP JUMP JUMPDEST PUSH1 0x0 PUSH2 0x467 PUSH1 0x2F DUP4 PUSH2 0x589 JUMP JUMPDEST SWAP2 POP PUSH32 0x4F6E6C79207468652063757272656E74206F776E65722063616E207472616E73 PUSH1 0x0 DUP4 ADD MSTORE PUSH32 0x666572207468652070726F647563740000000000000000000000000000000000 PUSH1 0x20 DUP4 ADD MSTORE PUSH1 0x40 DUP3 ADD SWAP1 POP SWAP2 SWAP1 POP JUMP JUMPDEST PUSH1 0x0 PUSH2 0x4CD PUSH1 0x1A DUP4 PUSH2 0x589 JUMP JUMPDEST SWAP2 POP PUSH32 0x50726F6475637420616C72656164792072656769737465726564000000000000 PUSH1 0x0 DUP4 ADD MSTORE PUSH1 0x20 DUP3 ADD SWAP1 POP SWAP2 SWAP1 POP JUMP JUMPDEST PUSH1 0x0 PUSH1 0x40 DUP3 ADD SWAP1 POP PUSH2 0x515 PUSH1 0x0 DUP4 ADD DUP6 PUSH2 0x3FC JUMP JUMPDEST PUSH2 0x522 PUSH1 0x20 DUP4 ADD DUP5 PUSH2 0x40B JUMP JUMPDEST SWAP4 SWAP3 POP POP POP JUMP JUMPDEST PUSH1 0x0 PUSH1 0x20 DUP3 ADD SWAP1 POP DUP2 DUP2 SUB PUSH1 0x0 DUP4 ADD MSTORE PUSH2 0x542 DUP2 PUSH2 0x41A JUMP JUMPDEST SWAP1 POP SWAP2 SWAP1 POP JUMP JUMPDEST PUSH1 0x0 PUSH1 0x20 DUP3 ADD SWAP1 POP DUP2 DUP2 SUB PUSH1 0x0 DUP4 ADD MSTORE PUSH2 0x562 DUP2 PUSH2 0x45A JUMP JUMPDEST SWAP1 POP SWAP2 SWAP1 POP JUMP JUMPDEST PUSH1 0x0 PUSH1 0x20 DUP3 ADD SWAP1 POP DUP2 DUP2 SUB PUSH1 0x0 DUP4 ADD MSTORE PUSH2 0x582 DUP2 PUSH2 0x4C0 JUMP JUMPDEST SWAP1 POP SWAP2 SWAP1 POP JUMP JUMPDEST PUSH1 0x0 DUP3 DUP3 MSTORE PUSH1 0x20 DUP3 ADD SWAP1 POP SWAP3 SWAP2 POP POP JUMP JUMPDEST PUSH1 0x0 PUSH2 0x5A5 DUP3 PUSH2 0x5B8 JUMP JUMPDEST SWAP1 POP SWAP2 SWAP1 POP JUMP JUMPDEST PUSH1 0x0 DUP2 ISZERO ISZERO SWAP1 POP SWAP2 SWAP1 POP JUMP JUMPDEST PUSH1 0x0 PUSH20 0xFFFFFFFFFFFFFFFFFFFFFFFFFFFFFFFFFFFFFFFF DUP3 AND SWAP1 POP SWAP2 SWAP1 POP JUMP JUMPDEST PUSH1 0x0 DUP2 SWAP1 POP SWAP2 SWAP1 POP JUMP JUMPDEST PUSH2 0x5EB DUP2 PUSH2 0x59A JUMP JUMPDEST DUP2 EQ PUSH2 0x5F6 JUMPI PUSH1 0x0 DUP1 REVERT JUMPDEST POP JUMP JUMPDEST PUSH2 0x602 DUP2 PUSH2 0x5D8 JUMP JUMPDEST DUP2 EQ PUSH2 0x60D JUMPI PUSH1 0x0 DUP1 REVERT JUMPDEST POP JUMP INVALID LOG2 PUSH5 0x6970667358 0x22 SLT KECCAK256 0x4C STATICCALL DUP8 0x24 MSTORE GASPRICE 0xD1 LOG4 0xB5 PUSH31 0xC33927930AB6EFF7B53D64CBD238037C787285F364E364736F6C6343000800 STOP CALLER "
				},
				"gasEstimates": {
					"creation": {
						"codeDepositCost": "321200",
						"executionCost": "362",
						"totalCost": "321562"
					},
					"external": {
						"products(uint256)": "2568",
						"registerProduct(uint256)": "43390",
						"transferOwnership(uint256,address)": "23498"
					}
				},
				"methodIdentifiers": {
					"products(uint256)": "7acc0b20",
					"registerProduct(uint256)": "c08e0f96",
					"transferOwnership(uint256,address)": "29507f73"
				}
			},
			"storageLayout": {
				"storage": [
					{
						"astId": 11,
						"contract": "contracts/Question/Problem-statement-5.sol:ProductRegistry",
						"label": "products",
						"offset": 0,
						"slot": "0",
						"type": "t_mapping(t_uint256,t_struct(Product)6_storage)"
					}
				],
				"types": {
					"t_address": {
						"encoding": "inplace",
						"label": "address",
						"numberOfBytes": "20"
					},
					"t_bool": {
						"encoding": "inplace",
						"label": "bool",
						"numberOfBytes": "1"
					},
					"t_mapping(t_uint256,t_struct(Product)6_storage)": {
						"encoding": "mapping",
						"key": "t_uint256",
						"label": "mapping(uint256 => struct ProductRegistry.Product)",
						"numberOfBytes": "32",
						"value": "t_struct(Product)6_storage"
					},
					"t_struct(Product)6_storage": {
						"encoding": "inplace",
						"label": "struct ProductRegistry.Product",
						"members": [
							{
								"astId": 3,
								"contract": "contracts/Question/Problem-statement-5.sol:ProductRegistry",
								"label": "owner",
								"offset": 0,
								"slot": "0",
								"type": "t_address"
							},
							{
								"astId": 5,
								"contract": "contracts/Question/Problem-statement-5.sol:ProductRegistry",
								"label": "exists",
								"offset": 20,
								"slot": "0",
								"type": "t_bool"
							}
						],
						"numberOfBytes": "32"
					},
					"t_uint256": {
						"encoding": "inplace",
						"label": "uint256",
						"numberOfBytes": "32"
					}
				}
			},
			"userdoc": {
				"kind": "user",
				"methods": {},
				"version": 1
			}
		}
	}
}