{
	"contracts/Question/Problem-statement-1.sol": {
		"ContactList": {
			"abi": [
				{
					"inputs": [
						{
							"internalType": "string",
							"name": "_name",
							"type": "string"
						},
						{
							"internalType": "string",
							"name": "_phoneNumber",
							"type": "string"
						}
					],
					"name": "addOrUpdateContact",
					"outputs": [],
					"stateMutability": "nonpayable",
					"type": "function"
				},
				{
					"inputs": [
						{
							"internalType": "address",
							"name": "",
							"type": "address"
						}
					],
					"name": "contacts",
					"outputs": [
						{
							"internalType": "string",
							"name": "name",
							"type": "string"
						},
						{
							"internalType": "string",
							"name": "phoneNumber",
							"type": "string"
						}
					],
					"stateMutability": "view",
					"type": "function"
				},
				{
					"inputs": [],
					"name": "getContactInfo",
					"outputs": [
						{
							"internalType": "string",
							"name": "",
							"type": "string"
						},
						{
							"internalType": "string",
							"name": "",
							"type": "string"
						}
					],
					"stateMutability": "view",
					"type": "function"
				}
			],
			"devdoc": {
				"kind": "dev",
				"methods": {},
				"version": 1
			},
			"evm": {
				"assembly": "    /* \"contracts/Question/Problem-statement-1.sol\":565:1098  contract ContactList {... */\n  mstore(0x40, 0x80)\n  callvalue\n  dup1\n  iszero\n  tag_1\n  jumpi\n  0x00\n  dup1\n  revert\ntag_1:\n  pop\n  dataSize(sub_0)\n  dup1\n  dataOffset(sub_0)\n  0x00\n  codecopy\n  0x00\n  return\nstop\n\nsub_0: assembly {\n        /* \"contracts/Question/Problem-statement-1.sol\":565:1098  contract ContactList {... */\n      mstore(0x40, 0x80)\n      callvalue\n      dup1\n      iszero\n      tag_1\n      jumpi\n      0x00\n      dup1\n      revert\n    tag_1:\n      pop\n      jumpi(tag_2, lt(calldatasize, 0x04))\n      shr(0xe0, calldataload(0x00))\n      dup1\n      0x2c1352cf\n      eq\n      tag_3\n      jumpi\n      dup1\n      0x5af1773e\n      eq\n      tag_4\n      jumpi\n      dup1\n      0xd7761883\n      eq\n      tag_5\n      jumpi\n    tag_2:\n      0x00\n      dup1\n      revert\n        /* \"contracts/Question/Problem-statement-1.sol\":675:718  mapping(address => Contact) public contacts */\n    tag_3:\n      tag_6\n      0x04\n      dup1\n      calldatasize\n      sub\n      dup2\n      add\n      swap1\n      tag_7\n      swap2\n      swap1\n      tag_8\n      jump\t// in\n    tag_7:\n      tag_9\n      jump\t// in\n    tag_6:\n      mload(0x40)\n      tag_10\n      swap3\n      swap2\n      swap1\n      tag_11\n      jump\t// in\n    tag_10:\n      mload(0x40)\n      dup1\n      swap2\n      sub\n      swap1\n      return\n        /* \"contracts/Question/Problem-statement-1.sol\":889:1095  function getContactInfo() public view returns (string memory, string memory) {... */\n    tag_4:\n      tag_12\n      tag_13\n      jump\t// in\n    tag_12:\n      mload(0x40)\n      tag_14\n      swap3\n      swap2\n      swap1\n      tag_11\n      jump\t// in\n    tag_14:\n      mload(0x40)\n      dup1\n      swap2\n      sub\n      swap1\n      return\n        /* \"contracts/Question/Problem-statement-1.sol\":727:881  function addOrUpdateContact(string memory _name, string memory _phoneNumber) public {... */\n    tag_5:\n      tag_15\n      0x04\n      dup1\n      calldatasize\n      sub\n      dup2\n      add\n      swap1\n      tag_16\n      swap2\n      swap1\n      tag_17\n      jump\t// in\n    tag_16:\n      tag_18\n      jump\t// in\n    tag_15:\n      stop\n        /* \"contracts/Question/Problem-statement-1.sol\":675:718  mapping(address => Contact) public contacts */\n    tag_9:\n      mstore(0x20, 0x00)\n      dup1\n      0x00\n      mstore\n      keccak256(0x00, 0x40)\n      0x00\n      swap2\n      pop\n      swap1\n      pop\n      dup1\n      0x00\n      add\n      dup1\n      sload\n      tag_19\n      swap1\n      tag_20\n      jump\t// in\n    tag_19:\n      dup1\n      0x1f\n      add\n      0x20\n      dup1\n      swap2\n      div\n      mul\n      0x20\n      add\n      mload(0x40)\n      swap1\n      dup2\n      add\n      0x40\n      mstore\n      dup1\n      swap3\n      swap2\n      swap1\n      dup2\n      dup2\n      mstore\n      0x20\n      add\n      dup3\n      dup1\n      sload\n      tag_21\n      swap1\n      tag_20\n      jump\t// in\n    tag_21:\n      dup1\n      iszero\n      tag_22\n      jumpi\n      dup1\n      0x1f\n      lt\n      tag_23\n      jumpi\n      0x0100\n      dup1\n      dup4\n      sload\n      div\n      mul\n      dup4\n      mstore\n      swap2\n      0x20\n      add\n      swap2\n      jump(tag_22)\n    tag_23:\n      dup3\n      add\n      swap2\n      swap1\n      0x00\n      mstore\n      keccak256(0x00, 0x20)\n      swap1\n    tag_24:\n      dup2\n      sload\n      dup2\n      mstore\n      swap1\n      0x01\n      add\n      swap1\n      0x20\n      add\n      dup1\n      dup4\n      gt\n      tag_24\n      jumpi\n      dup3\n      swap1\n      sub\n      0x1f\n      and\n      dup3\n      add\n      swap2\n    tag_22:\n      pop\n      pop\n      pop\n      pop\n      pop\n      swap1\n      dup1\n      0x01\n      add\n      dup1\n      sload\n      tag_25\n      swap1\n      tag_20\n      jump\t// in\n    tag_25:\n      dup1\n      0x1f\n      add\n      0x20\n      dup1\n      swap2\n      div\n      mul\n      0x20\n      add\n      mload(0x40)\n      swap1\n      dup2\n      add\n      0x40\n      mstore\n      dup1\n      swap3\n      swap2\n      swap1\n      dup2\n      dup2\n      mstore\n      0x20\n      add\n      dup3\n      dup1\n      sload\n      tag_26\n      swap1\n      tag_20\n      jump\t// in\n    tag_26:\n      dup1\n      iszero\n      tag_27\n      jumpi\n      dup1\n      0x1f\n      lt\n      tag_28\n      jumpi\n      0x0100\n      dup1\n      dup4\n      sload\n      div\n      mul\n      dup4\n      mstore\n      swap2\n      0x20\n      add\n      swap2\n      jump(tag_27)\n    tag_28:\n      dup3\n      add\n      swap2\n      swap1\n      0x00\n      mstore\n      keccak256(0x00, 0x20)\n      swap1\n    tag_29:\n      dup2\n      sload\n      dup2\n      mstore\n      swap1\n      0x01\n      add\n      swap1\n      0x20\n      add\n      dup1\n      dup4\n      gt\n      tag_29\n      jumpi\n      dup3\n      swap1\n      sub\n      0x1f\n      and\n      dup3\n      add\n      swap2\n    tag_27:\n      pop\n      pop\n      pop\n      pop\n      pop\n      swap1\n      pop\n      dup3\n      jump\t// out\n        /* \"contracts/Question/Problem-statement-1.sol\":889:1095  function getContactInfo() public view returns (string memory, string memory) {... */\n    tag_13:\n        /* \"contracts/Question/Problem-statement-1.sol\":936:949  string memory */\n      0x60\n        /* \"contracts/Question/Problem-statement-1.sol\":951:964  string memory */\n      dup1\n        /* \"contracts/Question/Problem-statement-1.sol\":977:1003  Contact memory userContact */\n      0x00\n        /* \"contracts/Question/Problem-statement-1.sol\":1006:1014  contacts */\n      dup1\n        /* \"contracts/Question/Problem-statement-1.sol\":1006:1026  contacts[msg.sender] */\n      0x00\n        /* \"contracts/Question/Problem-statement-1.sol\":1015:1025  msg.sender */\n      caller\n        /* \"contracts/Question/Problem-statement-1.sol\":1006:1026  contacts[msg.sender] */\n      0xffffffffffffffffffffffffffffffffffffffff\n      and\n      0xffffffffffffffffffffffffffffffffffffffff\n      and\n      dup2\n      mstore\n      0x20\n      add\n      swap1\n      dup2\n      mstore\n      0x20\n      add\n      0x00\n      keccak256\n        /* \"contracts/Question/Problem-statement-1.sol\":977:1026  Contact memory userContact = contacts[msg.sender] */\n      mload(0x40)\n      dup1\n      0x40\n      add\n      0x40\n      mstore\n      swap1\n      dup2\n      0x00\n      dup3\n      add\n      dup1\n      sload\n      tag_31\n      swap1\n      tag_20\n      jump\t// in\n    tag_31:\n      dup1\n      0x1f\n      add\n      0x20\n      dup1\n      swap2\n      div\n      mul\n      0x20\n      add\n      mload(0x40)\n      swap1\n      dup2\n      add\n      0x40\n      mstore\n      dup1\n      swap3\n      swap2\n      swap1\n      dup2\n      dup2\n      mstore\n      0x20\n      add\n      dup3\n      dup1\n      sload\n      tag_32\n      swap1\n      tag_20\n      jump\t// in\n    tag_32:\n      dup1\n      iszero\n      tag_33\n      jumpi\n      dup1\n      0x1f\n      lt\n      tag_34\n      jumpi\n      0x0100\n      dup1\n      dup4\n      sload\n      div\n      mul\n      dup4\n      mstore\n      swap2\n      0x20\n      add\n      swap2\n      jump(tag_33)\n    tag_34:\n      dup3\n      add\n      swap2\n      swap1\n      0x00\n      mstore\n      keccak256(0x00, 0x20)\n      swap1\n    tag_35:\n      dup2\n      sload\n      dup2\n      mstore\n      swap1\n      0x01\n      add\n      swap1\n      0x20\n      add\n      dup1\n      dup4\n      gt\n      tag_35\n      jumpi\n      dup3\n      swap1\n      sub\n      0x1f\n      and\n      dup3\n      add\n      swap2\n    tag_33:\n      pop\n      pop\n      pop\n      pop\n      pop\n      dup2\n      mstore\n      0x20\n      add\n      0x01\n      dup3\n      add\n      dup1\n      sload\n      tag_36\n      swap1\n      tag_20\n      jump\t// in\n    tag_36:\n      dup1\n      0x1f\n      add\n      0x20\n      dup1\n      swap2\n      div\n      mul\n      0x20\n      add\n      mload(0x40)\n      swap1\n      dup2\n      add\n      0x40\n      mstore\n      dup1\n      swap3\n      swap2\n      swap1\n      dup2\n      dup2\n      mstore\n      0x20\n      add\n      dup3\n      dup1\n      sload\n      tag_37\n      swap1\n      tag_20\n      jump\t// in\n    tag_37:\n      dup1\n      iszero\n      tag_38\n      jumpi\n      dup1\n      0x1f\n      lt\n      tag_39\n      jumpi\n      0x0100\n      dup1\n      dup4\n      sload\n      div\n      mul\n      dup4\n      mstore\n      swap2\n      0x20\n      add\n      swap2\n      jump(tag_38)\n    tag_39:\n      dup3\n      add\n      swap2\n      swap1\n      0x00\n      mstore\n      keccak256(0x00, 0x20)\n      swap1\n    tag_40:\n      dup2\n      sload\n      dup2\n      mstore\n      swap1\n      0x01\n      add\n      swap1\n      0x20\n      add\n      dup1\n      dup4\n      gt\n      tag_40\n      jumpi\n      dup3\n      swap1\n      sub\n      0x1f\n      and\n      dup3\n      add\n      swap2\n    tag_38:\n      pop\n      pop\n      pop\n      pop\n      pop\n      dup2\n      mstore\n      pop\n      pop\n      swap1\n      pop\n        /* \"contracts/Question/Problem-statement-1.sol\":1045:1056  userContact */\n      dup1\n        /* \"contracts/Question/Problem-statement-1.sol\":1045:1061  userContact.name */\n      0x00\n      add\n      mload\n        /* \"contracts/Question/Problem-statement-1.sol\":1063:1074  userContact */\n      dup2\n        /* \"contracts/Question/Problem-statement-1.sol\":1063:1086  userContact.phoneNumber */\n      0x20\n      add\n      mload\n        /* \"contracts/Question/Problem-statement-1.sol\":1037:1087  return (userContact.name, userContact.phoneNumber) */\n      swap3\n      pop\n      swap3\n      pop\n      pop\n        /* \"contracts/Question/Problem-statement-1.sol\":889:1095  function getContactInfo() public view returns (string memory, string memory) {... */\n      swap1\n      swap2\n      jump\t// out\n        /* \"contracts/Question/Problem-statement-1.sol\":727:881  function addOrUpdateContact(string memory _name, string memory _phoneNumber) public {... */\n    tag_18:\n        /* \"contracts/Question/Problem-statement-1.sol\":845:873  Contact(_name, _phoneNumber) */\n      mload(0x40)\n      dup1\n      0x40\n      add\n      0x40\n      mstore\n      dup1\n        /* \"contracts/Question/Problem-statement-1.sol\":853:858  _name */\n      dup4\n        /* \"contracts/Question/Problem-statement-1.sol\":845:873  Contact(_name, _phoneNumber) */\n      dup2\n      mstore\n      0x20\n      add\n        /* \"contracts/Question/Problem-statement-1.sol\":860:872  _phoneNumber */\n      dup3\n        /* \"contracts/Question/Problem-statement-1.sol\":845:873  Contact(_name, _phoneNumber) */\n      dup2\n      mstore\n      pop\n        /* \"contracts/Question/Problem-statement-1.sol\":822:830  contacts */\n      0x00\n        /* \"contracts/Question/Problem-statement-1.sol\":822:842  contacts[msg.sender] */\n      dup1\n        /* \"contracts/Question/Problem-statement-1.sol\":831:841  msg.sender */\n      caller\n        /* \"contracts/Question/Problem-statement-1.sol\":822:842  contacts[msg.sender] */\n      0xffffffffffffffffffffffffffffffffffffffff\n      and\n      0xffffffffffffffffffffffffffffffffffffffff\n      and\n      dup2\n      mstore\n      0x20\n      add\n      swap1\n      dup2\n      mstore\n      0x20\n      add\n      0x00\n      keccak256\n        /* \"contracts/Question/Problem-statement-1.sol\":822:873  contacts[msg.sender] = Contact(_name, _phoneNumber) */\n      0x00\n      dup3\n      add\n      mload\n      dup2\n      0x00\n      add\n      swap1\n      dup2\n      tag_42\n      swap2\n      swap1\n      tag_43\n      jump\t// in\n    tag_42:\n      pop\n      0x20\n      dup3\n      add\n      mload\n      dup2\n      0x01\n      add\n      swap1\n      dup2\n      tag_44\n      swap2\n      swap1\n      tag_43\n      jump\t// in\n    tag_44:\n      pop\n      swap1\n      pop\n      pop\n        /* \"contracts/Question/Problem-statement-1.sol\":727:881  function addOrUpdateContact(string memory _name, string memory _phoneNumber) public {... */\n      pop\n      pop\n      jump\t// out\n        /* \"#utility.yul\":7:82   */\n    tag_45:\n        /* \"#utility.yul\":40:46   */\n      0x00\n        /* \"#utility.yul\":73:75   */\n      0x40\n        /* \"#utility.yul\":67:76   */\n      mload\n        /* \"#utility.yul\":57:76   */\n      swap1\n      pop\n        /* \"#utility.yul\":7:82   */\n      swap1\n      jump\t// out\n        /* \"#utility.yul\":88:205   */\n    tag_46:\n        /* \"#utility.yul\":197:198   */\n      0x00\n        /* \"#utility.yul\":194:195   */\n      dup1\n        /* \"#utility.yul\":187:199   */\n      revert\n        /* \"#utility.yul\":211:328   */\n    tag_47:\n        /* \"#utility.yul\":320:321   */\n      0x00\n        /* \"#utility.yul\":317:318   */\n      dup1\n        /* \"#utility.yul\":310:322   */\n      revert\n        /* \"#utility.yul\":334:460   */\n    tag_48:\n        /* \"#utility.yul\":371:378   */\n      0x00\n        /* \"#utility.yul\":411:453   */\n      0xffffffffffffffffffffffffffffffffffffffff\n        /* \"#utility.yul\":404:409   */\n      dup3\n        /* \"#utility.yul\":400:454   */\n      and\n        /* \"#utility.yul\":389:454   */\n      swap1\n      pop\n        /* \"#utility.yul\":334:460   */\n      swap2\n      swap1\n      pop\n      jump\t// out\n        /* \"#utility.yul\":466:562   */\n    tag_49:\n        /* \"#utility.yul\":503:510   */\n      0x00\n        /* \"#utility.yul\":532:556   */\n      tag_89\n        /* \"#utility.yul\":550:555   */\n      dup3\n        /* \"#utility.yul\":532:556   */\n      tag_48\n      jump\t// in\n    tag_89:\n        /* \"#utility.yul\":521:556   */\n      swap1\n      pop\n        /* \"#utility.yul\":466:562   */\n      swap2\n      swap1\n      pop\n      jump\t// out\n        /* \"#utility.yul\":568:690   */\n    tag_50:\n        /* \"#utility.yul\":641:665   */\n      tag_91\n        /* \"#utility.yul\":659:664   */\n      dup2\n        /* \"#utility.yul\":641:665   */\n      tag_49\n      jump\t// in\n    tag_91:\n        /* \"#utility.yul\":634:639   */\n      dup2\n        /* \"#utility.yul\":631:666   */\n      eq\n        /* \"#utility.yul\":621:684   */\n      tag_92\n      jumpi\n        /* \"#utility.yul\":680:681   */\n      0x00\n        /* \"#utility.yul\":677:678   */\n      dup1\n        /* \"#utility.yul\":670:682   */\n      revert\n        /* \"#utility.yul\":621:684   */\n    tag_92:\n        /* \"#utility.yul\":568:690   */\n      pop\n      jump\t// out\n        /* \"#utility.yul\":696:835   */\n    tag_51:\n        /* \"#utility.yul\":742:747   */\n      0x00\n        /* \"#utility.yul\":780:786   */\n      dup2\n        /* \"#utility.yul\":767:787   */\n      calldataload\n        /* \"#utility.yul\":758:787   */\n      swap1\n      pop\n        /* \"#utility.yul\":796:829   */\n      tag_94\n        /* \"#utility.yul\":823:828   */\n      dup2\n        /* \"#utility.yul\":796:829   */\n      tag_50\n      jump\t// in\n    tag_94:\n        /* \"#utility.yul\":696:835   */\n      swap3\n      swap2\n      pop\n      pop\n      jump\t// out\n        /* \"#utility.yul\":841:1170   */\n    tag_8:\n        /* \"#utility.yul\":900:906   */\n      0x00\n        /* \"#utility.yul\":949:951   */\n      0x20\n        /* \"#utility.yul\":937:946   */\n      dup3\n        /* \"#utility.yul\":928:935   */\n      dup5\n        /* \"#utility.yul\":924:947   */\n      sub\n        /* \"#utility.yul\":920:952   */\n      slt\n        /* \"#utility.yul\":917:1036   */\n      iszero\n      tag_96\n      jumpi\n        /* \"#utility.yul\":955:1034   */\n      tag_97\n      tag_46\n      jump\t// in\n    tag_97:\n        /* \"#utility.yul\":917:1036   */\n    tag_96:\n        /* \"#utility.yul\":1075:1076   */\n      0x00\n        /* \"#utility.yul\":1100:1153   */\n      tag_98\n        /* \"#utility.yul\":1145:1152   */\n      dup5\n        /* \"#utility.yul\":1136:1142   */\n      dup3\n        /* \"#utility.yul\":1125:1134   */\n      dup6\n        /* \"#utility.yul\":1121:1143   */\n      add\n        /* \"#utility.yul\":1100:1153   */\n      tag_51\n      jump\t// in\n    tag_98:\n        /* \"#utility.yul\":1090:1153   */\n      swap2\n      pop\n        /* \"#utility.yul\":1046:1163   */\n      pop\n        /* \"#utility.yul\":841:1170   */\n      swap3\n      swap2\n      pop\n      pop\n      jump\t// out\n        /* \"#utility.yul\":1176:1275   */\n    tag_52:\n        /* \"#utility.yul\":1228:1234   */\n      0x00\n        /* \"#utility.yul\":1262:1267   */\n      dup2\n        /* \"#utility.yul\":1256:1268   */\n      mload\n        /* \"#utility.yul\":1246:1268   */\n      swap1\n      pop\n        /* \"#utility.yul\":1176:1275   */\n      swap2\n      swap1\n      pop\n      jump\t// out\n        /* \"#utility.yul\":1281:1450   */\n    tag_53:\n        /* \"#utility.yul\":1365:1376   */\n      0x00\n        /* \"#utility.yul\":1399:1405   */\n      dup3\n        /* \"#utility.yul\":1394:1397   */\n      dup3\n        /* \"#utility.yul\":1387:1406   */\n      mstore\n        /* \"#utility.yul\":1439:1443   */\n      0x20\n        /* \"#utility.yul\":1434:1437   */\n      dup3\n        /* \"#utility.yul\":1430:1444   */\n      add\n        /* \"#utility.yul\":1415:1444   */\n      swap1\n      pop\n        /* \"#utility.yul\":1281:1450   */\n      swap3\n      swap2\n      pop\n      pop\n      jump\t// out\n        /* \"#utility.yul\":1456:1702   */\n    tag_54:\n        /* \"#utility.yul\":1537:1538   */\n      0x00\n        /* \"#utility.yul\":1547:1660   */\n    tag_102:\n        /* \"#utility.yul\":1561:1567   */\n      dup4\n        /* \"#utility.yul\":1558:1559   */\n      dup2\n        /* \"#utility.yul\":1555:1568   */\n      lt\n        /* \"#utility.yul\":1547:1660   */\n      iszero\n      tag_104\n      jumpi\n        /* \"#utility.yul\":1646:1647   */\n      dup1\n        /* \"#utility.yul\":1641:1644   */\n      dup3\n        /* \"#utility.yul\":1637:1648   */\n      add\n        /* \"#utility.yul\":1631:1649   */\n      mload\n        /* \"#utility.yul\":1627:1628   */\n      dup2\n        /* \"#utility.yul\":1622:1625   */\n      dup5\n        /* \"#utility.yul\":1618:1629   */\n      add\n        /* \"#utility.yul\":1611:1650   */\n      mstore\n        /* \"#utility.yul\":1583:1585   */\n      0x20\n        /* \"#utility.yul\":1580:1581   */\n      dup2\n        /* \"#utility.yul\":1576:1586   */\n      add\n        /* \"#utility.yul\":1571:1586   */\n      swap1\n      pop\n        /* \"#utility.yul\":1547:1660   */\n      jump(tag_102)\n    tag_104:\n        /* \"#utility.yul\":1694:1695   */\n      0x00\n        /* \"#utility.yul\":1685:1691   */\n      dup5\n        /* \"#utility.yul\":1680:1683   */\n      dup5\n        /* \"#utility.yul\":1676:1692   */\n      add\n        /* \"#utility.yul\":1669:1696   */\n      mstore\n        /* \"#utility.yul\":1518:1702   */\n      pop\n        /* \"#utility.yul\":1456:1702   */\n      pop\n      pop\n      pop\n      jump\t// out\n        /* \"#utility.yul\":1708:1810   */\n    tag_55:\n        /* \"#utility.yul\":1749:1755   */\n      0x00\n        /* \"#utility.yul\":1800:1802   */\n      0x1f\n        /* \"#utility.yul\":1796:1803   */\n      not\n        /* \"#utility.yul\":1791:1793   */\n      0x1f\n        /* \"#utility.yul\":1784:1789   */\n      dup4\n        /* \"#utility.yul\":1780:1794   */\n      add\n        /* \"#utility.yul\":1776:1804   */\n      and\n        /* \"#utility.yul\":1766:1804   */\n      swap1\n      pop\n        /* \"#utility.yul\":1708:1810   */\n      swap2\n      swap1\n      pop\n      jump\t// out\n        /* \"#utility.yul\":1816:2193   */\n    tag_56:\n        /* \"#utility.yul\":1904:1907   */\n      0x00\n        /* \"#utility.yul\":1932:1971   */\n      tag_107\n        /* \"#utility.yul\":1965:1970   */\n      dup3\n        /* \"#utility.yul\":1932:1971   */\n      tag_52\n      jump\t// in\n    tag_107:\n        /* \"#utility.yul\":1987:2058   */\n      tag_108\n        /* \"#utility.yul\":2051:2057   */\n      dup2\n        /* \"#utility.yul\":2046:2049   */\n      dup6\n        /* \"#utility.yul\":1987:2058   */\n      tag_53\n      jump\t// in\n    tag_108:\n        /* \"#utility.yul\":1980:2058   */\n      swap4\n      pop\n        /* \"#utility.yul\":2067:2132   */\n      tag_109\n        /* \"#utility.yul\":2125:2131   */\n      dup2\n        /* \"#utility.yul\":2120:2123   */\n      dup6\n        /* \"#utility.yul\":2113:2117   */\n      0x20\n        /* \"#utility.yul\":2106:2111   */\n      dup7\n        /* \"#utility.yul\":2102:2118   */\n      add\n        /* \"#utility.yul\":2067:2132   */\n      tag_54\n      jump\t// in\n    tag_109:\n        /* \"#utility.yul\":2157:2186   */\n      tag_110\n        /* \"#utility.yul\":2179:2185   */\n      dup2\n        /* \"#utility.yul\":2157:2186   */\n      tag_55\n      jump\t// in\n    tag_110:\n        /* \"#utility.yul\":2152:2155   */\n      dup5\n        /* \"#utility.yul\":2148:2187   */\n      add\n        /* \"#utility.yul\":2141:2187   */\n      swap2\n      pop\n        /* \"#utility.yul\":1908:2193   */\n      pop\n        /* \"#utility.yul\":1816:2193   */\n      swap3\n      swap2\n      pop\n      pop\n      jump\t// out\n        /* \"#utility.yul\":2199:2713   */\n    tag_11:\n        /* \"#utility.yul\":2360:2364   */\n      0x00\n        /* \"#utility.yul\":2398:2400   */\n      0x40\n        /* \"#utility.yul\":2387:2396   */\n      dup3\n        /* \"#utility.yul\":2383:2401   */\n      add\n        /* \"#utility.yul\":2375:2401   */\n      swap1\n      pop\n        /* \"#utility.yul\":2447:2456   */\n      dup2\n        /* \"#utility.yul\":2441:2445   */\n      dup2\n        /* \"#utility.yul\":2437:2457   */\n      sub\n        /* \"#utility.yul\":2433:2434   */\n      0x00\n        /* \"#utility.yul\":2422:2431   */\n      dup4\n        /* \"#utility.yul\":2418:2435   */\n      add\n        /* \"#utility.yul\":2411:2458   */\n      mstore\n        /* \"#utility.yul\":2475:2553   */\n      tag_112\n        /* \"#utility.yul\":2548:2552   */\n      dup2\n        /* \"#utility.yul\":2539:2545   */\n      dup6\n        /* \"#utility.yul\":2475:2553   */\n      tag_56\n      jump\t// in\n    tag_112:\n        /* \"#utility.yul\":2467:2553   */\n      swap1\n      pop\n        /* \"#utility.yul\":2600:2609   */\n      dup2\n        /* \"#utility.yul\":2594:2598   */\n      dup2\n        /* \"#utility.yul\":2590:2610   */\n      sub\n        /* \"#utility.yul\":2585:2587   */\n      0x20\n        /* \"#utility.yul\":2574:2583   */\n      dup4\n        /* \"#utility.yul\":2570:2588   */\n      add\n        /* \"#utility.yul\":2563:2611   */\n      mstore\n        /* \"#utility.yul\":2628:2706   */\n      tag_113\n        /* \"#utility.yul\":2701:2705   */\n      dup2\n        /* \"#utility.yul\":2692:2698   */\n      dup5\n        /* \"#utility.yul\":2628:2706   */\n      tag_56\n      jump\t// in\n    tag_113:\n        /* \"#utility.yul\":2620:2706   */\n      swap1\n      pop\n        /* \"#utility.yul\":2199:2713   */\n      swap4\n      swap3\n      pop\n      pop\n      pop\n      jump\t// out\n        /* \"#utility.yul\":2719:2836   */\n    tag_57:\n        /* \"#utility.yul\":2828:2829   */\n      0x00\n        /* \"#utility.yul\":2825:2826   */\n      dup1\n        /* \"#utility.yul\":2818:2830   */\n      revert\n        /* \"#utility.yul\":2842:2959   */\n    tag_58:\n        /* \"#utility.yul\":2951:2952   */\n      0x00\n        /* \"#utility.yul\":2948:2949   */\n      dup1\n        /* \"#utility.yul\":2941:2953   */\n      revert\n        /* \"#utility.yul\":2965:3145   */\n    tag_59:\n        /* \"#utility.yul\":3013:3090   */\n      0x4e487b7100000000000000000000000000000000000000000000000000000000\n        /* \"#utility.yul\":3010:3011   */\n      0x00\n        /* \"#utility.yul\":3003:3091   */\n      mstore\n        /* \"#utility.yul\":3110:3114   */\n      0x41\n        /* \"#utility.yul\":3107:3108   */\n      0x04\n        /* \"#utility.yul\":3100:3115   */\n      mstore\n        /* \"#utility.yul\":3134:3138   */\n      0x24\n        /* \"#utility.yul\":3131:3132   */\n      0x00\n        /* \"#utility.yul\":3124:3139   */\n      revert\n        /* \"#utility.yul\":3151:3432   */\n    tag_60:\n        /* \"#utility.yul\":3234:3261   */\n      tag_118\n        /* \"#utility.yul\":3256:3260   */\n      dup3\n        /* \"#utility.yul\":3234:3261   */\n      tag_55\n      jump\t// in\n    tag_118:\n        /* \"#utility.yul\":3226:3232   */\n      dup2\n        /* \"#utility.yul\":3222:3262   */\n      add\n        /* \"#utility.yul\":3364:3370   */\n      dup2\n        /* \"#utility.yul\":3352:3362   */\n      dup2\n        /* \"#utility.yul\":3349:3371   */\n      lt\n        /* \"#utility.yul\":3328:3346   */\n      0xffffffffffffffff\n        /* \"#utility.yul\":3316:3326   */\n      dup3\n        /* \"#utility.yul\":3313:3347   */\n      gt\n        /* \"#utility.yul\":3310:3372   */\n      or\n        /* \"#utility.yul\":3307:3395   */\n      iszero\n      tag_119\n      jumpi\n        /* \"#utility.yul\":3375:3393   */\n      tag_120\n      tag_59\n      jump\t// in\n    tag_120:\n        /* \"#utility.yul\":3307:3395   */\n    tag_119:\n        /* \"#utility.yul\":3415:3425   */\n      dup1\n        /* \"#utility.yul\":3411:3413   */\n      0x40\n        /* \"#utility.yul\":3404:3426   */\n      mstore\n        /* \"#utility.yul\":3194:3432   */\n      pop\n        /* \"#utility.yul\":3151:3432   */\n      pop\n      pop\n      jump\t// out\n        /* \"#utility.yul\":3438:3567   */\n    tag_61:\n        /* \"#utility.yul\":3472:3478   */\n      0x00\n        /* \"#utility.yul\":3499:3519   */\n      tag_122\n      tag_45\n      jump\t// in\n    tag_122:\n        /* \"#utility.yul\":3489:3519   */\n      swap1\n      pop\n        /* \"#utility.yul\":3528:3561   */\n      tag_123\n        /* \"#utility.yul\":3556:3560   */\n      dup3\n        /* \"#utility.yul\":3548:3554   */\n      dup3\n        /* \"#utility.yul\":3528:3561   */\n      tag_60\n      jump\t// in\n    tag_123:\n        /* \"#utility.yul\":3438:3567   */\n      swap2\n      swap1\n      pop\n      jump\t// out\n        /* \"#utility.yul\":3573:3881   */\n    tag_62:\n        /* \"#utility.yul\":3635:3639   */\n      0x00\n        /* \"#utility.yul\":3725:3743   */\n      0xffffffffffffffff\n        /* \"#utility.yul\":3717:3723   */\n      dup3\n        /* \"#utility.yul\":3714:3744   */\n      gt\n        /* \"#utility.yul\":3711:3767   */\n      iszero\n      tag_125\n      jumpi\n        /* \"#utility.yul\":3747:3765   */\n      tag_126\n      tag_59\n      jump\t// in\n    tag_126:\n        /* \"#utility.yul\":3711:3767   */\n    tag_125:\n        /* \"#utility.yul\":3785:3814   */\n      tag_127\n        /* \"#utility.yul\":3807:3813   */\n      dup3\n        /* \"#utility.yul\":3785:3814   */\n      tag_55\n      jump\t// in\n    tag_127:\n        /* \"#utility.yul\":3777:3814   */\n      swap1\n      pop\n        /* \"#utility.yul\":3869:3873   */\n      0x20\n        /* \"#utility.yul\":3863:3867   */\n      dup2\n        /* \"#utility.yul\":3859:3874   */\n      add\n        /* \"#utility.yul\":3851:3874   */\n      swap1\n      pop\n        /* \"#utility.yul\":3573:3881   */\n      swap2\n      swap1\n      pop\n      jump\t// out\n        /* \"#utility.yul\":3887:4033   */\n    tag_63:\n        /* \"#utility.yul\":3984:3990   */\n      dup3\n        /* \"#utility.yul\":3979:3982   */\n      dup2\n        /* \"#utility.yul\":3974:3977   */\n      dup4\n        /* \"#utility.yul\":3961:3991   */\n      calldatacopy\n        /* \"#utility.yul\":4025:4026   */\n      0x00\n        /* \"#utility.yul\":4016:4022   */\n      dup4\n        /* \"#utility.yul\":4011:4014   */\n      dup4\n        /* \"#utility.yul\":4007:4023   */\n      add\n        /* \"#utility.yul\":4000:4027   */\n      mstore\n        /* \"#utility.yul\":3887:4033   */\n      pop\n      pop\n      pop\n      jump\t// out\n        /* \"#utility.yul\":4039:4464   */\n    tag_64:\n        /* \"#utility.yul\":4117:4122   */\n      0x00\n        /* \"#utility.yul\":4142:4208   */\n      tag_130\n        /* \"#utility.yul\":4158:4207   */\n      tag_131\n        /* \"#utility.yul\":4200:4206   */\n      dup5\n        /* \"#utility.yul\":4158:4207   */\n      tag_62\n      jump\t// in\n    tag_131:\n        /* \"#utility.yul\":4142:4208   */\n      tag_61\n      jump\t// in\n    tag_130:\n        /* \"#utility.yul\":4133:4208   */\n      swap1\n      pop\n        /* \"#utility.yul\":4231:4237   */\n      dup3\n        /* \"#utility.yul\":4224:4229   */\n      dup2\n        /* \"#utility.yul\":4217:4238   */\n      mstore\n        /* \"#utility.yul\":4269:4273   */\n      0x20\n        /* \"#utility.yul\":4262:4267   */\n      dup2\n        /* \"#utility.yul\":4258:4274   */\n      add\n        /* \"#utility.yul\":4307:4310   */\n      dup5\n        /* \"#utility.yul\":4298:4304   */\n      dup5\n        /* \"#utility.yul\":4293:4296   */\n      dup5\n        /* \"#utility.yul\":4289:4305   */\n      add\n        /* \"#utility.yul\":4286:4311   */\n      gt\n        /* \"#utility.yul\":4283:4395   */\n      iszero\n      tag_132\n      jumpi\n        /* \"#utility.yul\":4314:4393   */\n      tag_133\n      tag_58\n      jump\t// in\n    tag_133:\n        /* \"#utility.yul\":4283:4395   */\n    tag_132:\n        /* \"#utility.yul\":4404:4458   */\n      tag_134\n        /* \"#utility.yul\":4451:4457   */\n      dup5\n        /* \"#utility.yul\":4446:4449   */\n      dup3\n        /* \"#utility.yul\":4441:4444   */\n      dup6\n        /* \"#utility.yul\":4404:4458   */\n      tag_63\n      jump\t// in\n    tag_134:\n        /* \"#utility.yul\":4123:4464   */\n      pop\n        /* \"#utility.yul\":4039:4464   */\n      swap4\n      swap3\n      pop\n      pop\n      pop\n      jump\t// out\n        /* \"#utility.yul\":4484:4824   */\n    tag_65:\n        /* \"#utility.yul\":4540:4545   */\n      0x00\n        /* \"#utility.yul\":4589:4592   */\n      dup3\n        /* \"#utility.yul\":4582:4586   */\n      0x1f\n        /* \"#utility.yul\":4574:4580   */\n      dup4\n        /* \"#utility.yul\":4570:4587   */\n      add\n        /* \"#utility.yul\":4566:4593   */\n      slt\n        /* \"#utility.yul\":4556:4678   */\n      tag_136\n      jumpi\n        /* \"#utility.yul\":4597:4676   */\n      tag_137\n      tag_57\n      jump\t// in\n    tag_137:\n        /* \"#utility.yul\":4556:4678   */\n    tag_136:\n        /* \"#utility.yul\":4714:4720   */\n      dup2\n        /* \"#utility.yul\":4701:4721   */\n      calldataload\n        /* \"#utility.yul\":4739:4818   */\n      tag_138\n        /* \"#utility.yul\":4814:4817   */\n      dup5\n        /* \"#utility.yul\":4806:4812   */\n      dup3\n        /* \"#utility.yul\":4799:4803   */\n      0x20\n        /* \"#utility.yul\":4791:4797   */\n      dup7\n        /* \"#utility.yul\":4787:4804   */\n      add\n        /* \"#utility.yul\":4739:4818   */\n      tag_64\n      jump\t// in\n    tag_138:\n        /* \"#utility.yul\":4730:4818   */\n      swap2\n      pop\n        /* \"#utility.yul\":4546:4824   */\n      pop\n        /* \"#utility.yul\":4484:4824   */\n      swap3\n      swap2\n      pop\n      pop\n      jump\t// out\n        /* \"#utility.yul\":4830:5664   */\n    tag_17:\n        /* \"#utility.yul\":4918:4924   */\n      0x00\n        /* \"#utility.yul\":4926:4932   */\n      dup1\n        /* \"#utility.yul\":4975:4977   */\n      0x40\n        /* \"#utility.yul\":4963:4972   */\n      dup4\n        /* \"#utility.yul\":4954:4961   */\n      dup6\n        /* \"#utility.yul\":4950:4973   */\n      sub\n        /* \"#utility.yul\":4946:4978   */\n      slt\n        /* \"#utility.yul\":4943:5062   */\n      iszero\n      tag_140\n      jumpi\n        /* \"#utility.yul\":4981:5060   */\n      tag_141\n      tag_46\n      jump\t// in\n    tag_141:\n        /* \"#utility.yul\":4943:5062   */\n    tag_140:\n        /* \"#utility.yul\":5129:5130   */\n      0x00\n        /* \"#utility.yul\":5118:5127   */\n      dup4\n        /* \"#utility.yul\":5114:5131   */\n      add\n        /* \"#utility.yul\":5101:5132   */\n      calldataload\n        /* \"#utility.yul\":5159:5177   */\n      0xffffffffffffffff\n        /* \"#utility.yul\":5151:5157   */\n      dup2\n        /* \"#utility.yul\":5148:5178   */\n      gt\n        /* \"#utility.yul\":5145:5262   */\n      iszero\n      tag_142\n      jumpi\n        /* \"#utility.yul\":5181:5260   */\n      tag_143\n      tag_47\n      jump\t// in\n    tag_143:\n        /* \"#utility.yul\":5145:5262   */\n    tag_142:\n        /* \"#utility.yul\":5286:5349   */\n      tag_144\n        /* \"#utility.yul\":5341:5348   */\n      dup6\n        /* \"#utility.yul\":5332:5338   */\n      dup3\n        /* \"#utility.yul\":5321:5330   */\n      dup7\n        /* \"#utility.yul\":5317:5339   */\n      add\n        /* \"#utility.yul\":5286:5349   */\n      tag_65\n      jump\t// in\n    tag_144:\n        /* \"#utility.yul\":5276:5349   */\n      swap3\n      pop\n        /* \"#utility.yul\":5072:5359   */\n      pop\n        /* \"#utility.yul\":5426:5428   */\n      0x20\n        /* \"#utility.yul\":5415:5424   */\n      dup4\n        /* \"#utility.yul\":5411:5429   */\n      add\n        /* \"#utility.yul\":5398:5430   */\n      calldataload\n        /* \"#utility.yul\":5457:5475   */\n      0xffffffffffffffff\n        /* \"#utility.yul\":5449:5455   */\n      dup2\n        /* \"#utility.yul\":5446:5476   */\n      gt\n        /* \"#utility.yul\":5443:5560   */\n      iszero\n      tag_145\n      jumpi\n        /* \"#utility.yul\":5479:5558   */\n      tag_146\n      tag_47\n      jump\t// in\n    tag_146:\n        /* \"#utility.yul\":5443:5560   */\n    tag_145:\n        /* \"#utility.yul\":5584:5647   */\n      tag_147\n        /* \"#utility.yul\":5639:5646   */\n      dup6\n        /* \"#utility.yul\":5630:5636   */\n      dup3\n        /* \"#utility.yul\":5619:5628   */\n      dup7\n        /* \"#utility.yul\":5615:5637   */\n      add\n        /* \"#utility.yul\":5584:5647   */\n      tag_65\n      jump\t// in\n    tag_147:\n        /* \"#utility.yul\":5574:5647   */\n      swap2\n      pop\n        /* \"#utility.yul\":5369:5657   */\n      pop\n        /* \"#utility.yul\":4830:5664   */\n      swap3\n      pop\n      swap3\n      swap1\n      pop\n      jump\t// out\n        /* \"#utility.yul\":5670:5850   */\n    tag_66:\n        /* \"#utility.yul\":5718:5795   */\n      0x4e487b7100000000000000000000000000000000000000000000000000000000\n        /* \"#utility.yul\":5715:5716   */\n      0x00\n        /* \"#utility.yul\":5708:5796   */\n      mstore\n        /* \"#utility.yul\":5815:5819   */\n      0x22\n        /* \"#utility.yul\":5812:5813   */\n      0x04\n        /* \"#utility.yul\":5805:5820   */\n      mstore\n        /* \"#utility.yul\":5839:5843   */\n      0x24\n        /* \"#utility.yul\":5836:5837   */\n      0x00\n        /* \"#utility.yul\":5829:5844   */\n      revert\n        /* \"#utility.yul\":5856:6176   */\n    tag_20:\n        /* \"#utility.yul\":5900:5906   */\n      0x00\n        /* \"#utility.yul\":5937:5938   */\n      0x02\n        /* \"#utility.yul\":5931:5935   */\n      dup3\n        /* \"#utility.yul\":5927:5939   */\n      div\n        /* \"#utility.yul\":5917:5939   */\n      swap1\n      pop\n        /* \"#utility.yul\":5984:5985   */\n      0x01\n        /* \"#utility.yul\":5978:5982   */\n      dup3\n        /* \"#utility.yul\":5974:5986   */\n      and\n        /* \"#utility.yul\":6005:6023   */\n      dup1\n        /* \"#utility.yul\":5995:6076   */\n      tag_150\n      jumpi\n        /* \"#utility.yul\":6061:6065   */\n      0x7f\n        /* \"#utility.yul\":6053:6059   */\n      dup3\n        /* \"#utility.yul\":6049:6066   */\n      and\n        /* \"#utility.yul\":6039:6066   */\n      swap2\n      pop\n        /* \"#utility.yul\":5995:6076   */\n    tag_150:\n        /* \"#utility.yul\":6123:6125   */\n      0x20\n        /* \"#utility.yul\":6115:6121   */\n      dup3\n        /* \"#utility.yul\":6112:6126   */\n      lt\n        /* \"#utility.yul\":6092:6110   */\n      dup2\n        /* \"#utility.yul\":6089:6127   */\n      sub\n        /* \"#utility.yul\":6086:6170   */\n      tag_151\n      jumpi\n        /* \"#utility.yul\":6142:6160   */\n      tag_152\n      tag_66\n      jump\t// in\n    tag_152:\n        /* \"#utility.yul\":6086:6170   */\n    tag_151:\n        /* \"#utility.yul\":5907:6176   */\n      pop\n        /* \"#utility.yul\":5856:6176   */\n      swap2\n      swap1\n      pop\n      jump\t// out\n        /* \"#utility.yul\":6182:6323   */\n    tag_67:\n        /* \"#utility.yul\":6231:6235   */\n      0x00\n        /* \"#utility.yul\":6254:6257   */\n      dup2\n        /* \"#utility.yul\":6246:6257   */\n      swap1\n      pop\n        /* \"#utility.yul\":6277:6280   */\n      dup2\n        /* \"#utility.yul\":6274:6275   */\n      0x00\n        /* \"#utility.yul\":6267:6281   */\n      mstore\n        /* \"#utility.yul\":6311:6315   */\n      0x20\n        /* \"#utility.yul\":6308:6309   */\n      0x00\n        /* \"#utility.yul\":6298:6316   */\n      keccak256\n        /* \"#utility.yul\":6290:6316   */\n      swap1\n      pop\n        /* \"#utility.yul\":6182:6323   */\n      swap2\n      swap1\n      pop\n      jump\t// out\n        /* \"#utility.yul\":6329:6422   */\n    tag_68:\n        /* \"#utility.yul\":6366:6372   */\n      0x00\n        /* \"#utility.yul\":6413:6415   */\n      0x20\n        /* \"#utility.yul\":6408:6410   */\n      0x1f\n        /* \"#utility.yul\":6401:6406   */\n      dup4\n        /* \"#utility.yul\":6397:6411   */\n      add\n        /* \"#utility.yul\":6393:6416   */\n      div\n        /* \"#utility.yul\":6383:6416   */\n      swap1\n      pop\n        /* \"#utility.yul\":6329:6422   */\n      swap2\n      swap1\n      pop\n      jump\t// out\n        /* \"#utility.yul\":6428:6535   */\n    tag_69:\n        /* \"#utility.yul\":6472:6480   */\n      0x00\n        /* \"#utility.yul\":6522:6527   */\n      dup3\n        /* \"#utility.yul\":6516:6520   */\n      dup3\n        /* \"#utility.yul\":6512:6528   */\n      shl\n        /* \"#utility.yul\":6491:6528   */\n      swap1\n      pop\n        /* \"#utility.yul\":6428:6535   */\n      swap3\n      swap2\n      pop\n      pop\n      jump\t// out\n        /* \"#utility.yul\":6541:6934   */\n    tag_70:\n        /* \"#utility.yul\":6610:6616   */\n      0x00\n        /* \"#utility.yul\":6660:6661   */\n      0x08\n        /* \"#utility.yul\":6648:6658   */\n      dup4\n        /* \"#utility.yul\":6644:6662   */\n      mul\n        /* \"#utility.yul\":6683:6780   */\n      tag_157\n        /* \"#utility.yul\":6713:6779   */\n      0xffffffffffffffffffffffffffffffffffffffffffffffffffffffffffffffff\n        /* \"#utility.yul\":6702:6711   */\n      dup3\n        /* \"#utility.yul\":6683:6780   */\n      tag_69\n      jump\t// in\n    tag_157:\n        /* \"#utility.yul\":6801:6840   */\n      tag_158\n        /* \"#utility.yul\":6831:6839   */\n      dup7\n        /* \"#utility.yul\":6820:6829   */\n      dup4\n        /* \"#utility.yul\":6801:6840   */\n      tag_69\n      jump\t// in\n    tag_158:\n        /* \"#utility.yul\":6789:6840   */\n      swap6\n      pop\n        /* \"#utility.yul\":6873:6877   */\n      dup1\n        /* \"#utility.yul\":6869:6878   */\n      not\n        /* \"#utility.yul\":6862:6867   */\n      dup5\n        /* \"#utility.yul\":6858:6879   */\n      and\n        /* \"#utility.yul\":6849:6879   */\n      swap4\n      pop\n        /* \"#utility.yul\":6922:6926   */\n      dup1\n        /* \"#utility.yul\":6912:6920   */\n      dup7\n        /* \"#utility.yul\":6908:6927   */\n      and\n        /* \"#utility.yul\":6901:6906   */\n      dup5\n        /* \"#utility.yul\":6898:6928   */\n      or\n        /* \"#utility.yul\":6888:6928   */\n      swap3\n      pop\n        /* \"#utility.yul\":6617:6934   */\n      pop\n      pop\n        /* \"#utility.yul\":6541:6934   */\n      swap4\n      swap3\n      pop\n      pop\n      pop\n      jump\t// out\n        /* \"#utility.yul\":6940:7017   */\n    tag_71:\n        /* \"#utility.yul\":6977:6984   */\n      0x00\n        /* \"#utility.yul\":7006:7011   */\n      dup2\n        /* \"#utility.yul\":6995:7011   */\n      swap1\n      pop\n        /* \"#utility.yul\":6940:7017   */\n      swap2\n      swap1\n      pop\n      jump\t// out\n        /* \"#utility.yul\":7023:7083   */\n    tag_72:\n        /* \"#utility.yul\":7051:7054   */\n      0x00\n        /* \"#utility.yul\":7072:7077   */\n      dup2\n        /* \"#utility.yul\":7065:7077   */\n      swap1\n      pop\n        /* \"#utility.yul\":7023:7083   */\n      swap2\n      swap1\n      pop\n      jump\t// out\n        /* \"#utility.yul\":7089:7231   */\n    tag_73:\n        /* \"#utility.yul\":7139:7148   */\n      0x00\n        /* \"#utility.yul\":7172:7225   */\n      tag_162\n        /* \"#utility.yul\":7190:7224   */\n      tag_163\n        /* \"#utility.yul\":7199:7223   */\n      tag_164\n        /* \"#utility.yul\":7217:7222   */\n      dup5\n        /* \"#utility.yul\":7199:7223   */\n      tag_71\n      jump\t// in\n    tag_164:\n        /* \"#utility.yul\":7190:7224   */\n      tag_72\n      jump\t// in\n    tag_163:\n        /* \"#utility.yul\":7172:7225   */\n      tag_71\n      jump\t// in\n    tag_162:\n        /* \"#utility.yul\":7159:7225   */\n      swap1\n      pop\n        /* \"#utility.yul\":7089:7231   */\n      swap2\n      swap1\n      pop\n      jump\t// out\n        /* \"#utility.yul\":7237:7312   */\n    tag_74:\n        /* \"#utility.yul\":7280:7283   */\n      0x00\n        /* \"#utility.yul\":7301:7306   */\n      dup2\n        /* \"#utility.yul\":7294:7306   */\n      swap1\n      pop\n        /* \"#utility.yul\":7237:7312   */\n      swap2\n      swap1\n      pop\n      jump\t// out\n        /* \"#utility.yul\":7318:7587   */\n    tag_75:\n        /* \"#utility.yul\":7428:7467   */\n      tag_167\n        /* \"#utility.yul\":7459:7466   */\n      dup4\n        /* \"#utility.yul\":7428:7467   */\n      tag_73\n      jump\t// in\n    tag_167:\n        /* \"#utility.yul\":7489:7580   */\n      tag_168\n        /* \"#utility.yul\":7538:7579   */\n      tag_169\n        /* \"#utility.yul\":7562:7578   */\n      dup3\n        /* \"#utility.yul\":7538:7579   */\n      tag_74\n      jump\t// in\n    tag_169:\n        /* \"#utility.yul\":7530:7536   */\n      dup5\n        /* \"#utility.yul\":7523:7527   */\n      dup5\n        /* \"#utility.yul\":7517:7528   */\n      sload\n        /* \"#utility.yul\":7489:7580   */\n      tag_70\n      jump\t// in\n    tag_168:\n        /* \"#utility.yul\":7483:7487   */\n      dup3\n        /* \"#utility.yul\":7476:7581   */\n      sstore\n        /* \"#utility.yul\":7394:7587   */\n      pop\n        /* \"#utility.yul\":7318:7587   */\n      pop\n      pop\n      pop\n      jump\t// out\n        /* \"#utility.yul\":7593:7666   */\n    tag_76:\n        /* \"#utility.yul\":7638:7641   */\n      0x00\n        /* \"#utility.yul\":7593:7666   */\n      swap1\n      jump\t// out\n        /* \"#utility.yul\":7672:7861   */\n    tag_77:\n        /* \"#utility.yul\":7749:7781   */\n      tag_172\n      tag_76\n      jump\t// in\n    tag_172:\n        /* \"#utility.yul\":7790:7855   */\n      tag_173\n        /* \"#utility.yul\":7848:7854   */\n      dup2\n        /* \"#utility.yul\":7840:7846   */\n      dup5\n        /* \"#utility.yul\":7834:7838   */\n      dup5\n        /* \"#utility.yul\":7790:7855   */\n      tag_75\n      jump\t// in\n    tag_173:\n        /* \"#utility.yul\":7725:7861   */\n      pop\n        /* \"#utility.yul\":7672:7861   */\n      pop\n      pop\n      jump\t// out\n        /* \"#utility.yul\":7867:8053   */\n    tag_78:\n        /* \"#utility.yul\":7927:8047   */\n    tag_175:\n        /* \"#utility.yul\":7944:7947   */\n      dup2\n        /* \"#utility.yul\":7937:7942   */\n      dup2\n        /* \"#utility.yul\":7934:7948   */\n      lt\n        /* \"#utility.yul\":7927:8047   */\n      iszero\n      tag_177\n      jumpi\n        /* \"#utility.yul\":7998:8037   */\n      tag_178\n        /* \"#utility.yul\":8035:8036   */\n      0x00\n        /* \"#utility.yul\":8028:8033   */\n      dup3\n        /* \"#utility.yul\":7998:8037   */\n      tag_77\n      jump\t// in\n    tag_178:\n        /* \"#utility.yul\":7971:7972   */\n      0x01\n        /* \"#utility.yul\":7964:7969   */\n      dup2\n        /* \"#utility.yul\":7960:7973   */\n      add\n        /* \"#utility.yul\":7951:7973   */\n      swap1\n      pop\n        /* \"#utility.yul\":7927:8047   */\n      jump(tag_175)\n    tag_177:\n        /* \"#utility.yul\":7867:8053   */\n      pop\n      pop\n      jump\t// out\n        /* \"#utility.yul\":8059:8602   */\n    tag_79:\n        /* \"#utility.yul\":8160:8162   */\n      0x1f\n        /* \"#utility.yul\":8155:8158   */\n      dup3\n        /* \"#utility.yul\":8152:8163   */\n      gt\n        /* \"#utility.yul\":8149:8595   */\n      iszero\n      tag_180\n      jumpi\n        /* \"#utility.yul\":8194:8232   */\n      tag_181\n        /* \"#utility.yul\":8226:8231   */\n      dup2\n        /* \"#utility.yul\":8194:8232   */\n      tag_67\n      jump\t// in\n    tag_181:\n        /* \"#utility.yul\":8278:8307   */\n      tag_182\n        /* \"#utility.yul\":8296:8306   */\n      dup5\n        /* \"#utility.yul\":8278:8307   */\n      tag_68\n      jump\t// in\n    tag_182:\n        /* \"#utility.yul\":8268:8276   */\n      dup2\n        /* \"#utility.yul\":8264:8308   */\n      add\n        /* \"#utility.yul\":8461:8463   */\n      0x20\n        /* \"#utility.yul\":8449:8459   */\n      dup6\n        /* \"#utility.yul\":8446:8464   */\n      lt\n        /* \"#utility.yul\":8443:8492   */\n      iszero\n      tag_183\n      jumpi\n        /* \"#utility.yul\":8482:8490   */\n      dup2\n        /* \"#utility.yul\":8467:8490   */\n      swap1\n      pop\n        /* \"#utility.yul\":8443:8492   */\n    tag_183:\n        /* \"#utility.yul\":8505:8585   */\n      tag_184\n        /* \"#utility.yul\":8561:8583   */\n      tag_185\n        /* \"#utility.yul\":8579:8582   */\n      dup6\n        /* \"#utility.yul\":8561:8583   */\n      tag_68\n      jump\t// in\n    tag_185:\n        /* \"#utility.yul\":8551:8559   */\n      dup4\n        /* \"#utility.yul\":8547:8584   */\n      add\n        /* \"#utility.yul\":8534:8545   */\n      dup3\n        /* \"#utility.yul\":8505:8585   */\n      tag_78\n      jump\t// in\n    tag_184:\n        /* \"#utility.yul\":8164:8595   */\n      pop\n      pop\n        /* \"#utility.yul\":8149:8595   */\n    tag_180:\n        /* \"#utility.yul\":8059:8602   */\n      pop\n      pop\n      pop\n      jump\t// out\n        /* \"#utility.yul\":8608:8725   */\n    tag_80:\n        /* \"#utility.yul\":8662:8670   */\n      0x00\n        /* \"#utility.yul\":8712:8717   */\n      dup3\n        /* \"#utility.yul\":8706:8710   */\n      dup3\n        /* \"#utility.yul\":8702:8718   */\n      shr\n        /* \"#utility.yul\":8681:8718   */\n      swap1\n      pop\n        /* \"#utility.yul\":8608:8725   */\n      swap3\n      swap2\n      pop\n      pop\n      jump\t// out\n        /* \"#utility.yul\":8731:8900   */\n    tag_81:\n        /* \"#utility.yul\":8775:8781   */\n      0x00\n        /* \"#utility.yul\":8808:8859   */\n      tag_188\n        /* \"#utility.yul\":8856:8857   */\n      0x00\n        /* \"#utility.yul\":8852:8858   */\n      not\n        /* \"#utility.yul\":8844:8849   */\n      dup5\n        /* \"#utility.yul\":8841:8842   */\n      0x08\n        /* \"#utility.yul\":8837:8850   */\n      mul\n        /* \"#utility.yul\":8808:8859   */\n      tag_80\n      jump\t// in\n    tag_188:\n        /* \"#utility.yul\":8804:8860   */\n      not\n        /* \"#utility.yul\":8889:8893   */\n      dup1\n        /* \"#utility.yul\":8883:8887   */\n      dup4\n        /* \"#utility.yul\":8879:8894   */\n      and\n        /* \"#utility.yul\":8869:8894   */\n      swap2\n      pop\n        /* \"#utility.yul\":8782:8900   */\n      pop\n        /* \"#utility.yul\":8731:8900   */\n      swap3\n      swap2\n      pop\n      pop\n      jump\t// out\n        /* \"#utility.yul\":8905:9200   */\n    tag_82:\n        /* \"#utility.yul\":8981:8985   */\n      0x00\n        /* \"#utility.yul\":9127:9156   */\n      tag_190\n        /* \"#utility.yul\":9152:9155   */\n      dup4\n        /* \"#utility.yul\":9146:9150   */\n      dup4\n        /* \"#utility.yul\":9127:9156   */\n      tag_81\n      jump\t// in\n    tag_190:\n        /* \"#utility.yul\":9119:9156   */\n      swap2\n      pop\n        /* \"#utility.yul\":9189:9192   */\n      dup3\n        /* \"#utility.yul\":9186:9187   */\n      0x02\n        /* \"#utility.yul\":9182:9193   */\n      mul\n        /* \"#utility.yul\":9176:9180   */\n      dup3\n        /* \"#utility.yul\":9173:9194   */\n      or\n        /* \"#utility.yul\":9165:9194   */\n      swap1\n      pop\n        /* \"#utility.yul\":8905:9200   */\n      swap3\n      swap2\n      pop\n      pop\n      jump\t// out\n        /* \"#utility.yul\":9205:10600   */\n    tag_43:\n        /* \"#utility.yul\":9322:9359   */\n      tag_192\n        /* \"#utility.yul\":9355:9358   */\n      dup3\n        /* \"#utility.yul\":9322:9359   */\n      tag_52\n      jump\t// in\n    tag_192:\n        /* \"#utility.yul\":9424:9442   */\n      0xffffffffffffffff\n        /* \"#utility.yul\":9416:9422   */\n      dup2\n        /* \"#utility.yul\":9413:9443   */\n      gt\n        /* \"#utility.yul\":9410:9466   */\n      iszero\n      tag_193\n      jumpi\n        /* \"#utility.yul\":9446:9464   */\n      tag_194\n      tag_59\n      jump\t// in\n    tag_194:\n        /* \"#utility.yul\":9410:9466   */\n    tag_193:\n        /* \"#utility.yul\":9490:9528   */\n      tag_195\n        /* \"#utility.yul\":9522:9526   */\n      dup3\n        /* \"#utility.yul\":9516:9527   */\n      sload\n        /* \"#utility.yul\":9490:9528   */\n      tag_20\n      jump\t// in\n    tag_195:\n        /* \"#utility.yul\":9575:9642   */\n      tag_196\n        /* \"#utility.yul\":9635:9641   */\n      dup3\n        /* \"#utility.yul\":9627:9633   */\n      dup3\n        /* \"#utility.yul\":9621:9625   */\n      dup6\n        /* \"#utility.yul\":9575:9642   */\n      tag_79\n      jump\t// in\n    tag_196:\n        /* \"#utility.yul\":9669:9670   */\n      0x00\n        /* \"#utility.yul\":9693:9697   */\n      0x20\n        /* \"#utility.yul\":9680:9697   */\n      swap1\n      pop\n        /* \"#utility.yul\":9725:9727   */\n      0x1f\n        /* \"#utility.yul\":9717:9723   */\n      dup4\n        /* \"#utility.yul\":9714:9728   */\n      gt\n        /* \"#utility.yul\":9742:9743   */\n      0x01\n        /* \"#utility.yul\":9737:10355   */\n      dup2\n      eq\n      tag_198\n      jumpi\n        /* \"#utility.yul\":10399:10400   */\n      0x00\n        /* \"#utility.yul\":10416:10422   */\n      dup5\n        /* \"#utility.yul\":10413:10490   */\n      iszero\n      tag_199\n      jumpi\n        /* \"#utility.yul\":10465:10474   */\n      dup3\n        /* \"#utility.yul\":10460:10463   */\n      dup8\n        /* \"#utility.yul\":10456:10475   */\n      add\n        /* \"#utility.yul\":10450:10476   */\n      mload\n        /* \"#utility.yul\":10441:10476   */\n      swap1\n      pop\n        /* \"#utility.yul\":10413:10490   */\n    tag_199:\n        /* \"#utility.yul\":10516:10583   */\n      tag_200\n        /* \"#utility.yul\":10576:10582   */\n      dup6\n        /* \"#utility.yul\":10569:10574   */\n      dup3\n        /* \"#utility.yul\":10516:10583   */\n      tag_82\n      jump\t// in\n    tag_200:\n        /* \"#utility.yul\":10510:10514   */\n      dup7\n        /* \"#utility.yul\":10503:10584   */\n      sstore\n        /* \"#utility.yul\":10372:10594   */\n      pop\n        /* \"#utility.yul\":9707:10594   */\n      jump(tag_197)\n        /* \"#utility.yul\":9737:10355   */\n    tag_198:\n        /* \"#utility.yul\":9789:9793   */\n      0x1f\n        /* \"#utility.yul\":9785:9794   */\n      not\n        /* \"#utility.yul\":9777:9783   */\n      dup5\n        /* \"#utility.yul\":9773:9795   */\n      and\n        /* \"#utility.yul\":9823:9860   */\n      tag_201\n        /* \"#utility.yul\":9855:9859   */\n      dup7\n        /* \"#utility.yul\":9823:9860   */\n      tag_67\n      jump\t// in\n    tag_201:\n        /* \"#utility.yul\":9882:9883   */\n      0x00\n        /* \"#utility.yul\":9896:10104   */\n    tag_202:\n        /* \"#utility.yul\":9910:9917   */\n      dup3\n        /* \"#utility.yul\":9907:9908   */\n      dup2\n        /* \"#utility.yul\":9904:9918   */\n      lt\n        /* \"#utility.yul\":9896:10104   */\n      iszero\n      tag_204\n      jumpi\n        /* \"#utility.yul\":9989:9998   */\n      dup5\n        /* \"#utility.yul\":9984:9987   */\n      dup10\n        /* \"#utility.yul\":9980:9999   */\n      add\n        /* \"#utility.yul\":9974:10000   */\n      mload\n        /* \"#utility.yul\":9966:9972   */\n      dup3\n        /* \"#utility.yul\":9959:10001   */\n      sstore\n        /* \"#utility.yul\":10040:10041   */\n      0x01\n        /* \"#utility.yul\":10032:10038   */\n      dup3\n        /* \"#utility.yul\":10028:10042   */\n      add\n        /* \"#utility.yul\":10018:10042   */\n      swap2\n      pop\n        /* \"#utility.yul\":10087:10089   */\n      0x20\n        /* \"#utility.yul\":10076:10085   */\n      dup6\n        /* \"#utility.yul\":10072:10090   */\n      add\n        /* \"#utility.yul\":10059:10090   */\n      swap5\n      pop\n        /* \"#utility.yul\":9933:9937   */\n      0x20\n        /* \"#utility.yul\":9930:9931   */\n      dup2\n        /* \"#utility.yul\":9926:9938   */\n      add\n        /* \"#utility.yul\":9921:9938   */\n      swap1\n      pop\n        /* \"#utility.yul\":9896:10104   */\n      jump(tag_202)\n    tag_204:\n        /* \"#utility.yul\":10132:10138   */\n      dup7\n        /* \"#utility.yul\":10123:10130   */\n      dup4\n        /* \"#utility.yul\":10120:10139   */\n      lt\n        /* \"#utility.yul\":10117:10296   */\n      iszero\n      tag_205\n      jumpi\n        /* \"#utility.yul\":10190:10199   */\n      dup5\n        /* \"#utility.yul\":10185:10188   */\n      dup10\n        /* \"#utility.yul\":10181:10200   */\n      add\n        /* \"#utility.yul\":10175:10201   */\n      mload\n        /* \"#utility.yul\":10233:10281   */\n      tag_206\n        /* \"#utility.yul\":10275:10279   */\n      0x1f\n        /* \"#utility.yul\":10267:10273   */\n      dup10\n        /* \"#utility.yul\":10263:10280   */\n      and\n        /* \"#utility.yul\":10252:10261   */\n      dup3\n        /* \"#utility.yul\":10233:10281   */\n      tag_81\n      jump\t// in\n    tag_206:\n        /* \"#utility.yul\":10225:10231   */\n      dup4\n        /* \"#utility.yul\":10218:10282   */\n      sstore\n        /* \"#utility.yul\":10140:10296   */\n      pop\n        /* \"#utility.yul\":10117:10296   */\n    tag_205:\n        /* \"#utility.yul\":10342:10343   */\n      0x01\n        /* \"#utility.yul\":10338:10339   */\n      0x02\n        /* \"#utility.yul\":10330:10336   */\n      dup9\n        /* \"#utility.yul\":10326:10340   */\n      mul\n        /* \"#utility.yul\":10322:10344   */\n      add\n        /* \"#utility.yul\":10316:10320   */\n      dup9\n        /* \"#utility.yul\":10309:10345   */\n      sstore\n        /* \"#utility.yul\":9744:10355   */\n      pop\n      pop\n      pop\n        /* \"#utility.yul\":9707:10594   */\n    tag_197:\n      pop\n        /* \"#utility.yul\":9297:10600   */\n      pop\n      pop\n      pop\n        /* \"#utility.yul\":9205:10600   */\n      pop\n      pop\n      jump\t// out\n\n    auxdata: 0xa264697066735822122043d098d150ac3b26f67fede48f756752f7ae5522416b4396af82bf8425fcfd0964736f6c63430008180033\n}\n",
				"bytecode": {
					"linkReferences": {},
					"object": "608060405234801561000f575f80fd5b506109d98061001d5f395ff3fe608060405234801561000f575f80fd5b506004361061003f575f3560e01c80632c1352cf146100435780635af1773e14610074578063d776188314610093575b5f80fd5b61005d60048036038101906100589190610445565b6100af565b60405161006b9291906104fa565b60405180910390f35b61007c6101da565b60405161008a9291906104fa565b60405180910390f35b6100ad60048036038101906100a8919061065b565b610358565b005b5f602052805f5260405f205f91509050805f0180546100cd906106fe565b80601f01602080910402602001604051908101604052809291908181526020018280546100f9906106fe565b80156101445780601f1061011b57610100808354040283529160200191610144565b820191905f5260205f20905b81548152906001019060200180831161012757829003601f168201915b505050505090806001018054610159906106fe565b80601f0160208091040260200160405190810160405280929190818152602001828054610185906106fe565b80156101d05780601f106101a7576101008083540402835291602001916101d0565b820191905f5260205f20905b8154815290600101906020018083116101b357829003601f168201915b5050505050905082565b6060805f805f3373ffffffffffffffffffffffffffffffffffffffff1673ffffffffffffffffffffffffffffffffffffffff1681526020019081526020015f206040518060400160405290815f82018054610234906106fe565b80601f0160208091040260200160405190810160405280929190818152602001828054610260906106fe565b80156102ab5780601f10610282576101008083540402835291602001916102ab565b820191905f5260205f20905b81548152906001019060200180831161028e57829003601f168201915b505050505081526020016001820180546102c4906106fe565b80601f01602080910402602001604051908101604052809291908181526020018280546102f0906106fe565b801561033b5780601f106103125761010080835404028352916020019161033b565b820191905f5260205f20905b81548152906001019060200180831161031e57829003601f168201915b5050505050815250509050805f0151816020015192509250509091565b6040518060400160405280838152602001828152505f803373ffffffffffffffffffffffffffffffffffffffff1673ffffffffffffffffffffffffffffffffffffffff1681526020019081526020015f205f820151815f0190816103bc91906108d4565b5060208201518160010190816103d291906108d4565b509050505050565b5f604051905090565b5f80fd5b5f80fd5b5f73ffffffffffffffffffffffffffffffffffffffff82169050919050565b5f610414826103eb565b9050919050565b6104248161040a565b811461042e575f80fd5b50565b5f8135905061043f8161041b565b92915050565b5f6020828403121561045a576104596103e3565b5b5f61046784828501610431565b91505092915050565b5f81519050919050565b5f82825260208201905092915050565b5f5b838110156104a757808201518184015260208101905061048c565b5f8484015250505050565b5f601f19601f8301169050919050565b5f6104cc82610470565b6104d6818561047a565b93506104e681856020860161048a565b6104ef816104b2565b840191505092915050565b5f6040820190508181035f83015261051281856104c2565b9050818103602083015261052681846104c2565b90509392505050565b5f80fd5b5f80fd5b7f4e487b71000000000000000000000000000000000000000000000000000000005f52604160045260245ffd5b61056d826104b2565b810181811067ffffffffffffffff8211171561058c5761058b610537565b5b80604052505050565b5f61059e6103da565b90506105aa8282610564565b919050565b5f67ffffffffffffffff8211156105c9576105c8610537565b5b6105d2826104b2565b9050602081019050919050565b828183375f83830152505050565b5f6105ff6105fa846105af565b610595565b90508281526020810184848401111561061b5761061a610533565b5b6106268482856105df565b509392505050565b5f82601f8301126106425761064161052f565b5b81356106528482602086016105ed565b91505092915050565b5f8060408385031215610671576106706103e3565b5b5f83013567ffffffffffffffff81111561068e5761068d6103e7565b5b61069a8582860161062e565b925050602083013567ffffffffffffffff8111156106bb576106ba6103e7565b5b6106c78582860161062e565b9150509250929050565b7f4e487b71000000000000000000000000000000000000000000000000000000005f52602260045260245ffd5b5f600282049050600182168061071557607f821691505b602082108103610728576107276106d1565b5b50919050565b5f819050815f5260205f209050919050565b5f6020601f8301049050919050565b5f82821b905092915050565b5f6008830261078a7fffffffffffffffffffffffffffffffffffffffffffffffffffffffffffffffff8261074f565b610794868361074f565b95508019841693508086168417925050509392505050565b5f819050919050565b5f819050919050565b5f6107d86107d36107ce846107ac565b6107b5565b6107ac565b9050919050565b5f819050919050565b6107f1836107be565b6108056107fd826107df565b84845461075b565b825550505050565b5f90565b61081961080d565b6108248184846107e8565b505050565b5b818110156108475761083c5f82610811565b60018101905061082a565b5050565b601f82111561088c5761085d8161072e565b61086684610740565b81016020851015610875578190505b61088961088185610740565b830182610829565b50505b505050565b5f82821c905092915050565b5f6108ac5f1984600802610891565b1980831691505092915050565b5f6108c4838361089d565b9150826002028217905092915050565b6108dd82610470565b67ffffffffffffffff8111156108f6576108f5610537565b5b61090082546106fe565b61090b82828561084b565b5f60209050601f83116001811461093c575f841561092a578287015190505b61093485826108b9565b86555061099b565b601f19841661094a8661072e565b5f5b828110156109715784890151825560018201915060208501945060208101905061094c565b8683101561098e578489015161098a601f89168261089d565b8355505b6001600288020188555050505b50505050505056fea264697066735822122043d098d150ac3b26f67fede48f756752f7ae5522416b4396af82bf8425fcfd0964736f6c63430008180033",
					"opcodes": "PUSH1 0x80 PUSH1 0x40 MSTORE CALLVALUE DUP1 ISZERO PUSH2 0xF JUMPI PUSH0 DUP1 REVERT JUMPDEST POP PUSH2 0x9D9 DUP1 PUSH2 0x1D PUSH0 CODECOPY PUSH0 RETURN INVALID PUSH1 0x80 PUSH1 0x40 MSTORE CALLVALUE DUP1 ISZERO PUSH2 0xF JUMPI PUSH0 DUP1 REVERT JUMPDEST POP PUSH1 0x4 CALLDATASIZE LT PUSH2 0x3F JUMPI PUSH0 CALLDATALOAD PUSH1 0xE0 SHR DUP1 PUSH4 0x2C1352CF EQ PUSH2 0x43 JUMPI DUP1 PUSH4 0x5AF1773E EQ PUSH2 0x74 JUMPI DUP1 PUSH4 0xD7761883 EQ PUSH2 0x93 JUMPI JUMPDEST PUSH0 DUP1 REVERT JUMPDEST PUSH2 0x5D PUSH1 0x4 DUP1 CALLDATASIZE SUB DUP2 ADD SWAP1 PUSH2 0x58 SWAP2 SWAP1 PUSH2 0x445 JUMP JUMPDEST PUSH2 0xAF JUMP JUMPDEST PUSH1 0x40 MLOAD PUSH2 0x6B SWAP3 SWAP2 SWAP1 PUSH2 0x4FA JUMP JUMPDEST PUSH1 0x40 MLOAD DUP1 SWAP2 SUB SWAP1 RETURN JUMPDEST PUSH2 0x7C PUSH2 0x1DA JUMP JUMPDEST PUSH1 0x40 MLOAD PUSH2 0x8A SWAP3 SWAP2 SWAP1 PUSH2 0x4FA JUMP JUMPDEST PUSH1 0x40 MLOAD DUP1 SWAP2 SUB SWAP1 RETURN JUMPDEST PUSH2 0xAD PUSH1 0x4 DUP1 CALLDATASIZE SUB DUP2 ADD SWAP1 PUSH2 0xA8 SWAP2 SWAP1 PUSH2 0x65B JUMP JUMPDEST PUSH2 0x358 JUMP JUMPDEST STOP JUMPDEST PUSH0 PUSH1 0x20 MSTORE DUP1 PUSH0 MSTORE PUSH1 0x40 PUSH0 KECCAK256 PUSH0 SWAP2 POP SWAP1 POP DUP1 PUSH0 ADD DUP1 SLOAD PUSH2 0xCD SWAP1 PUSH2 0x6FE JUMP JUMPDEST DUP1 PUSH1 0x1F ADD PUSH1 0x20 DUP1 SWAP2 DIV MUL PUSH1 0x20 ADD PUSH1 0x40 MLOAD SWAP1 DUP2 ADD PUSH1 0x40 MSTORE DUP1 SWAP3 SWAP2 SWAP1 DUP2 DUP2 MSTORE PUSH1 0x20 ADD DUP3 DUP1 SLOAD PUSH2 0xF9 SWAP1 PUSH2 0x6FE JUMP JUMPDEST DUP1 ISZERO PUSH2 0x144 JUMPI DUP1 PUSH1 0x1F LT PUSH2 0x11B JUMPI PUSH2 0x100 DUP1 DUP4 SLOAD DIV MUL DUP4 MSTORE SWAP2 PUSH1 0x20 ADD SWAP2 PUSH2 0x144 JUMP JUMPDEST DUP3 ADD SWAP2 SWAP1 PUSH0 MSTORE PUSH1 0x20 PUSH0 KECCAK256 SWAP1 JUMPDEST DUP2 SLOAD DUP2 MSTORE SWAP1 PUSH1 0x1 ADD SWAP1 PUSH1 0x20 ADD DUP1 DUP4 GT PUSH2 0x127 JUMPI DUP3 SWAP1 SUB PUSH1 0x1F AND DUP3 ADD SWAP2 JUMPDEST POP POP POP POP POP SWAP1 DUP1 PUSH1 0x1 ADD DUP1 SLOAD PUSH2 0x159 SWAP1 PUSH2 0x6FE JUMP JUMPDEST DUP1 PUSH1 0x1F ADD PUSH1 0x20 DUP1 SWAP2 DIV MUL PUSH1 0x20 ADD PUSH1 0x40 MLOAD SWAP1 DUP2 ADD PUSH1 0x40 MSTORE DUP1 SWAP3 SWAP2 SWAP1 DUP2 DUP2 MSTORE PUSH1 0x20 ADD DUP3 DUP1 SLOAD PUSH2 0x185 SWAP1 PUSH2 0x6FE JUMP JUMPDEST DUP1 ISZERO PUSH2 0x1D0 JUMPI DUP1 PUSH1 0x1F LT PUSH2 0x1A7 JUMPI PUSH2 0x100 DUP1 DUP4 SLOAD DIV MUL DUP4 MSTORE SWAP2 PUSH1 0x20 ADD SWAP2 PUSH2 0x1D0 JUMP JUMPDEST DUP3 ADD SWAP2 SWAP1 PUSH0 MSTORE PUSH1 0x20 PUSH0 KECCAK256 SWAP1 JUMPDEST DUP2 SLOAD DUP2 MSTORE SWAP1 PUSH1 0x1 ADD SWAP1 PUSH1 0x20 ADD DUP1 DUP4 GT PUSH2 0x1B3 JUMPI DUP3 SWAP1 SUB PUSH1 0x1F AND DUP3 ADD SWAP2 JUMPDEST POP POP POP POP POP SWAP1 POP DUP3 JUMP JUMPDEST PUSH1 0x60 DUP1 PUSH0 DUP1 PUSH0 CALLER PUSH20 0xFFFFFFFFFFFFFFFFFFFFFFFFFFFFFFFFFFFFFFFF AND PUSH20 0xFFFFFFFFFFFFFFFFFFFFFFFFFFFFFFFFFFFFFFFF AND DUP2 MSTORE PUSH1 0x20 ADD SWAP1 DUP2 MSTORE PUSH1 0x20 ADD PUSH0 KECCAK256 PUSH1 0x40 MLOAD DUP1 PUSH1 0x40 ADD PUSH1 0x40 MSTORE SWAP1 DUP2 PUSH0 DUP3 ADD DUP1 SLOAD PUSH2 0x234 SWAP1 PUSH2 0x6FE JUMP JUMPDEST DUP1 PUSH1 0x1F ADD PUSH1 0x20 DUP1 SWAP2 DIV MUL PUSH1 0x20 ADD PUSH1 0x40 MLOAD SWAP1 DUP2 ADD PUSH1 0x40 MSTORE DUP1 SWAP3 SWAP2 SWAP1 DUP2 DUP2 MSTORE PUSH1 0x20 ADD DUP3 DUP1 SLOAD PUSH2 0x260 SWAP1 PUSH2 0x6FE JUMP JUMPDEST DUP1 ISZERO PUSH2 0x2AB JUMPI DUP1 PUSH1 0x1F LT PUSH2 0x282 JUMPI PUSH2 0x100 DUP1 DUP4 SLOAD DIV MUL DUP4 MSTORE SWAP2 PUSH1 0x20 ADD SWAP2 PUSH2 0x2AB JUMP JUMPDEST DUP3 ADD SWAP2 SWAP1 PUSH0 MSTORE PUSH1 0x20 PUSH0 KECCAK256 SWAP1 JUMPDEST DUP2 SLOAD DUP2 MSTORE SWAP1 PUSH1 0x1 ADD SWAP1 PUSH1 0x20 ADD DUP1 DUP4 GT PUSH2 0x28E JUMPI DUP3 SWAP1 SUB PUSH1 0x1F AND DUP3 ADD SWAP2 JUMPDEST POP POP POP POP POP DUP2 MSTORE PUSH1 0x20 ADD PUSH1 0x1 DUP3 ADD DUP1 SLOAD PUSH2 0x2C4 SWAP1 PUSH2 0x6FE JUMP JUMPDEST DUP1 PUSH1 0x1F ADD PUSH1 0x20 DUP1 SWAP2 DIV MUL PUSH1 0x20 ADD PUSH1 0x40 MLOAD SWAP1 DUP2 ADD PUSH1 0x40 MSTORE DUP1 SWAP3 SWAP2 SWAP1 DUP2 DUP2 MSTORE PUSH1 0x20 ADD DUP3 DUP1 SLOAD PUSH2 0x2F0 SWAP1 PUSH2 0x6FE JUMP JUMPDEST DUP1 ISZERO PUSH2 0x33B JUMPI DUP1 PUSH1 0x1F LT PUSH2 0x312 JUMPI PUSH2 0x100 DUP1 DUP4 SLOAD DIV MUL DUP4 MSTORE SWAP2 PUSH1 0x20 ADD SWAP2 PUSH2 0x33B JUMP JUMPDEST DUP3 ADD SWAP2 SWAP1 PUSH0 MSTORE PUSH1 0x20 PUSH0 KECCAK256 SWAP1 JUMPDEST DUP2 SLOAD DUP2 MSTORE SWAP1 PUSH1 0x1 ADD SWAP1 PUSH1 0x20 ADD DUP1 DUP4 GT PUSH2 0x31E JUMPI DUP3 SWAP1 SUB PUSH1 0x1F AND DUP3 ADD SWAP2 JUMPDEST POP POP POP POP POP DUP2 MSTORE POP POP SWAP1 POP DUP1 PUSH0 ADD MLOAD DUP2 PUSH1 0x20 ADD MLOAD SWAP3 POP SWAP3 POP POP SWAP1 SWAP2 JUMP JUMPDEST PUSH1 0x40 MLOAD DUP1 PUSH1 0x40 ADD PUSH1 0x40 MSTORE DUP1 DUP4 DUP2 MSTORE PUSH1 0x20 ADD DUP3 DUP2 MSTORE POP PUSH0 DUP1 CALLER PUSH20 0xFFFFFFFFFFFFFFFFFFFFFFFFFFFFFFFFFFFFFFFF AND PUSH20 0xFFFFFFFFFFFFFFFFFFFFFFFFFFFFFFFFFFFFFFFF AND DUP2 MSTORE PUSH1 0x20 ADD SWAP1 DUP2 MSTORE PUSH1 0x20 ADD PUSH0 KECCAK256 PUSH0 DUP3 ADD MLOAD DUP2 PUSH0 ADD SWAP1 DUP2 PUSH2 0x3BC SWAP2 SWAP1 PUSH2 0x8D4 JUMP JUMPDEST POP PUSH1 0x20 DUP3 ADD MLOAD DUP2 PUSH1 0x1 ADD SWAP1 DUP2 PUSH2 0x3D2 SWAP2 SWAP1 PUSH2 0x8D4 JUMP JUMPDEST POP SWAP1 POP POP POP POP JUMP JUMPDEST PUSH0 PUSH1 0x40 MLOAD SWAP1 POP SWAP1 JUMP JUMPDEST PUSH0 DUP1 REVERT JUMPDEST PUSH0 DUP1 REVERT JUMPDEST PUSH0 PUSH20 0xFFFFFFFFFFFFFFFFFFFFFFFFFFFFFFFFFFFFFFFF DUP3 AND SWAP1 POP SWAP2 SWAP1 POP JUMP JUMPDEST PUSH0 PUSH2 0x414 DUP3 PUSH2 0x3EB JUMP JUMPDEST SWAP1 POP SWAP2 SWAP1 POP JUMP JUMPDEST PUSH2 0x424 DUP2 PUSH2 0x40A JUMP JUMPDEST DUP2 EQ PUSH2 0x42E JUMPI PUSH0 DUP1 REVERT JUMPDEST POP JUMP JUMPDEST PUSH0 DUP2 CALLDATALOAD SWAP1 POP PUSH2 0x43F DUP2 PUSH2 0x41B JUMP JUMPDEST SWAP3 SWAP2 POP POP JUMP JUMPDEST PUSH0 PUSH1 0x20 DUP3 DUP5 SUB SLT ISZERO PUSH2 0x45A JUMPI PUSH2 0x459 PUSH2 0x3E3 JUMP JUMPDEST JUMPDEST PUSH0 PUSH2 0x467 DUP5 DUP3 DUP6 ADD PUSH2 0x431 JUMP JUMPDEST SWAP2 POP POP SWAP3 SWAP2 POP POP JUMP JUMPDEST PUSH0 DUP2 MLOAD SWAP1 POP SWAP2 SWAP1 POP JUMP JUMPDEST PUSH0 DUP3 DUP3 MSTORE PUSH1 0x20 DUP3 ADD SWAP1 POP SWAP3 SWAP2 POP POP JUMP JUMPDEST PUSH0 JUMPDEST DUP4 DUP2 LT ISZERO PUSH2 0x4A7 JUMPI DUP1 DUP3 ADD MLOAD DUP2 DUP5 ADD MSTORE PUSH1 0x20 DUP2 ADD SWAP1 POP PUSH2 0x48C JUMP JUMPDEST PUSH0 DUP5 DUP5 ADD MSTORE POP POP POP POP JUMP JUMPDEST PUSH0 PUSH1 0x1F NOT PUSH1 0x1F DUP4 ADD AND SWAP1 POP SWAP2 SWAP1 POP JUMP JUMPDEST PUSH0 PUSH2 0x4CC DUP3 PUSH2 0x470 JUMP JUMPDEST PUSH2 0x4D6 DUP2 DUP6 PUSH2 0x47A JUMP JUMPDEST SWAP4 POP PUSH2 0x4E6 DUP2 DUP6 PUSH1 0x20 DUP7 ADD PUSH2 0x48A JUMP JUMPDEST PUSH2 0x4EF DUP2 PUSH2 0x4B2 JUMP JUMPDEST DUP5 ADD SWAP2 POP POP SWAP3 SWAP2 POP POP JUMP JUMPDEST PUSH0 PUSH1 0x40 DUP3 ADD SWAP1 POP DUP2 DUP2 SUB PUSH0 DUP4 ADD MSTORE PUSH2 0x512 DUP2 DUP6 PUSH2 0x4C2 JUMP JUMPDEST SWAP1 POP DUP2 DUP2 SUB PUSH1 0x20 DUP4 ADD MSTORE PUSH2 0x526 DUP2 DUP5 PUSH2 0x4C2 JUMP JUMPDEST SWAP1 POP SWAP4 SWAP3 POP POP POP JUMP JUMPDEST PUSH0 DUP1 REVERT JUMPDEST PUSH0 DUP1 REVERT JUMPDEST PUSH32 0x4E487B7100000000000000000000000000000000000000000000000000000000 PUSH0 MSTORE PUSH1 0x41 PUSH1 0x4 MSTORE PUSH1 0x24 PUSH0 REVERT JUMPDEST PUSH2 0x56D DUP3 PUSH2 0x4B2 JUMP JUMPDEST DUP2 ADD DUP2 DUP2 LT PUSH8 0xFFFFFFFFFFFFFFFF DUP3 GT OR ISZERO PUSH2 0x58C JUMPI PUSH2 0x58B PUSH2 0x537 JUMP JUMPDEST JUMPDEST DUP1 PUSH1 0x40 MSTORE POP POP POP JUMP JUMPDEST PUSH0 PUSH2 0x59E PUSH2 0x3DA JUMP JUMPDEST SWAP1 POP PUSH2 0x5AA DUP3 DUP3 PUSH2 0x564 JUMP JUMPDEST SWAP2 SWAP1 POP JUMP JUMPDEST PUSH0 PUSH8 0xFFFFFFFFFFFFFFFF DUP3 GT ISZERO PUSH2 0x5C9 JUMPI PUSH2 0x5C8 PUSH2 0x537 JUMP JUMPDEST JUMPDEST PUSH2 0x5D2 DUP3 PUSH2 0x4B2 JUMP JUMPDEST SWAP1 POP PUSH1 0x20 DUP2 ADD SWAP1 POP SWAP2 SWAP1 POP JUMP JUMPDEST DUP3 DUP2 DUP4 CALLDATACOPY PUSH0 DUP4 DUP4 ADD MSTORE POP POP POP JUMP JUMPDEST PUSH0 PUSH2 0x5FF PUSH2 0x5FA DUP5 PUSH2 0x5AF JUMP JUMPDEST PUSH2 0x595 JUMP JUMPDEST SWAP1 POP DUP3 DUP2 MSTORE PUSH1 0x20 DUP2 ADD DUP5 DUP5 DUP5 ADD GT ISZERO PUSH2 0x61B JUMPI PUSH2 0x61A PUSH2 0x533 JUMP JUMPDEST JUMPDEST PUSH2 0x626 DUP5 DUP3 DUP6 PUSH2 0x5DF JUMP JUMPDEST POP SWAP4 SWAP3 POP POP POP JUMP JUMPDEST PUSH0 DUP3 PUSH1 0x1F DUP4 ADD SLT PUSH2 0x642 JUMPI PUSH2 0x641 PUSH2 0x52F JUMP JUMPDEST JUMPDEST DUP2 CALLDATALOAD PUSH2 0x652 DUP5 DUP3 PUSH1 0x20 DUP7 ADD PUSH2 0x5ED JUMP JUMPDEST SWAP2 POP POP SWAP3 SWAP2 POP POP JUMP JUMPDEST PUSH0 DUP1 PUSH1 0x40 DUP4 DUP6 SUB SLT ISZERO PUSH2 0x671 JUMPI PUSH2 0x670 PUSH2 0x3E3 JUMP JUMPDEST JUMPDEST PUSH0 DUP4 ADD CALLDATALOAD PUSH8 0xFFFFFFFFFFFFFFFF DUP2 GT ISZERO PUSH2 0x68E JUMPI PUSH2 0x68D PUSH2 0x3E7 JUMP JUMPDEST JUMPDEST PUSH2 0x69A DUP6 DUP3 DUP7 ADD PUSH2 0x62E JUMP JUMPDEST SWAP3 POP POP PUSH1 0x20 DUP4 ADD CALLDATALOAD PUSH8 0xFFFFFFFFFFFFFFFF DUP2 GT ISZERO PUSH2 0x6BB JUMPI PUSH2 0x6BA PUSH2 0x3E7 JUMP JUMPDEST JUMPDEST PUSH2 0x6C7 DUP6 DUP3 DUP7 ADD PUSH2 0x62E JUMP JUMPDEST SWAP2 POP POP SWAP3 POP SWAP3 SWAP1 POP JUMP JUMPDEST PUSH32 0x4E487B7100000000000000000000000000000000000000000000000000000000 PUSH0 MSTORE PUSH1 0x22 PUSH1 0x4 MSTORE PUSH1 0x24 PUSH0 REVERT JUMPDEST PUSH0 PUSH1 0x2 DUP3 DIV SWAP1 POP PUSH1 0x1 DUP3 AND DUP1 PUSH2 0x715 JUMPI PUSH1 0x7F DUP3 AND SWAP2 POP JUMPDEST PUSH1 0x20 DUP3 LT DUP2 SUB PUSH2 0x728 JUMPI PUSH2 0x727 PUSH2 0x6D1 JUMP JUMPDEST JUMPDEST POP SWAP2 SWAP1 POP JUMP JUMPDEST PUSH0 DUP2 SWAP1 POP DUP2 PUSH0 MSTORE PUSH1 0x20 PUSH0 KECCAK256 SWAP1 POP SWAP2 SWAP1 POP JUMP JUMPDEST PUSH0 PUSH1 0x20 PUSH1 0x1F DUP4 ADD DIV SWAP1 POP SWAP2 SWAP1 POP JUMP JUMPDEST PUSH0 DUP3 DUP3 SHL SWAP1 POP SWAP3 SWAP2 POP POP JUMP JUMPDEST PUSH0 PUSH1 0x8 DUP4 MUL PUSH2 0x78A PUSH32 0xFFFFFFFFFFFFFFFFFFFFFFFFFFFFFFFFFFFFFFFFFFFFFFFFFFFFFFFFFFFFFFFF DUP3 PUSH2 0x74F JUMP JUMPDEST PUSH2 0x794 DUP7 DUP4 PUSH2 0x74F JUMP JUMPDEST SWAP6 POP DUP1 NOT DUP5 AND SWAP4 POP DUP1 DUP7 AND DUP5 OR SWAP3 POP POP POP SWAP4 SWAP3 POP POP POP JUMP JUMPDEST PUSH0 DUP2 SWAP1 POP SWAP2 SWAP1 POP JUMP JUMPDEST PUSH0 DUP2 SWAP1 POP SWAP2 SWAP1 POP JUMP JUMPDEST PUSH0 PUSH2 0x7D8 PUSH2 0x7D3 PUSH2 0x7CE DUP5 PUSH2 0x7AC JUMP JUMPDEST PUSH2 0x7B5 JUMP JUMPDEST PUSH2 0x7AC JUMP JUMPDEST SWAP1 POP SWAP2 SWAP1 POP JUMP JUMPDEST PUSH0 DUP2 SWAP1 POP SWAP2 SWAP1 POP JUMP JUMPDEST PUSH2 0x7F1 DUP4 PUSH2 0x7BE JUMP JUMPDEST PUSH2 0x805 PUSH2 0x7FD DUP3 PUSH2 0x7DF JUMP JUMPDEST DUP5 DUP5 SLOAD PUSH2 0x75B JUMP JUMPDEST DUP3 SSTORE POP POP POP POP JUMP JUMPDEST PUSH0 SWAP1 JUMP JUMPDEST PUSH2 0x819 PUSH2 0x80D JUMP JUMPDEST PUSH2 0x824 DUP2 DUP5 DUP5 PUSH2 0x7E8 JUMP JUMPDEST POP POP POP JUMP JUMPDEST JUMPDEST DUP2 DUP2 LT ISZERO PUSH2 0x847 JUMPI PUSH2 0x83C PUSH0 DUP3 PUSH2 0x811 JUMP JUMPDEST PUSH1 0x1 DUP2 ADD SWAP1 POP PUSH2 0x82A JUMP JUMPDEST POP POP JUMP JUMPDEST PUSH1 0x1F DUP3 GT ISZERO PUSH2 0x88C JUMPI PUSH2 0x85D DUP2 PUSH2 0x72E JUMP JUMPDEST PUSH2 0x866 DUP5 PUSH2 0x740 JUMP JUMPDEST DUP2 ADD PUSH1 0x20 DUP6 LT ISZERO PUSH2 0x875 JUMPI DUP2 SWAP1 POP JUMPDEST PUSH2 0x889 PUSH2 0x881 DUP6 PUSH2 0x740 JUMP JUMPDEST DUP4 ADD DUP3 PUSH2 0x829 JUMP JUMPDEST POP POP JUMPDEST POP POP POP JUMP JUMPDEST PUSH0 DUP3 DUP3 SHR SWAP1 POP SWAP3 SWAP2 POP POP JUMP JUMPDEST PUSH0 PUSH2 0x8AC PUSH0 NOT DUP5 PUSH1 0x8 MUL PUSH2 0x891 JUMP JUMPDEST NOT DUP1 DUP4 AND SWAP2 POP POP SWAP3 SWAP2 POP POP JUMP JUMPDEST PUSH0 PUSH2 0x8C4 DUP4 DUP4 PUSH2 0x89D JUMP JUMPDEST SWAP2 POP DUP3 PUSH1 0x2 MUL DUP3 OR SWAP1 POP SWAP3 SWAP2 POP POP JUMP JUMPDEST PUSH2 0x8DD DUP3 PUSH2 0x470 JUMP JUMPDEST PUSH8 0xFFFFFFFFFFFFFFFF DUP2 GT ISZERO PUSH2 0x8F6 JUMPI PUSH2 0x8F5 PUSH2 0x537 JUMP JUMPDEST JUMPDEST PUSH2 0x900 DUP3 SLOAD PUSH2 0x6FE JUMP JUMPDEST PUSH2 0x90B DUP3 DUP3 DUP6 PUSH2 0x84B JUMP JUMPDEST PUSH0 PUSH1 0x20 SWAP1 POP PUSH1 0x1F DUP4 GT PUSH1 0x1 DUP2 EQ PUSH2 0x93C JUMPI PUSH0 DUP5 ISZERO PUSH2 0x92A JUMPI DUP3 DUP8 ADD MLOAD SWAP1 POP JUMPDEST PUSH2 0x934 DUP6 DUP3 PUSH2 0x8B9 JUMP JUMPDEST DUP7 SSTORE POP PUSH2 0x99B JUMP JUMPDEST PUSH1 0x1F NOT DUP5 AND PUSH2 0x94A DUP7 PUSH2 0x72E JUMP JUMPDEST PUSH0 JUMPDEST DUP3 DUP2 LT ISZERO PUSH2 0x971 JUMPI DUP5 DUP10 ADD MLOAD DUP3 SSTORE PUSH1 0x1 DUP3 ADD SWAP2 POP PUSH1 0x20 DUP6 ADD SWAP5 POP PUSH1 0x20 DUP2 ADD SWAP1 POP PUSH2 0x94C JUMP JUMPDEST DUP7 DUP4 LT ISZERO PUSH2 0x98E JUMPI DUP5 DUP10 ADD MLOAD PUSH2 0x98A PUSH1 0x1F DUP10 AND DUP3 PUSH2 0x89D JUMP JUMPDEST DUP4 SSTORE POP JUMPDEST PUSH1 0x1 PUSH1 0x2 DUP9 MUL ADD DUP9 SSTORE POP POP POP JUMPDEST POP POP POP POP POP POP JUMP INVALID LOG2 PUSH5 0x6970667358 0x22 SLT KECCAK256 NUMBER 0xD0 SWAP9 0xD1 POP 0xAC EXTCODESIZE 0x26 0xF6 PUSH32 0xEDE48F756752F7AE5522416B4396AF82BF8425FCFD0964736F6C634300081800 CALLER "
				},
				"gasEstimates": {
					"creation": {
						"codeDepositCost": "504200",
						"executionCost": "535",
						"totalCost": "504735"
					},
					"external": {
						"addOrUpdateContact(string,string)": "infinite",
						"contacts(address)": "infinite",
						"getContactInfo()": "infinite"
					}
				},
				"methodIdentifiers": {
					"addOrUpdateContact(string,string)": "d7761883",
					"contacts(address)": "2c1352cf",
					"getContactInfo()": "5af1773e"
				}
			},
			"storageLayout": {
				"storage": [
					{
						"astId": 11,
						"contract": "contracts/Question/Problem-statement-1.sol:ContactList",
						"label": "contacts",
						"offset": 0,
						"slot": "0",
						"type": "t_mapping(t_address,t_struct(Contact)6_storage)"
					}
				],
				"types": {
					"t_address": {
						"encoding": "inplace",
						"label": "address",
						"numberOfBytes": "20"
					},
					"t_mapping(t_address,t_struct(Contact)6_storage)": {
						"encoding": "mapping",
						"key": "t_address",
						"label": "mapping(address => struct ContactList.Contact)",
						"numberOfBytes": "32",
						"value": "t_struct(Contact)6_storage"
					},
					"t_string_storage": {
						"encoding": "bytes",
						"label": "string",
						"numberOfBytes": "32"
					},
					"t_struct(Contact)6_storage": {
						"encoding": "inplace",
						"label": "struct ContactList.Contact",
						"members": [
							{
								"astId": 3,
								"contract": "contracts/Question/Problem-statement-1.sol:ContactList",
								"label": "name",
								"offset": 0,
								"slot": "0",
								"type": "t_string_storage"
							},
							{
								"astId": 5,
								"contract": "contracts/Question/Problem-statement-1.sol:ContactList",
								"label": "phoneNumber",
								"offset": 0,
								"slot": "1",
								"type": "t_string_storage"
							}
						],
						"numberOfBytes": "64"
					}
				}
			},
			"userdoc": {
				"kind": "user",
				"methods": {},
				"version": 1
			}
		}
	}
}