{
	"contracts/Question/Problem-statement-4.sol": {
		"SimpleAuth": {
			"abi": [
				{
					"inputs": [
						{
							"internalType": "address",
							"name": "_address",
							"type": "address"
						}
					],
					"name": "check",
					"outputs": [
						{
							"internalType": "bool",
							"name": "",
							"type": "bool"
						}
					],
					"stateMutability": "view",
					"type": "function"
				},
				{
					"inputs": [
						{
							"internalType": "address",
							"name": "_user",
							"type": "address"
						}
					],
					"name": "register",
					"outputs": [],
					"stateMutability": "nonpayable",
					"type": "function"
				}
			],
			"devdoc": {
				"kind": "dev",
				"methods": {},
				"version": 1
			},
			"evm": {
				"assembly": "    /* \"contracts/Question/Problem-statement-4.sol\":498:777  contract SimpleAuth {\r... */\n  mstore(0x40, 0x80)\n  callvalue\n  dup1\n  iszero\n  tag_1\n  jumpi\n  0x00\n  dup1\n  revert\ntag_1:\n  pop\n  dataSize(sub_0)\n  dup1\n  dataOffset(sub_0)\n  0x00\n  codecopy\n  0x00\n  return\nstop\n\nsub_0: assembly {\n        /* \"contracts/Question/Problem-statement-4.sol\":498:777  contract SimpleAuth {\r... */\n      mstore(0x40, 0x80)\n      callvalue\n      dup1\n      iszero\n      tag_1\n      jumpi\n      0x00\n      dup1\n      revert\n    tag_1:\n      pop\n      jumpi(tag_2, lt(calldatasize, 0x04))\n      shr(0xe0, calldataload(0x00))\n      dup1\n      0x4420e486\n      eq\n      tag_3\n      jumpi\n      dup1\n      0xc23697a8\n      eq\n      tag_4\n      jumpi\n    tag_2:\n      0x00\n      dup1\n      revert\n        /* \"contracts/Question/Problem-statement-4.sol\":577:660  function register(address _user) public {\r... */\n    tag_3:\n      tag_5\n      0x04\n      dup1\n      calldatasize\n      sub\n      dup2\n      add\n      swap1\n      tag_6\n      swap2\n      swap1\n      tag_7\n      jump\t// in\n    tag_6:\n      tag_8\n      jump\t// in\n    tag_5:\n      stop\n        /* \"contracts/Question/Problem-statement-4.sol\":668:774  function check(address _address) public view returns (bool) {\r... */\n    tag_4:\n      tag_9\n      0x04\n      dup1\n      calldatasize\n      sub\n      dup2\n      add\n      swap1\n      tag_10\n      swap2\n      swap1\n      tag_7\n      jump\t// in\n    tag_10:\n      tag_11\n      jump\t// in\n    tag_9:\n      mload(0x40)\n      tag_12\n      swap2\n      swap1\n      tag_13\n      jump\t// in\n    tag_12:\n      mload(0x40)\n      dup1\n      swap2\n      sub\n      swap1\n      return\n        /* \"contracts/Question/Problem-statement-4.sol\":577:660  function register(address _user) public {\r... */\n    tag_8:\n        /* \"contracts/Question/Problem-statement-4.sol\":648:652  true */\n      0x01\n        /* \"contracts/Question/Problem-statement-4.sol\":628:638  registered */\n      0x00\n        /* \"contracts/Question/Problem-statement-4.sol\":628:645  registered[_user] */\n      dup1\n        /* \"contracts/Question/Problem-statement-4.sol\":639:644  _user */\n      dup4\n        /* \"contracts/Question/Problem-statement-4.sol\":628:645  registered[_user] */\n      0xffffffffffffffffffffffffffffffffffffffff\n      and\n      0xffffffffffffffffffffffffffffffffffffffff\n      and\n      dup2\n      mstore\n      0x20\n      add\n      swap1\n      dup2\n      mstore\n      0x20\n      add\n      0x00\n      keccak256\n      0x00\n        /* \"contracts/Question/Problem-statement-4.sol\":628:652  registered[_user] = true */\n      0x0100\n      exp\n      dup2\n      sload\n      dup2\n      0xff\n      mul\n      not\n      and\n      swap1\n      dup4\n      iszero\n      iszero\n      mul\n      or\n      swap1\n      sstore\n      pop\n        /* \"contracts/Question/Problem-statement-4.sol\":577:660  function register(address _user) public {\r... */\n      pop\n      jump\t// out\n        /* \"contracts/Question/Problem-statement-4.sol\":668:774  function check(address _address) public view returns (bool) {\r... */\n    tag_11:\n        /* \"contracts/Question/Problem-statement-4.sol\":722:726  bool */\n      0x00\n        /* \"contracts/Question/Problem-statement-4.sol\":746:756  registered */\n      dup1\n        /* \"contracts/Question/Problem-statement-4.sol\":746:766  registered[_address] */\n      0x00\n        /* \"contracts/Question/Problem-statement-4.sol\":757:765  _address */\n      dup4\n        /* \"contracts/Question/Problem-statement-4.sol\":746:766  registered[_address] */\n      0xffffffffffffffffffffffffffffffffffffffff\n      and\n      0xffffffffffffffffffffffffffffffffffffffff\n      and\n      dup2\n      mstore\n      0x20\n      add\n      swap1\n      dup2\n      mstore\n      0x20\n      add\n      0x00\n      keccak256\n      0x00\n      swap1\n      sload\n      swap1\n      0x0100\n      exp\n      swap1\n      div\n      0xff\n      and\n        /* \"contracts/Question/Problem-statement-4.sol\":739:766  return registered[_address] */\n      swap1\n      pop\n        /* \"contracts/Question/Problem-statement-4.sol\":668:774  function check(address _address) public view returns (bool) {\r... */\n      swap2\n      swap1\n      pop\n      jump\t// out\n        /* \"#utility.yul\":7:146   */\n    tag_17:\n      0x00\n        /* \"#utility.yul\":91:97   */\n      dup2\n        /* \"#utility.yul\":78:98   */\n      calldataload\n        /* \"#utility.yul\":69:98   */\n      swap1\n      pop\n        /* \"#utility.yul\":107:140   */\n      tag_19\n        /* \"#utility.yul\":134:139   */\n      dup2\n        /* \"#utility.yul\":107:140   */\n      tag_20\n      jump\t// in\n    tag_19:\n        /* \"#utility.yul\":59:146   */\n      swap3\n      swap2\n      pop\n      pop\n      jump\t// out\n        /* \"#utility.yul\":152:414   */\n    tag_7:\n      0x00\n        /* \"#utility.yul\":260:262   */\n      0x20\n        /* \"#utility.yul\":248:257   */\n      dup3\n        /* \"#utility.yul\":239:246   */\n      dup5\n        /* \"#utility.yul\":235:258   */\n      sub\n        /* \"#utility.yul\":231:263   */\n      slt\n        /* \"#utility.yul\":228:230   */\n      iszero\n      tag_22\n      jumpi\n        /* \"#utility.yul\":276:277   */\n      0x00\n        /* \"#utility.yul\":273:274   */\n      dup1\n        /* \"#utility.yul\":266:278   */\n      revert\n        /* \"#utility.yul\":228:230   */\n    tag_22:\n        /* \"#utility.yul\":319:320   */\n      0x00\n        /* \"#utility.yul\":344:397   */\n      tag_23\n        /* \"#utility.yul\":389:396   */\n      dup5\n        /* \"#utility.yul\":380:386   */\n      dup3\n        /* \"#utility.yul\":369:378   */\n      dup6\n        /* \"#utility.yul\":365:387   */\n      add\n        /* \"#utility.yul\":344:397   */\n      tag_17\n      jump\t// in\n    tag_23:\n        /* \"#utility.yul\":334:397   */\n      swap2\n      pop\n        /* \"#utility.yul\":290:407   */\n      pop\n        /* \"#utility.yul\":218:414   */\n      swap3\n      swap2\n      pop\n      pop\n      jump\t// out\n        /* \"#utility.yul\":420:529   */\n    tag_24:\n        /* \"#utility.yul\":501:522   */\n      tag_26\n        /* \"#utility.yul\":516:521   */\n      dup2\n        /* \"#utility.yul\":501:522   */\n      tag_27\n      jump\t// in\n    tag_26:\n        /* \"#utility.yul\":496:499   */\n      dup3\n        /* \"#utility.yul\":489:523   */\n      mstore\n        /* \"#utility.yul\":479:529   */\n      pop\n      pop\n      jump\t// out\n        /* \"#utility.yul\":535:745   */\n    tag_13:\n      0x00\n        /* \"#utility.yul\":660:662   */\n      0x20\n        /* \"#utility.yul\":649:658   */\n      dup3\n        /* \"#utility.yul\":645:663   */\n      add\n        /* \"#utility.yul\":637:663   */\n      swap1\n      pop\n        /* \"#utility.yul\":673:738   */\n      tag_29\n        /* \"#utility.yul\":735:736   */\n      0x00\n        /* \"#utility.yul\":724:733   */\n      dup4\n        /* \"#utility.yul\":720:737   */\n      add\n        /* \"#utility.yul\":711:717   */\n      dup5\n        /* \"#utility.yul\":673:738   */\n      tag_24\n      jump\t// in\n    tag_29:\n        /* \"#utility.yul\":627:745   */\n      swap3\n      swap2\n      pop\n      pop\n      jump\t// out\n        /* \"#utility.yul\":751:847   */\n    tag_30:\n      0x00\n        /* \"#utility.yul\":817:841   */\n      tag_32\n        /* \"#utility.yul\":835:840   */\n      dup3\n        /* \"#utility.yul\":817:841   */\n      tag_33\n      jump\t// in\n    tag_32:\n        /* \"#utility.yul\":806:841   */\n      swap1\n      pop\n        /* \"#utility.yul\":796:847   */\n      swap2\n      swap1\n      pop\n      jump\t// out\n        /* \"#utility.yul\":853:943   */\n    tag_27:\n      0x00\n        /* \"#utility.yul\":930:935   */\n      dup2\n        /* \"#utility.yul\":923:936   */\n      iszero\n        /* \"#utility.yul\":916:937   */\n      iszero\n        /* \"#utility.yul\":905:937   */\n      swap1\n      pop\n        /* \"#utility.yul\":895:943   */\n      swap2\n      swap1\n      pop\n      jump\t// out\n        /* \"#utility.yul\":949:1075   */\n    tag_33:\n      0x00\n        /* \"#utility.yul\":1026:1068   */\n      0xffffffffffffffffffffffffffffffffffffffff\n        /* \"#utility.yul\":1019:1024   */\n      dup3\n        /* \"#utility.yul\":1015:1069   */\n      and\n        /* \"#utility.yul\":1004:1069   */\n      swap1\n      pop\n        /* \"#utility.yul\":994:1075   */\n      swap2\n      swap1\n      pop\n      jump\t// out\n        /* \"#utility.yul\":1081:1203   */\n    tag_20:\n        /* \"#utility.yul\":1154:1178   */\n      tag_37\n        /* \"#utility.yul\":1172:1177   */\n      dup2\n        /* \"#utility.yul\":1154:1178   */\n      tag_30\n      jump\t// in\n    tag_37:\n        /* \"#utility.yul\":1147:1152   */\n      dup2\n        /* \"#utility.yul\":1144:1179   */\n      eq\n        /* \"#utility.yul\":1134:1136   */\n      tag_38\n      jumpi\n        /* \"#utility.yul\":1193:1194   */\n      0x00\n        /* \"#utility.yul\":1190:1191   */\n      dup1\n        /* \"#utility.yul\":1183:1195   */\n      revert\n        /* \"#utility.yul\":1134:1136   */\n    tag_38:\n        /* \"#utility.yul\":1124:1203   */\n      pop\n      jump\t// out\n\n    auxdata: 0xa2646970667358221220ffa0c08df8a091c7e91d972ea0d9021a472ed11a84be8d45e0eeb4219d5f38f464736f6c63430008000033\n}\n",
				"bytecode": {
					"linkReferences": {},
					"object": "608060405234801561001057600080fd5b50610229806100206000396000f3fe608060405234801561001057600080fd5b50600436106100365760003560e01c80634420e4861461003b578063c23697a814610057575b600080fd5b6100556004803603810190610050919061014b565b610087565b005b610071600480360381019061006c919061014b565b6100e1565b60405161007e9190610183565b60405180910390f35b60016000808373ffffffffffffffffffffffffffffffffffffffff1673ffffffffffffffffffffffffffffffffffffffff16815260200190815260200160002060006101000a81548160ff02191690831515021790555050565b60008060008373ffffffffffffffffffffffffffffffffffffffff1673ffffffffffffffffffffffffffffffffffffffff16815260200190815260200160002060009054906101000a900460ff169050919050565b600081359050610145816101dc565b92915050565b60006020828403121561015d57600080fd5b600061016b84828501610136565b91505092915050565b61017d816101b0565b82525050565b60006020820190506101986000830184610174565b92915050565b60006101a9826101bc565b9050919050565b60008115159050919050565b600073ffffffffffffffffffffffffffffffffffffffff82169050919050565b6101e58161019e565b81146101f057600080fd5b5056fea2646970667358221220ffa0c08df8a091c7e91d972ea0d9021a472ed11a84be8d45e0eeb4219d5f38f464736f6c63430008000033",
					"opcodes": "PUSH1 0x80 PUSH1 0x40 MSTORE CALLVALUE DUP1 ISZERO PUSH2 0x10 JUMPI PUSH1 0x0 DUP1 REVERT JUMPDEST POP PUSH2 0x229 DUP1 PUSH2 0x20 PUSH1 0x0 CODECOPY PUSH1 0x0 RETURN INVALID PUSH1 0x80 PUSH1 0x40 MSTORE CALLVALUE DUP1 ISZERO PUSH2 0x10 JUMPI PUSH1 0x0 DUP1 REVERT JUMPDEST POP PUSH1 0x4 CALLDATASIZE LT PUSH2 0x36 JUMPI PUSH1 0x0 CALLDATALOAD PUSH1 0xE0 SHR DUP1 PUSH4 0x4420E486 EQ PUSH2 0x3B JUMPI DUP1 PUSH4 0xC23697A8 EQ PUSH2 0x57 JUMPI JUMPDEST PUSH1 0x0 DUP1 REVERT JUMPDEST PUSH2 0x55 PUSH1 0x4 DUP1 CALLDATASIZE SUB DUP2 ADD SWAP1 PUSH2 0x50 SWAP2 SWAP1 PUSH2 0x14B JUMP JUMPDEST PUSH2 0x87 JUMP JUMPDEST STOP JUMPDEST PUSH2 0x71 PUSH1 0x4 DUP1 CALLDATASIZE SUB DUP2 ADD SWAP1 PUSH2 0x6C SWAP2 SWAP1 PUSH2 0x14B JUMP JUMPDEST PUSH2 0xE1 JUMP JUMPDEST PUSH1 0x40 MLOAD PUSH2 0x7E SWAP2 SWAP1 PUSH2 0x183 JUMP JUMPDEST PUSH1 0x40 MLOAD DUP1 SWAP2 SUB SWAP1 RETURN JUMPDEST PUSH1 0x1 PUSH1 0x0 DUP1 DUP4 PUSH20 0xFFFFFFFFFFFFFFFFFFFFFFFFFFFFFFFFFFFFFFFF AND PUSH20 0xFFFFFFFFFFFFFFFFFFFFFFFFFFFFFFFFFFFFFFFF AND DUP2 MSTORE PUSH1 0x20 ADD SWAP1 DUP2 MSTORE PUSH1 0x20 ADD PUSH1 0x0 KECCAK256 PUSH1 0x0 PUSH2 0x100 EXP DUP2 SLOAD DUP2 PUSH1 0xFF MUL NOT AND SWAP1 DUP4 ISZERO ISZERO MUL OR SWAP1 SSTORE POP POP JUMP JUMPDEST PUSH1 0x0 DUP1 PUSH1 0x0 DUP4 PUSH20 0xFFFFFFFFFFFFFFFFFFFFFFFFFFFFFFFFFFFFFFFF AND PUSH20 0xFFFFFFFFFFFFFFFFFFFFFFFFFFFFFFFFFFFFFFFF AND DUP2 MSTORE PUSH1 0x20 ADD SWAP1 DUP2 MSTORE PUSH1 0x20 ADD PUSH1 0x0 KECCAK256 PUSH1 0x0 SWAP1 SLOAD SWAP1 PUSH2 0x100 EXP SWAP1 DIV PUSH1 0xFF AND SWAP1 POP SWAP2 SWAP1 POP JUMP JUMPDEST PUSH1 0x0 DUP2 CALLDATALOAD SWAP1 POP PUSH2 0x145 DUP2 PUSH2 0x1DC JUMP JUMPDEST SWAP3 SWAP2 POP POP JUMP JUMPDEST PUSH1 0x0 PUSH1 0x20 DUP3 DUP5 SUB SLT ISZERO PUSH2 0x15D JUMPI PUSH1 0x0 DUP1 REVERT JUMPDEST PUSH1 0x0 PUSH2 0x16B DUP5 DUP3 DUP6 ADD PUSH2 0x136 JUMP JUMPDEST SWAP2 POP POP SWAP3 SWAP2 POP POP JUMP JUMPDEST PUSH2 0x17D DUP2 PUSH2 0x1B0 JUMP JUMPDEST DUP3 MSTORE POP POP JUMP JUMPDEST PUSH1 0x0 PUSH1 0x20 DUP3 ADD SWAP1 POP PUSH2 0x198 PUSH1 0x0 DUP4 ADD DUP5 PUSH2 0x174 JUMP JUMPDEST SWAP3 SWAP2 POP POP JUMP JUMPDEST PUSH1 0x0 PUSH2 0x1A9 DUP3 PUSH2 0x1BC JUMP JUMPDEST SWAP1 POP SWAP2 SWAP1 POP JUMP JUMPDEST PUSH1 0x0 DUP2 ISZERO ISZERO SWAP1 POP SWAP2 SWAP1 POP JUMP JUMPDEST PUSH1 0x0 PUSH20 0xFFFFFFFFFFFFFFFFFFFFFFFFFFFFFFFFFFFFFFFF DUP3 AND SWAP1 POP SWAP2 SWAP1 POP JUMP JUMPDEST PUSH2 0x1E5 DUP2 PUSH2 0x19E JUMP JUMPDEST DUP2 EQ PUSH2 0x1F0 JUMPI PUSH1 0x0 DUP1 REVERT JUMPDEST POP JUMP INVALID LOG2 PUSH5 0x6970667358 0x22 SLT KECCAK256 SELFDESTRUCT LOG0 0xC0 DUP14 0xF8 LOG0 SWAP2 0xC7 0xE9 SAR SWAP8 0x2E LOG0 0xD9 MUL BYTE SELFBALANCE 0x2E 0xD1 BYTE DUP5 0xBE DUP14 GASLIMIT 0xE0 0xEE 0xB4 0x21 SWAP14 0x5F CODESIZE DELEGATECALL PUSH5 0x736F6C6343 STOP ADDMOD STOP STOP CALLER "
				},
				"gasEstimates": {
					"creation": {
						"codeDepositCost": "110600",
						"executionCost": "159",
						"totalCost": "110759"
					},
					"external": {
						"check(address)": "1583",
						"register(address)": "21390"
					}
				},
				"methodIdentifiers": {
					"check(address)": "c23697a8",
					"register(address)": "4420e486"
				}
			},
			"storageLayout": {
				"storage": [
					{
						"astId": 5,
						"contract": "contracts/Question/Problem-statement-4.sol:SimpleAuth",
						"label": "registered",
						"offset": 0,
						"slot": "0",
						"type": "t_mapping(t_address,t_bool)"
					}
				],
				"types": {
					"t_address": {
						"encoding": "inplace",
						"label": "address",
						"numberOfBytes": "20"
					},
					"t_bool": {
						"encoding": "inplace",
						"label": "bool",
						"numberOfBytes": "1"
					},
					"t_mapping(t_address,t_bool)": {
						"encoding": "mapping",
						"key": "t_address",
						"label": "mapping(address => bool)",
						"numberOfBytes": "32",
						"value": "t_bool"
					}
				}
			},
			"userdoc": {
				"kind": "user",
				"methods": {},
				"version": 1
			}
		}
	}
}