{
	"contracts/Grading.sol": {
		"Student": {
			"abi": [
				{
					"inputs": [
						{
							"internalType": "uint256",
							"name": "_id",
							"type": "uint256"
						},
						{
							"internalType": "string",
							"name": "_grade",
							"type": "string"
						}
					],
					"name": "Update",
					"outputs": [],
					"stateMutability": "nonpayable",
					"type": "function"
				},
				{
					"inputs": [
						{
							"internalType": "uint256",
							"name": "_id",
							"type": "uint256"
						}
					],
					"name": "get",
					"outputs": [
						{
							"internalType": "string",
							"name": "",
							"type": "string"
						}
					],
					"stateMutability": "view",
					"type": "function"
				},
				{
					"inputs": [
						{
							"internalType": "uint256",
							"name": "_id",
							"type": "uint256"
						},
						{
							"internalType": "string",
							"name": "_g",
							"type": "string"
						}
					],
					"name": "setValue",
					"outputs": [],
					"stateMutability": "nonpayable",
					"type": "function"
				},
				{
					"inputs": [
						{
							"internalType": "uint256",
							"name": "",
							"type": "uint256"
						}
					],
					"name": "std",
					"outputs": [
						{
							"internalType": "uint256",
							"name": "id",
							"type": "uint256"
						},
						{
							"internalType": "string",
							"name": "grade",
							"type": "string"
						}
					],
					"stateMutability": "view",
					"type": "function"
				}
			],
			"devdoc": {
				"kind": "dev",
				"methods": {},
				"version": 1
			},
			"evm": {
				"assembly": "    /* \"contracts/Grading.sol\":478:945  contract Student{... */\n  mstore(0x40, 0x80)\n  callvalue\n  dup1\n  iszero\n  tag_1\n  jumpi\n  0x00\n  dup1\n  revert\ntag_1:\n  pop\n  dataSize(sub_0)\n  dup1\n  dataOffset(sub_0)\n  0x00\n  codecopy\n  0x00\n  return\nstop\n\nsub_0: assembly {\n        /* \"contracts/Grading.sol\":478:945  contract Student{... */\n      mstore(0x40, 0x80)\n      callvalue\n      dup1\n      iszero\n      tag_1\n      jumpi\n      0x00\n      dup1\n      revert\n    tag_1:\n      pop\n      jumpi(tag_2, lt(calldatasize, 0x04))\n      shr(0xe0, calldataload(0x00))\n      dup1\n      0x54023f0b\n      eq\n      tag_3\n      jumpi\n      dup1\n      0x7e080d7e\n      eq\n      tag_4\n      jumpi\n      dup1\n      0x9507d39a\n      eq\n      tag_5\n      jumpi\n      dup1\n      0x9d1939db\n      eq\n      tag_6\n      jumpi\n    tag_2:\n      0x00\n      dup1\n      revert\n        /* \"contracts/Grading.sol\":737:837  function Update(uint256 _id,string memory _grade)public{... */\n    tag_3:\n      tag_7\n      0x04\n      dup1\n      calldatasize\n      sub\n      dup2\n      add\n      swap1\n      tag_8\n      swap2\n      swap1\n      tag_9\n      jump\t// in\n    tag_8:\n      tag_10\n      jump\t// in\n    tag_7:\n      stop\n        /* \"contracts/Grading.sol\":563:598  mapping (uint256=>Grade) public std */\n    tag_4:\n      tag_11\n      0x04\n      dup1\n      calldatasize\n      sub\n      dup2\n      add\n      swap1\n      tag_12\n      swap2\n      swap1\n      tag_13\n      jump\t// in\n    tag_12:\n      tag_14\n      jump\t// in\n    tag_11:\n      mload(0x40)\n      tag_15\n      swap3\n      swap2\n      swap1\n      tag_16\n      jump\t// in\n    tag_15:\n      mload(0x40)\n      dup1\n      swap2\n      sub\n      swap1\n      return\n        /* \"contracts/Grading.sol\":843:942  function get(uint256 _id)public view returns(string memory){... */\n    tag_5:\n      tag_17\n      0x04\n      dup1\n      calldatasize\n      sub\n      dup2\n      add\n      swap1\n      tag_18\n      swap2\n      swap1\n      tag_13\n      jump\t// in\n    tag_18:\n      tag_19\n      jump\t// in\n    tag_17:\n      mload(0x40)\n      tag_20\n      swap2\n      swap1\n      tag_21\n      jump\t// in\n    tag_20:\n      mload(0x40)\n      dup1\n      swap2\n      sub\n      swap1\n      return\n        /* \"contracts/Grading.sol\":605:731  function setValue(uint256 _id,string memory _g)public {... */\n    tag_6:\n      tag_22\n      0x04\n      dup1\n      calldatasize\n      sub\n      dup2\n      add\n      swap1\n      tag_23\n      swap2\n      swap1\n      tag_9\n      jump\t// in\n    tag_23:\n      tag_24\n      jump\t// in\n    tag_22:\n      stop\n        /* \"contracts/Grading.sol\":737:837  function Update(uint256 _id,string memory _grade)public{... */\n    tag_10:\n        /* \"contracts/Grading.sol\":812:829  Grade(_id,_grade) */\n      mload(0x40)\n      dup1\n      0x40\n      add\n      0x40\n      mstore\n      dup1\n        /* \"contracts/Grading.sol\":818:821  _id */\n      dup4\n        /* \"contracts/Grading.sol\":812:829  Grade(_id,_grade) */\n      dup2\n      mstore\n      0x20\n      add\n        /* \"contracts/Grading.sol\":822:828  _grade */\n      dup3\n        /* \"contracts/Grading.sol\":812:829  Grade(_id,_grade) */\n      dup2\n      mstore\n      pop\n        /* \"contracts/Grading.sol\":803:806  std */\n      0x00\n        /* \"contracts/Grading.sol\":803:811  std[_id] */\n      dup1\n        /* \"contracts/Grading.sol\":807:810  _id */\n      dup5\n        /* \"contracts/Grading.sol\":803:811  std[_id] */\n      dup2\n      mstore\n      0x20\n      add\n      swap1\n      dup2\n      mstore\n      0x20\n      add\n      0x00\n      keccak256\n        /* \"contracts/Grading.sol\":803:829  std[_id]=Grade(_id,_grade) */\n      0x00\n      dup3\n      add\n      mload\n      dup2\n      0x00\n      add\n      sstore\n      0x20\n      dup3\n      add\n      mload\n      dup2\n      0x01\n      add\n      swap1\n      dup2\n      tag_26\n      swap2\n      swap1\n      tag_27\n      jump\t// in\n    tag_26:\n      pop\n      swap1\n      pop\n      pop\n        /* \"contracts/Grading.sol\":737:837  function Update(uint256 _id,string memory _grade)public{... */\n      pop\n      pop\n      jump\t// out\n        /* \"contracts/Grading.sol\":563:598  mapping (uint256=>Grade) public std */\n    tag_14:\n      mstore(0x20, 0x00)\n      dup1\n      0x00\n      mstore\n      keccak256(0x00, 0x40)\n      0x00\n      swap2\n      pop\n      swap1\n      pop\n      dup1\n      0x00\n      add\n      sload\n      swap1\n      dup1\n      0x01\n      add\n      dup1\n      sload\n      tag_28\n      swap1\n      tag_29\n      jump\t// in\n    tag_28:\n      dup1\n      0x1f\n      add\n      0x20\n      dup1\n      swap2\n      div\n      mul\n      0x20\n      add\n      mload(0x40)\n      swap1\n      dup2\n      add\n      0x40\n      mstore\n      dup1\n      swap3\n      swap2\n      swap1\n      dup2\n      dup2\n      mstore\n      0x20\n      add\n      dup3\n      dup1\n      sload\n      tag_30\n      swap1\n      tag_29\n      jump\t// in\n    tag_30:\n      dup1\n      iszero\n      tag_31\n      jumpi\n      dup1\n      0x1f\n      lt\n      tag_32\n      jumpi\n      0x0100\n      dup1\n      dup4\n      sload\n      div\n      mul\n      dup4\n      mstore\n      swap2\n      0x20\n      add\n      swap2\n      jump(tag_31)\n    tag_32:\n      dup3\n      add\n      swap2\n      swap1\n      0x00\n      mstore\n      keccak256(0x00, 0x20)\n      swap1\n    tag_33:\n      dup2\n      sload\n      dup2\n      mstore\n      swap1\n      0x01\n      add\n      swap1\n      0x20\n      add\n      dup1\n      dup4\n      gt\n      tag_33\n      jumpi\n      dup3\n      swap1\n      sub\n      0x1f\n      and\n      dup3\n      add\n      swap2\n    tag_31:\n      pop\n      pop\n      pop\n      pop\n      pop\n      swap1\n      pop\n      dup3\n      jump\t// out\n        /* \"contracts/Grading.sol\":843:942  function get(uint256 _id)public view returns(string memory){... */\n    tag_19:\n        /* \"contracts/Grading.sol\":888:901  string memory */\n      0x60\n        /* \"contracts/Grading.sol\":920:923  std */\n      0x00\n        /* \"contracts/Grading.sol\":920:928  std[_id] */\n      dup1\n        /* \"contracts/Grading.sol\":924:927  _id */\n      dup4\n        /* \"contracts/Grading.sol\":920:928  std[_id] */\n      dup2\n      mstore\n      0x20\n      add\n      swap1\n      dup2\n      mstore\n      0x20\n      add\n      0x00\n      keccak256\n        /* \"contracts/Grading.sol\":920:934  std[_id].grade */\n      0x01\n      add\n        /* \"contracts/Grading.sol\":913:934  return std[_id].grade */\n      dup1\n      sload\n      tag_35\n      swap1\n      tag_29\n      jump\t// in\n    tag_35:\n      dup1\n      0x1f\n      add\n      0x20\n      dup1\n      swap2\n      div\n      mul\n      0x20\n      add\n      mload(0x40)\n      swap1\n      dup2\n      add\n      0x40\n      mstore\n      dup1\n      swap3\n      swap2\n      swap1\n      dup2\n      dup2\n      mstore\n      0x20\n      add\n      dup3\n      dup1\n      sload\n      tag_36\n      swap1\n      tag_29\n      jump\t// in\n    tag_36:\n      dup1\n      iszero\n      tag_37\n      jumpi\n      dup1\n      0x1f\n      lt\n      tag_38\n      jumpi\n      0x0100\n      dup1\n      dup4\n      sload\n      div\n      mul\n      dup4\n      mstore\n      swap2\n      0x20\n      add\n      swap2\n      jump(tag_37)\n    tag_38:\n      dup3\n      add\n      swap2\n      swap1\n      0x00\n      mstore\n      keccak256(0x00, 0x20)\n      swap1\n    tag_39:\n      dup2\n      sload\n      dup2\n      mstore\n      swap1\n      0x01\n      add\n      swap1\n      0x20\n      add\n      dup1\n      dup4\n      gt\n      tag_39\n      jumpi\n      dup3\n      swap1\n      sub\n      0x1f\n      and\n      dup3\n      add\n      swap2\n    tag_37:\n      pop\n      pop\n      pop\n      pop\n      pop\n      swap1\n      pop\n        /* \"contracts/Grading.sol\":843:942  function get(uint256 _id)public view returns(string memory){... */\n      swap2\n      swap1\n      pop\n      jump\t// out\n        /* \"contracts/Grading.sol\":605:731  function setValue(uint256 _id,string memory _g)public {... */\n    tag_24:\n        /* \"contracts/Grading.sol\":669:686  Grade  memory obj */\n      0x00\n        /* \"contracts/Grading.sol\":687:700  Grade(_id,_g) */\n      mload(0x40)\n      dup1\n      0x40\n      add\n      0x40\n      mstore\n      dup1\n        /* \"contracts/Grading.sol\":693:696  _id */\n      dup5\n        /* \"contracts/Grading.sol\":687:700  Grade(_id,_g) */\n      dup2\n      mstore\n      0x20\n      add\n        /* \"contracts/Grading.sol\":697:699  _g */\n      dup4\n        /* \"contracts/Grading.sol\":687:700  Grade(_id,_g) */\n      dup2\n      mstore\n      pop\n        /* \"contracts/Grading.sol\":669:700  Grade  memory obj=Grade(_id,_g) */\n      swap1\n      pop\n        /* \"contracts/Grading.sol\":720:723  obj */\n      dup1\n        /* \"contracts/Grading.sol\":711:714  std */\n      0x00\n        /* \"contracts/Grading.sol\":711:719  std[_id] */\n      dup1\n        /* \"contracts/Grading.sol\":715:718  _id */\n      dup6\n        /* \"contracts/Grading.sol\":711:719  std[_id] */\n      dup2\n      mstore\n      0x20\n      add\n      swap1\n      dup2\n      mstore\n      0x20\n      add\n      0x00\n      keccak256\n        /* \"contracts/Grading.sol\":711:723  std[_id]=obj */\n      0x00\n      dup3\n      add\n      mload\n      dup2\n      0x00\n      add\n      sstore\n      0x20\n      dup3\n      add\n      mload\n      dup2\n      0x01\n      add\n      swap1\n      dup2\n      tag_41\n      swap2\n      swap1\n      tag_27\n      jump\t// in\n    tag_41:\n      pop\n      swap1\n      pop\n      pop\n        /* \"contracts/Grading.sol\":659:731  {... */\n      pop\n        /* \"contracts/Grading.sol\":605:731  function setValue(uint256 _id,string memory _g)public {... */\n      pop\n      pop\n      jump\t// out\n        /* \"#utility.yul\":7:82   */\n    tag_42:\n        /* \"#utility.yul\":40:46   */\n      0x00\n        /* \"#utility.yul\":73:75   */\n      0x40\n        /* \"#utility.yul\":67:76   */\n      mload\n        /* \"#utility.yul\":57:76   */\n      swap1\n      pop\n        /* \"#utility.yul\":7:82   */\n      swap1\n      jump\t// out\n        /* \"#utility.yul\":88:205   */\n    tag_43:\n        /* \"#utility.yul\":197:198   */\n      0x00\n        /* \"#utility.yul\":194:195   */\n      dup1\n        /* \"#utility.yul\":187:199   */\n      revert\n        /* \"#utility.yul\":211:328   */\n    tag_44:\n        /* \"#utility.yul\":320:321   */\n      0x00\n        /* \"#utility.yul\":317:318   */\n      dup1\n        /* \"#utility.yul\":310:322   */\n      revert\n        /* \"#utility.yul\":334:411   */\n    tag_45:\n        /* \"#utility.yul\":371:378   */\n      0x00\n        /* \"#utility.yul\":400:405   */\n      dup2\n        /* \"#utility.yul\":389:405   */\n      swap1\n      pop\n        /* \"#utility.yul\":334:411   */\n      swap2\n      swap1\n      pop\n      jump\t// out\n        /* \"#utility.yul\":417:539   */\n    tag_46:\n        /* \"#utility.yul\":490:514   */\n      tag_85\n        /* \"#utility.yul\":508:513   */\n      dup2\n        /* \"#utility.yul\":490:514   */\n      tag_45\n      jump\t// in\n    tag_85:\n        /* \"#utility.yul\":483:488   */\n      dup2\n        /* \"#utility.yul\":480:515   */\n      eq\n        /* \"#utility.yul\":470:533   */\n      tag_86\n      jumpi\n        /* \"#utility.yul\":529:530   */\n      0x00\n        /* \"#utility.yul\":526:527   */\n      dup1\n        /* \"#utility.yul\":519:531   */\n      revert\n        /* \"#utility.yul\":470:533   */\n    tag_86:\n        /* \"#utility.yul\":417:539   */\n      pop\n      jump\t// out\n        /* \"#utility.yul\":545:684   */\n    tag_47:\n        /* \"#utility.yul\":591:596   */\n      0x00\n        /* \"#utility.yul\":629:635   */\n      dup2\n        /* \"#utility.yul\":616:636   */\n      calldataload\n        /* \"#utility.yul\":607:636   */\n      swap1\n      pop\n        /* \"#utility.yul\":645:678   */\n      tag_88\n        /* \"#utility.yul\":672:677   */\n      dup2\n        /* \"#utility.yul\":645:678   */\n      tag_46\n      jump\t// in\n    tag_88:\n        /* \"#utility.yul\":545:684   */\n      swap3\n      swap2\n      pop\n      pop\n      jump\t// out\n        /* \"#utility.yul\":690:807   */\n    tag_48:\n        /* \"#utility.yul\":799:800   */\n      0x00\n        /* \"#utility.yul\":796:797   */\n      dup1\n        /* \"#utility.yul\":789:801   */\n      revert\n        /* \"#utility.yul\":813:930   */\n    tag_49:\n        /* \"#utility.yul\":922:923   */\n      0x00\n        /* \"#utility.yul\":919:920   */\n      dup1\n        /* \"#utility.yul\":912:924   */\n      revert\n        /* \"#utility.yul\":936:1038   */\n    tag_50:\n        /* \"#utility.yul\":977:983   */\n      0x00\n        /* \"#utility.yul\":1028:1030   */\n      0x1f\n        /* \"#utility.yul\":1024:1031   */\n      not\n        /* \"#utility.yul\":1019:1021   */\n      0x1f\n        /* \"#utility.yul\":1012:1017   */\n      dup4\n        /* \"#utility.yul\":1008:1022   */\n      add\n        /* \"#utility.yul\":1004:1032   */\n      and\n        /* \"#utility.yul\":994:1032   */\n      swap1\n      pop\n        /* \"#utility.yul\":936:1038   */\n      swap2\n      swap1\n      pop\n      jump\t// out\n        /* \"#utility.yul\":1044:1224   */\n    tag_51:\n        /* \"#utility.yul\":1092:1169   */\n      0x4e487b7100000000000000000000000000000000000000000000000000000000\n        /* \"#utility.yul\":1089:1090   */\n      0x00\n        /* \"#utility.yul\":1082:1170   */\n      mstore\n        /* \"#utility.yul\":1189:1193   */\n      0x41\n        /* \"#utility.yul\":1186:1187   */\n      0x04\n        /* \"#utility.yul\":1179:1194   */\n      mstore\n        /* \"#utility.yul\":1213:1217   */\n      0x24\n        /* \"#utility.yul\":1210:1211   */\n      0x00\n        /* \"#utility.yul\":1203:1218   */\n      revert\n        /* \"#utility.yul\":1230:1511   */\n    tag_52:\n        /* \"#utility.yul\":1313:1340   */\n      tag_94\n        /* \"#utility.yul\":1335:1339   */\n      dup3\n        /* \"#utility.yul\":1313:1340   */\n      tag_50\n      jump\t// in\n    tag_94:\n        /* \"#utility.yul\":1305:1311   */\n      dup2\n        /* \"#utility.yul\":1301:1341   */\n      add\n        /* \"#utility.yul\":1443:1449   */\n      dup2\n        /* \"#utility.yul\":1431:1441   */\n      dup2\n        /* \"#utility.yul\":1428:1450   */\n      lt\n        /* \"#utility.yul\":1407:1425   */\n      0xffffffffffffffff\n        /* \"#utility.yul\":1395:1405   */\n      dup3\n        /* \"#utility.yul\":1392:1426   */\n      gt\n        /* \"#utility.yul\":1389:1451   */\n      or\n        /* \"#utility.yul\":1386:1474   */\n      iszero\n      tag_95\n      jumpi\n        /* \"#utility.yul\":1454:1472   */\n      tag_96\n      tag_51\n      jump\t// in\n    tag_96:\n        /* \"#utility.yul\":1386:1474   */\n    tag_95:\n        /* \"#utility.yul\":1494:1504   */\n      dup1\n        /* \"#utility.yul\":1490:1492   */\n      0x40\n        /* \"#utility.yul\":1483:1505   */\n      mstore\n        /* \"#utility.yul\":1273:1511   */\n      pop\n        /* \"#utility.yul\":1230:1511   */\n      pop\n      pop\n      jump\t// out\n        /* \"#utility.yul\":1517:1646   */\n    tag_53:\n        /* \"#utility.yul\":1551:1557   */\n      0x00\n        /* \"#utility.yul\":1578:1598   */\n      tag_98\n      tag_42\n      jump\t// in\n    tag_98:\n        /* \"#utility.yul\":1568:1598   */\n      swap1\n      pop\n        /* \"#utility.yul\":1607:1640   */\n      tag_99\n        /* \"#utility.yul\":1635:1639   */\n      dup3\n        /* \"#utility.yul\":1627:1633   */\n      dup3\n        /* \"#utility.yul\":1607:1640   */\n      tag_52\n      jump\t// in\n    tag_99:\n        /* \"#utility.yul\":1517:1646   */\n      swap2\n      swap1\n      pop\n      jump\t// out\n        /* \"#utility.yul\":1652:1960   */\n    tag_54:\n        /* \"#utility.yul\":1714:1718   */\n      0x00\n        /* \"#utility.yul\":1804:1822   */\n      0xffffffffffffffff\n        /* \"#utility.yul\":1796:1802   */\n      dup3\n        /* \"#utility.yul\":1793:1823   */\n      gt\n        /* \"#utility.yul\":1790:1846   */\n      iszero\n      tag_101\n      jumpi\n        /* \"#utility.yul\":1826:1844   */\n      tag_102\n      tag_51\n      jump\t// in\n    tag_102:\n        /* \"#utility.yul\":1790:1846   */\n    tag_101:\n        /* \"#utility.yul\":1864:1893   */\n      tag_103\n        /* \"#utility.yul\":1886:1892   */\n      dup3\n        /* \"#utility.yul\":1864:1893   */\n      tag_50\n      jump\t// in\n    tag_103:\n        /* \"#utility.yul\":1856:1893   */\n      swap1\n      pop\n        /* \"#utility.yul\":1948:1952   */\n      0x20\n        /* \"#utility.yul\":1942:1946   */\n      dup2\n        /* \"#utility.yul\":1938:1953   */\n      add\n        /* \"#utility.yul\":1930:1953   */\n      swap1\n      pop\n        /* \"#utility.yul\":1652:1960   */\n      swap2\n      swap1\n      pop\n      jump\t// out\n        /* \"#utility.yul\":1966:2112   */\n    tag_55:\n        /* \"#utility.yul\":2063:2069   */\n      dup3\n        /* \"#utility.yul\":2058:2061   */\n      dup2\n        /* \"#utility.yul\":2053:2056   */\n      dup4\n        /* \"#utility.yul\":2040:2070   */\n      calldatacopy\n        /* \"#utility.yul\":2104:2105   */\n      0x00\n        /* \"#utility.yul\":2095:2101   */\n      dup4\n        /* \"#utility.yul\":2090:2093   */\n      dup4\n        /* \"#utility.yul\":2086:2102   */\n      add\n        /* \"#utility.yul\":2079:2106   */\n      mstore\n        /* \"#utility.yul\":1966:2112   */\n      pop\n      pop\n      pop\n      jump\t// out\n        /* \"#utility.yul\":2118:2543   */\n    tag_56:\n        /* \"#utility.yul\":2196:2201   */\n      0x00\n        /* \"#utility.yul\":2221:2287   */\n      tag_106\n        /* \"#utility.yul\":2237:2286   */\n      tag_107\n        /* \"#utility.yul\":2279:2285   */\n      dup5\n        /* \"#utility.yul\":2237:2286   */\n      tag_54\n      jump\t// in\n    tag_107:\n        /* \"#utility.yul\":2221:2287   */\n      tag_53\n      jump\t// in\n    tag_106:\n        /* \"#utility.yul\":2212:2287   */\n      swap1\n      pop\n        /* \"#utility.yul\":2310:2316   */\n      dup3\n        /* \"#utility.yul\":2303:2308   */\n      dup2\n        /* \"#utility.yul\":2296:2317   */\n      mstore\n        /* \"#utility.yul\":2348:2352   */\n      0x20\n        /* \"#utility.yul\":2341:2346   */\n      dup2\n        /* \"#utility.yul\":2337:2353   */\n      add\n        /* \"#utility.yul\":2386:2389   */\n      dup5\n        /* \"#utility.yul\":2377:2383   */\n      dup5\n        /* \"#utility.yul\":2372:2375   */\n      dup5\n        /* \"#utility.yul\":2368:2384   */\n      add\n        /* \"#utility.yul\":2365:2390   */\n      gt\n        /* \"#utility.yul\":2362:2474   */\n      iszero\n      tag_108\n      jumpi\n        /* \"#utility.yul\":2393:2472   */\n      tag_109\n      tag_49\n      jump\t// in\n    tag_109:\n        /* \"#utility.yul\":2362:2474   */\n    tag_108:\n        /* \"#utility.yul\":2483:2537   */\n      tag_110\n        /* \"#utility.yul\":2530:2536   */\n      dup5\n        /* \"#utility.yul\":2525:2528   */\n      dup3\n        /* \"#utility.yul\":2520:2523   */\n      dup6\n        /* \"#utility.yul\":2483:2537   */\n      tag_55\n      jump\t// in\n    tag_110:\n        /* \"#utility.yul\":2202:2543   */\n      pop\n        /* \"#utility.yul\":2118:2543   */\n      swap4\n      swap3\n      pop\n      pop\n      pop\n      jump\t// out\n        /* \"#utility.yul\":2563:2903   */\n    tag_57:\n        /* \"#utility.yul\":2619:2624   */\n      0x00\n        /* \"#utility.yul\":2668:2671   */\n      dup3\n        /* \"#utility.yul\":2661:2665   */\n      0x1f\n        /* \"#utility.yul\":2653:2659   */\n      dup4\n        /* \"#utility.yul\":2649:2666   */\n      add\n        /* \"#utility.yul\":2645:2672   */\n      slt\n        /* \"#utility.yul\":2635:2757   */\n      tag_112\n      jumpi\n        /* \"#utility.yul\":2676:2755   */\n      tag_113\n      tag_48\n      jump\t// in\n    tag_113:\n        /* \"#utility.yul\":2635:2757   */\n    tag_112:\n        /* \"#utility.yul\":2793:2799   */\n      dup2\n        /* \"#utility.yul\":2780:2800   */\n      calldataload\n        /* \"#utility.yul\":2818:2897   */\n      tag_114\n        /* \"#utility.yul\":2893:2896   */\n      dup5\n        /* \"#utility.yul\":2885:2891   */\n      dup3\n        /* \"#utility.yul\":2878:2882   */\n      0x20\n        /* \"#utility.yul\":2870:2876   */\n      dup7\n        /* \"#utility.yul\":2866:2883   */\n      add\n        /* \"#utility.yul\":2818:2897   */\n      tag_56\n      jump\t// in\n    tag_114:\n        /* \"#utility.yul\":2809:2897   */\n      swap2\n      pop\n        /* \"#utility.yul\":2625:2903   */\n      pop\n        /* \"#utility.yul\":2563:2903   */\n      swap3\n      swap2\n      pop\n      pop\n      jump\t// out\n        /* \"#utility.yul\":2909:3563   */\n    tag_9:\n        /* \"#utility.yul\":2987:2993   */\n      0x00\n        /* \"#utility.yul\":2995:3001   */\n      dup1\n        /* \"#utility.yul\":3044:3046   */\n      0x40\n        /* \"#utility.yul\":3032:3041   */\n      dup4\n        /* \"#utility.yul\":3023:3030   */\n      dup6\n        /* \"#utility.yul\":3019:3042   */\n      sub\n        /* \"#utility.yul\":3015:3047   */\n      slt\n        /* \"#utility.yul\":3012:3131   */\n      iszero\n      tag_116\n      jumpi\n        /* \"#utility.yul\":3050:3129   */\n      tag_117\n      tag_43\n      jump\t// in\n    tag_117:\n        /* \"#utility.yul\":3012:3131   */\n    tag_116:\n        /* \"#utility.yul\":3170:3171   */\n      0x00\n        /* \"#utility.yul\":3195:3248   */\n      tag_118\n        /* \"#utility.yul\":3240:3247   */\n      dup6\n        /* \"#utility.yul\":3231:3237   */\n      dup3\n        /* \"#utility.yul\":3220:3229   */\n      dup7\n        /* \"#utility.yul\":3216:3238   */\n      add\n        /* \"#utility.yul\":3195:3248   */\n      tag_47\n      jump\t// in\n    tag_118:\n        /* \"#utility.yul\":3185:3248   */\n      swap3\n      pop\n        /* \"#utility.yul\":3141:3258   */\n      pop\n        /* \"#utility.yul\":3325:3327   */\n      0x20\n        /* \"#utility.yul\":3314:3323   */\n      dup4\n        /* \"#utility.yul\":3310:3328   */\n      add\n        /* \"#utility.yul\":3297:3329   */\n      calldataload\n        /* \"#utility.yul\":3356:3374   */\n      0xffffffffffffffff\n        /* \"#utility.yul\":3348:3354   */\n      dup2\n        /* \"#utility.yul\":3345:3375   */\n      gt\n        /* \"#utility.yul\":3342:3459   */\n      iszero\n      tag_119\n      jumpi\n        /* \"#utility.yul\":3378:3457   */\n      tag_120\n      tag_44\n      jump\t// in\n    tag_120:\n        /* \"#utility.yul\":3342:3459   */\n    tag_119:\n        /* \"#utility.yul\":3483:3546   */\n      tag_121\n        /* \"#utility.yul\":3538:3545   */\n      dup6\n        /* \"#utility.yul\":3529:3535   */\n      dup3\n        /* \"#utility.yul\":3518:3527   */\n      dup7\n        /* \"#utility.yul\":3514:3536   */\n      add\n        /* \"#utility.yul\":3483:3546   */\n      tag_57\n      jump\t// in\n    tag_121:\n        /* \"#utility.yul\":3473:3546   */\n      swap2\n      pop\n        /* \"#utility.yul\":3268:3556   */\n      pop\n        /* \"#utility.yul\":2909:3563   */\n      swap3\n      pop\n      swap3\n      swap1\n      pop\n      jump\t// out\n        /* \"#utility.yul\":3569:3898   */\n    tag_13:\n        /* \"#utility.yul\":3628:3634   */\n      0x00\n        /* \"#utility.yul\":3677:3679   */\n      0x20\n        /* \"#utility.yul\":3665:3674   */\n      dup3\n        /* \"#utility.yul\":3656:3663   */\n      dup5\n        /* \"#utility.yul\":3652:3675   */\n      sub\n        /* \"#utility.yul\":3648:3680   */\n      slt\n        /* \"#utility.yul\":3645:3764   */\n      iszero\n      tag_123\n      jumpi\n        /* \"#utility.yul\":3683:3762   */\n      tag_124\n      tag_43\n      jump\t// in\n    tag_124:\n        /* \"#utility.yul\":3645:3764   */\n    tag_123:\n        /* \"#utility.yul\":3803:3804   */\n      0x00\n        /* \"#utility.yul\":3828:3881   */\n      tag_125\n        /* \"#utility.yul\":3873:3880   */\n      dup5\n        /* \"#utility.yul\":3864:3870   */\n      dup3\n        /* \"#utility.yul\":3853:3862   */\n      dup6\n        /* \"#utility.yul\":3849:3871   */\n      add\n        /* \"#utility.yul\":3828:3881   */\n      tag_47\n      jump\t// in\n    tag_125:\n        /* \"#utility.yul\":3818:3881   */\n      swap2\n      pop\n        /* \"#utility.yul\":3774:3891   */\n      pop\n        /* \"#utility.yul\":3569:3898   */\n      swap3\n      swap2\n      pop\n      pop\n      jump\t// out\n        /* \"#utility.yul\":3904:4022   */\n    tag_58:\n        /* \"#utility.yul\":3991:4015   */\n      tag_127\n        /* \"#utility.yul\":4009:4014   */\n      dup2\n        /* \"#utility.yul\":3991:4015   */\n      tag_45\n      jump\t// in\n    tag_127:\n        /* \"#utility.yul\":3986:3989   */\n      dup3\n        /* \"#utility.yul\":3979:4016   */\n      mstore\n        /* \"#utility.yul\":3904:4022   */\n      pop\n      pop\n      jump\t// out\n        /* \"#utility.yul\":4028:4127   */\n    tag_59:\n        /* \"#utility.yul\":4080:4086   */\n      0x00\n        /* \"#utility.yul\":4114:4119   */\n      dup2\n        /* \"#utility.yul\":4108:4120   */\n      mload\n        /* \"#utility.yul\":4098:4120   */\n      swap1\n      pop\n        /* \"#utility.yul\":4028:4127   */\n      swap2\n      swap1\n      pop\n      jump\t// out\n        /* \"#utility.yul\":4133:4302   */\n    tag_60:\n        /* \"#utility.yul\":4217:4228   */\n      0x00\n        /* \"#utility.yul\":4251:4257   */\n      dup3\n        /* \"#utility.yul\":4246:4249   */\n      dup3\n        /* \"#utility.yul\":4239:4258   */\n      mstore\n        /* \"#utility.yul\":4291:4295   */\n      0x20\n        /* \"#utility.yul\":4286:4289   */\n      dup3\n        /* \"#utility.yul\":4282:4296   */\n      add\n        /* \"#utility.yul\":4267:4296   */\n      swap1\n      pop\n        /* \"#utility.yul\":4133:4302   */\n      swap3\n      swap2\n      pop\n      pop\n      jump\t// out\n        /* \"#utility.yul\":4308:4554   */\n    tag_61:\n        /* \"#utility.yul\":4389:4390   */\n      0x00\n        /* \"#utility.yul\":4399:4512   */\n    tag_131:\n        /* \"#utility.yul\":4413:4419   */\n      dup4\n        /* \"#utility.yul\":4410:4411   */\n      dup2\n        /* \"#utility.yul\":4407:4420   */\n      lt\n        /* \"#utility.yul\":4399:4512   */\n      iszero\n      tag_133\n      jumpi\n        /* \"#utility.yul\":4498:4499   */\n      dup1\n        /* \"#utility.yul\":4493:4496   */\n      dup3\n        /* \"#utility.yul\":4489:4500   */\n      add\n        /* \"#utility.yul\":4483:4501   */\n      mload\n        /* \"#utility.yul\":4479:4480   */\n      dup2\n        /* \"#utility.yul\":4474:4477   */\n      dup5\n        /* \"#utility.yul\":4470:4481   */\n      add\n        /* \"#utility.yul\":4463:4502   */\n      mstore\n        /* \"#utility.yul\":4435:4437   */\n      0x20\n        /* \"#utility.yul\":4432:4433   */\n      dup2\n        /* \"#utility.yul\":4428:4438   */\n      add\n        /* \"#utility.yul\":4423:4438   */\n      swap1\n      pop\n        /* \"#utility.yul\":4399:4512   */\n      jump(tag_131)\n    tag_133:\n        /* \"#utility.yul\":4546:4547   */\n      0x00\n        /* \"#utility.yul\":4537:4543   */\n      dup5\n        /* \"#utility.yul\":4532:4535   */\n      dup5\n        /* \"#utility.yul\":4528:4544   */\n      add\n        /* \"#utility.yul\":4521:4548   */\n      mstore\n        /* \"#utility.yul\":4370:4554   */\n      pop\n        /* \"#utility.yul\":4308:4554   */\n      pop\n      pop\n      pop\n      jump\t// out\n        /* \"#utility.yul\":4560:4937   */\n    tag_62:\n        /* \"#utility.yul\":4648:4651   */\n      0x00\n        /* \"#utility.yul\":4676:4715   */\n      tag_135\n        /* \"#utility.yul\":4709:4714   */\n      dup3\n        /* \"#utility.yul\":4676:4715   */\n      tag_59\n      jump\t// in\n    tag_135:\n        /* \"#utility.yul\":4731:4802   */\n      tag_136\n        /* \"#utility.yul\":4795:4801   */\n      dup2\n        /* \"#utility.yul\":4790:4793   */\n      dup6\n        /* \"#utility.yul\":4731:4802   */\n      tag_60\n      jump\t// in\n    tag_136:\n        /* \"#utility.yul\":4724:4802   */\n      swap4\n      pop\n        /* \"#utility.yul\":4811:4876   */\n      tag_137\n        /* \"#utility.yul\":4869:4875   */\n      dup2\n        /* \"#utility.yul\":4864:4867   */\n      dup6\n        /* \"#utility.yul\":4857:4861   */\n      0x20\n        /* \"#utility.yul\":4850:4855   */\n      dup7\n        /* \"#utility.yul\":4846:4862   */\n      add\n        /* \"#utility.yul\":4811:4876   */\n      tag_61\n      jump\t// in\n    tag_137:\n        /* \"#utility.yul\":4901:4930   */\n      tag_138\n        /* \"#utility.yul\":4923:4929   */\n      dup2\n        /* \"#utility.yul\":4901:4930   */\n      tag_50\n      jump\t// in\n    tag_138:\n        /* \"#utility.yul\":4896:4899   */\n      dup5\n        /* \"#utility.yul\":4892:4931   */\n      add\n        /* \"#utility.yul\":4885:4931   */\n      swap2\n      pop\n        /* \"#utility.yul\":4652:4937   */\n      pop\n        /* \"#utility.yul\":4560:4937   */\n      swap3\n      swap2\n      pop\n      pop\n      jump\t// out\n        /* \"#utility.yul\":4943:5366   */\n    tag_16:\n        /* \"#utility.yul\":5084:5088   */\n      0x00\n        /* \"#utility.yul\":5122:5124   */\n      0x40\n        /* \"#utility.yul\":5111:5120   */\n      dup3\n        /* \"#utility.yul\":5107:5125   */\n      add\n        /* \"#utility.yul\":5099:5125   */\n      swap1\n      pop\n        /* \"#utility.yul\":5135:5206   */\n      tag_140\n        /* \"#utility.yul\":5203:5204   */\n      0x00\n        /* \"#utility.yul\":5192:5201   */\n      dup4\n        /* \"#utility.yul\":5188:5205   */\n      add\n        /* \"#utility.yul\":5179:5185   */\n      dup6\n        /* \"#utility.yul\":5135:5206   */\n      tag_58\n      jump\t// in\n    tag_140:\n        /* \"#utility.yul\":5253:5262   */\n      dup2\n        /* \"#utility.yul\":5247:5251   */\n      dup2\n        /* \"#utility.yul\":5243:5263   */\n      sub\n        /* \"#utility.yul\":5238:5240   */\n      0x20\n        /* \"#utility.yul\":5227:5236   */\n      dup4\n        /* \"#utility.yul\":5223:5241   */\n      add\n        /* \"#utility.yul\":5216:5264   */\n      mstore\n        /* \"#utility.yul\":5281:5359   */\n      tag_141\n        /* \"#utility.yul\":5354:5358   */\n      dup2\n        /* \"#utility.yul\":5345:5351   */\n      dup5\n        /* \"#utility.yul\":5281:5359   */\n      tag_62\n      jump\t// in\n    tag_141:\n        /* \"#utility.yul\":5273:5359   */\n      swap1\n      pop\n        /* \"#utility.yul\":4943:5366   */\n      swap4\n      swap3\n      pop\n      pop\n      pop\n      jump\t// out\n        /* \"#utility.yul\":5372:5685   */\n    tag_21:\n        /* \"#utility.yul\":5485:5489   */\n      0x00\n        /* \"#utility.yul\":5523:5525   */\n      0x20\n        /* \"#utility.yul\":5512:5521   */\n      dup3\n        /* \"#utility.yul\":5508:5526   */\n      add\n        /* \"#utility.yul\":5500:5526   */\n      swap1\n      pop\n        /* \"#utility.yul\":5572:5581   */\n      dup2\n        /* \"#utility.yul\":5566:5570   */\n      dup2\n        /* \"#utility.yul\":5562:5582   */\n      sub\n        /* \"#utility.yul\":5558:5559   */\n      0x00\n        /* \"#utility.yul\":5547:5556   */\n      dup4\n        /* \"#utility.yul\":5543:5560   */\n      add\n        /* \"#utility.yul\":5536:5583   */\n      mstore\n        /* \"#utility.yul\":5600:5678   */\n      tag_143\n        /* \"#utility.yul\":5673:5677   */\n      dup2\n        /* \"#utility.yul\":5664:5670   */\n      dup5\n        /* \"#utility.yul\":5600:5678   */\n      tag_62\n      jump\t// in\n    tag_143:\n        /* \"#utility.yul\":5592:5678   */\n      swap1\n      pop\n        /* \"#utility.yul\":5372:5685   */\n      swap3\n      swap2\n      pop\n      pop\n      jump\t// out\n        /* \"#utility.yul\":5691:5871   */\n    tag_63:\n        /* \"#utility.yul\":5739:5816   */\n      0x4e487b7100000000000000000000000000000000000000000000000000000000\n        /* \"#utility.yul\":5736:5737   */\n      0x00\n        /* \"#utility.yul\":5729:5817   */\n      mstore\n        /* \"#utility.yul\":5836:5840   */\n      0x22\n        /* \"#utility.yul\":5833:5834   */\n      0x04\n        /* \"#utility.yul\":5826:5841   */\n      mstore\n        /* \"#utility.yul\":5860:5864   */\n      0x24\n        /* \"#utility.yul\":5857:5858   */\n      0x00\n        /* \"#utility.yul\":5850:5865   */\n      revert\n        /* \"#utility.yul\":5877:6197   */\n    tag_29:\n        /* \"#utility.yul\":5921:5927   */\n      0x00\n        /* \"#utility.yul\":5958:5959   */\n      0x02\n        /* \"#utility.yul\":5952:5956   */\n      dup3\n        /* \"#utility.yul\":5948:5960   */\n      div\n        /* \"#utility.yul\":5938:5960   */\n      swap1\n      pop\n        /* \"#utility.yul\":6005:6006   */\n      0x01\n        /* \"#utility.yul\":5999:6003   */\n      dup3\n        /* \"#utility.yul\":5995:6007   */\n      and\n        /* \"#utility.yul\":6026:6044   */\n      dup1\n        /* \"#utility.yul\":6016:6097   */\n      tag_146\n      jumpi\n        /* \"#utility.yul\":6082:6086   */\n      0x7f\n        /* \"#utility.yul\":6074:6080   */\n      dup3\n        /* \"#utility.yul\":6070:6087   */\n      and\n        /* \"#utility.yul\":6060:6087   */\n      swap2\n      pop\n        /* \"#utility.yul\":6016:6097   */\n    tag_146:\n        /* \"#utility.yul\":6144:6146   */\n      0x20\n        /* \"#utility.yul\":6136:6142   */\n      dup3\n        /* \"#utility.yul\":6133:6147   */\n      lt\n        /* \"#utility.yul\":6113:6131   */\n      dup2\n        /* \"#utility.yul\":6110:6148   */\n      sub\n        /* \"#utility.yul\":6107:6191   */\n      tag_147\n      jumpi\n        /* \"#utility.yul\":6163:6181   */\n      tag_148\n      tag_63\n      jump\t// in\n    tag_148:\n        /* \"#utility.yul\":6107:6191   */\n    tag_147:\n        /* \"#utility.yul\":5928:6197   */\n      pop\n        /* \"#utility.yul\":5877:6197   */\n      swap2\n      swap1\n      pop\n      jump\t// out\n        /* \"#utility.yul\":6203:6344   */\n    tag_64:\n        /* \"#utility.yul\":6252:6256   */\n      0x00\n        /* \"#utility.yul\":6275:6278   */\n      dup2\n        /* \"#utility.yul\":6267:6278   */\n      swap1\n      pop\n        /* \"#utility.yul\":6298:6301   */\n      dup2\n        /* \"#utility.yul\":6295:6296   */\n      0x00\n        /* \"#utility.yul\":6288:6302   */\n      mstore\n        /* \"#utility.yul\":6332:6336   */\n      0x20\n        /* \"#utility.yul\":6329:6330   */\n      0x00\n        /* \"#utility.yul\":6319:6337   */\n      keccak256\n        /* \"#utility.yul\":6311:6337   */\n      swap1\n      pop\n        /* \"#utility.yul\":6203:6344   */\n      swap2\n      swap1\n      pop\n      jump\t// out\n        /* \"#utility.yul\":6350:6443   */\n    tag_65:\n        /* \"#utility.yul\":6387:6393   */\n      0x00\n        /* \"#utility.yul\":6434:6436   */\n      0x20\n        /* \"#utility.yul\":6429:6431   */\n      0x1f\n        /* \"#utility.yul\":6422:6427   */\n      dup4\n        /* \"#utility.yul\":6418:6432   */\n      add\n        /* \"#utility.yul\":6414:6437   */\n      div\n        /* \"#utility.yul\":6404:6437   */\n      swap1\n      pop\n        /* \"#utility.yul\":6350:6443   */\n      swap2\n      swap1\n      pop\n      jump\t// out\n        /* \"#utility.yul\":6449:6556   */\n    tag_66:\n        /* \"#utility.yul\":6493:6501   */\n      0x00\n        /* \"#utility.yul\":6543:6548   */\n      dup3\n        /* \"#utility.yul\":6537:6541   */\n      dup3\n        /* \"#utility.yul\":6533:6549   */\n      shl\n        /* \"#utility.yul\":6512:6549   */\n      swap1\n      pop\n        /* \"#utility.yul\":6449:6556   */\n      swap3\n      swap2\n      pop\n      pop\n      jump\t// out\n        /* \"#utility.yul\":6562:6955   */\n    tag_67:\n        /* \"#utility.yul\":6631:6637   */\n      0x00\n        /* \"#utility.yul\":6681:6682   */\n      0x08\n        /* \"#utility.yul\":6669:6679   */\n      dup4\n        /* \"#utility.yul\":6665:6683   */\n      mul\n        /* \"#utility.yul\":6704:6801   */\n      tag_153\n        /* \"#utility.yul\":6734:6800   */\n      0xffffffffffffffffffffffffffffffffffffffffffffffffffffffffffffffff\n        /* \"#utility.yul\":6723:6732   */\n      dup3\n        /* \"#utility.yul\":6704:6801   */\n      tag_66\n      jump\t// in\n    tag_153:\n        /* \"#utility.yul\":6822:6861   */\n      tag_154\n        /* \"#utility.yul\":6852:6860   */\n      dup7\n        /* \"#utility.yul\":6841:6850   */\n      dup4\n        /* \"#utility.yul\":6822:6861   */\n      tag_66\n      jump\t// in\n    tag_154:\n        /* \"#utility.yul\":6810:6861   */\n      swap6\n      pop\n        /* \"#utility.yul\":6894:6898   */\n      dup1\n        /* \"#utility.yul\":6890:6899   */\n      not\n        /* \"#utility.yul\":6883:6888   */\n      dup5\n        /* \"#utility.yul\":6879:6900   */\n      and\n        /* \"#utility.yul\":6870:6900   */\n      swap4\n      pop\n        /* \"#utility.yul\":6943:6947   */\n      dup1\n        /* \"#utility.yul\":6933:6941   */\n      dup7\n        /* \"#utility.yul\":6929:6948   */\n      and\n        /* \"#utility.yul\":6922:6927   */\n      dup5\n        /* \"#utility.yul\":6919:6949   */\n      or\n        /* \"#utility.yul\":6909:6949   */\n      swap3\n      pop\n        /* \"#utility.yul\":6638:6955   */\n      pop\n      pop\n        /* \"#utility.yul\":6562:6955   */\n      swap4\n      swap3\n      pop\n      pop\n      pop\n      jump\t// out\n        /* \"#utility.yul\":6961:7021   */\n    tag_68:\n        /* \"#utility.yul\":6989:6992   */\n      0x00\n        /* \"#utility.yul\":7010:7015   */\n      dup2\n        /* \"#utility.yul\":7003:7015   */\n      swap1\n      pop\n        /* \"#utility.yul\":6961:7021   */\n      swap2\n      swap1\n      pop\n      jump\t// out\n        /* \"#utility.yul\":7027:7169   */\n    tag_69:\n        /* \"#utility.yul\":7077:7086   */\n      0x00\n        /* \"#utility.yul\":7110:7163   */\n      tag_157\n        /* \"#utility.yul\":7128:7162   */\n      tag_158\n        /* \"#utility.yul\":7137:7161   */\n      tag_159\n        /* \"#utility.yul\":7155:7160   */\n      dup5\n        /* \"#utility.yul\":7137:7161   */\n      tag_45\n      jump\t// in\n    tag_159:\n        /* \"#utility.yul\":7128:7162   */\n      tag_68\n      jump\t// in\n    tag_158:\n        /* \"#utility.yul\":7110:7163   */\n      tag_45\n      jump\t// in\n    tag_157:\n        /* \"#utility.yul\":7097:7163   */\n      swap1\n      pop\n        /* \"#utility.yul\":7027:7169   */\n      swap2\n      swap1\n      pop\n      jump\t// out\n        /* \"#utility.yul\":7175:7250   */\n    tag_70:\n        /* \"#utility.yul\":7218:7221   */\n      0x00\n        /* \"#utility.yul\":7239:7244   */\n      dup2\n        /* \"#utility.yul\":7232:7244   */\n      swap1\n      pop\n        /* \"#utility.yul\":7175:7250   */\n      swap2\n      swap1\n      pop\n      jump\t// out\n        /* \"#utility.yul\":7256:7525   */\n    tag_71:\n        /* \"#utility.yul\":7366:7405   */\n      tag_162\n        /* \"#utility.yul\":7397:7404   */\n      dup4\n        /* \"#utility.yul\":7366:7405   */\n      tag_69\n      jump\t// in\n    tag_162:\n        /* \"#utility.yul\":7427:7518   */\n      tag_163\n        /* \"#utility.yul\":7476:7517   */\n      tag_164\n        /* \"#utility.yul\":7500:7516   */\n      dup3\n        /* \"#utility.yul\":7476:7517   */\n      tag_70\n      jump\t// in\n    tag_164:\n        /* \"#utility.yul\":7468:7474   */\n      dup5\n        /* \"#utility.yul\":7461:7465   */\n      dup5\n        /* \"#utility.yul\":7455:7466   */\n      sload\n        /* \"#utility.yul\":7427:7518   */\n      tag_67\n      jump\t// in\n    tag_163:\n        /* \"#utility.yul\":7421:7425   */\n      dup3\n        /* \"#utility.yul\":7414:7519   */\n      sstore\n        /* \"#utility.yul\":7332:7525   */\n      pop\n        /* \"#utility.yul\":7256:7525   */\n      pop\n      pop\n      pop\n      jump\t// out\n        /* \"#utility.yul\":7531:7604   */\n    tag_72:\n        /* \"#utility.yul\":7576:7579   */\n      0x00\n        /* \"#utility.yul\":7531:7604   */\n      swap1\n      jump\t// out\n        /* \"#utility.yul\":7610:7799   */\n    tag_73:\n        /* \"#utility.yul\":7687:7719   */\n      tag_167\n      tag_72\n      jump\t// in\n    tag_167:\n        /* \"#utility.yul\":7728:7793   */\n      tag_168\n        /* \"#utility.yul\":7786:7792   */\n      dup2\n        /* \"#utility.yul\":7778:7784   */\n      dup5\n        /* \"#utility.yul\":7772:7776   */\n      dup5\n        /* \"#utility.yul\":7728:7793   */\n      tag_71\n      jump\t// in\n    tag_168:\n        /* \"#utility.yul\":7663:7799   */\n      pop\n        /* \"#utility.yul\":7610:7799   */\n      pop\n      pop\n      jump\t// out\n        /* \"#utility.yul\":7805:7991   */\n    tag_74:\n        /* \"#utility.yul\":7865:7985   */\n    tag_170:\n        /* \"#utility.yul\":7882:7885   */\n      dup2\n        /* \"#utility.yul\":7875:7880   */\n      dup2\n        /* \"#utility.yul\":7872:7886   */\n      lt\n        /* \"#utility.yul\":7865:7985   */\n      iszero\n      tag_172\n      jumpi\n        /* \"#utility.yul\":7936:7975   */\n      tag_173\n        /* \"#utility.yul\":7973:7974   */\n      0x00\n        /* \"#utility.yul\":7966:7971   */\n      dup3\n        /* \"#utility.yul\":7936:7975   */\n      tag_73\n      jump\t// in\n    tag_173:\n        /* \"#utility.yul\":7909:7910   */\n      0x01\n        /* \"#utility.yul\":7902:7907   */\n      dup2\n        /* \"#utility.yul\":7898:7911   */\n      add\n        /* \"#utility.yul\":7889:7911   */\n      swap1\n      pop\n        /* \"#utility.yul\":7865:7985   */\n      jump(tag_170)\n    tag_172:\n        /* \"#utility.yul\":7805:7991   */\n      pop\n      pop\n      jump\t// out\n        /* \"#utility.yul\":7997:8540   */\n    tag_75:\n        /* \"#utility.yul\":8098:8100   */\n      0x1f\n        /* \"#utility.yul\":8093:8096   */\n      dup3\n        /* \"#utility.yul\":8090:8101   */\n      gt\n        /* \"#utility.yul\":8087:8533   */\n      iszero\n      tag_175\n      jumpi\n        /* \"#utility.yul\":8132:8170   */\n      tag_176\n        /* \"#utility.yul\":8164:8169   */\n      dup2\n        /* \"#utility.yul\":8132:8170   */\n      tag_64\n      jump\t// in\n    tag_176:\n        /* \"#utility.yul\":8216:8245   */\n      tag_177\n        /* \"#utility.yul\":8234:8244   */\n      dup5\n        /* \"#utility.yul\":8216:8245   */\n      tag_65\n      jump\t// in\n    tag_177:\n        /* \"#utility.yul\":8206:8214   */\n      dup2\n        /* \"#utility.yul\":8202:8246   */\n      add\n        /* \"#utility.yul\":8399:8401   */\n      0x20\n        /* \"#utility.yul\":8387:8397   */\n      dup6\n        /* \"#utility.yul\":8384:8402   */\n      lt\n        /* \"#utility.yul\":8381:8430   */\n      iszero\n      tag_178\n      jumpi\n        /* \"#utility.yul\":8420:8428   */\n      dup2\n        /* \"#utility.yul\":8405:8428   */\n      swap1\n      pop\n        /* \"#utility.yul\":8381:8430   */\n    tag_178:\n        /* \"#utility.yul\":8443:8523   */\n      tag_179\n        /* \"#utility.yul\":8499:8521   */\n      tag_180\n        /* \"#utility.yul\":8517:8520   */\n      dup6\n        /* \"#utility.yul\":8499:8521   */\n      tag_65\n      jump\t// in\n    tag_180:\n        /* \"#utility.yul\":8489:8497   */\n      dup4\n        /* \"#utility.yul\":8485:8522   */\n      add\n        /* \"#utility.yul\":8472:8483   */\n      dup3\n        /* \"#utility.yul\":8443:8523   */\n      tag_74\n      jump\t// in\n    tag_179:\n        /* \"#utility.yul\":8102:8533   */\n      pop\n      pop\n        /* \"#utility.yul\":8087:8533   */\n    tag_175:\n        /* \"#utility.yul\":7997:8540   */\n      pop\n      pop\n      pop\n      jump\t// out\n        /* \"#utility.yul\":8546:8663   */\n    tag_76:\n        /* \"#utility.yul\":8600:8608   */\n      0x00\n        /* \"#utility.yul\":8650:8655   */\n      dup3\n        /* \"#utility.yul\":8644:8648   */\n      dup3\n        /* \"#utility.yul\":8640:8656   */\n      shr\n        /* \"#utility.yul\":8619:8656   */\n      swap1\n      pop\n        /* \"#utility.yul\":8546:8663   */\n      swap3\n      swap2\n      pop\n      pop\n      jump\t// out\n        /* \"#utility.yul\":8669:8838   */\n    tag_77:\n        /* \"#utility.yul\":8713:8719   */\n      0x00\n        /* \"#utility.yul\":8746:8797   */\n      tag_183\n        /* \"#utility.yul\":8794:8795   */\n      0x00\n        /* \"#utility.yul\":8790:8796   */\n      not\n        /* \"#utility.yul\":8782:8787   */\n      dup5\n        /* \"#utility.yul\":8779:8780   */\n      0x08\n        /* \"#utility.yul\":8775:8788   */\n      mul\n        /* \"#utility.yul\":8746:8797   */\n      tag_76\n      jump\t// in\n    tag_183:\n        /* \"#utility.yul\":8742:8798   */\n      not\n        /* \"#utility.yul\":8827:8831   */\n      dup1\n        /* \"#utility.yul\":8821:8825   */\n      dup4\n        /* \"#utility.yul\":8817:8832   */\n      and\n        /* \"#utility.yul\":8807:8832   */\n      swap2\n      pop\n        /* \"#utility.yul\":8720:8838   */\n      pop\n        /* \"#utility.yul\":8669:8838   */\n      swap3\n      swap2\n      pop\n      pop\n      jump\t// out\n        /* \"#utility.yul\":8843:9138   */\n    tag_78:\n        /* \"#utility.yul\":8919:8923   */\n      0x00\n        /* \"#utility.yul\":9065:9094   */\n      tag_185\n        /* \"#utility.yul\":9090:9093   */\n      dup4\n        /* \"#utility.yul\":9084:9088   */\n      dup4\n        /* \"#utility.yul\":9065:9094   */\n      tag_77\n      jump\t// in\n    tag_185:\n        /* \"#utility.yul\":9057:9094   */\n      swap2\n      pop\n        /* \"#utility.yul\":9127:9130   */\n      dup3\n        /* \"#utility.yul\":9124:9125   */\n      0x02\n        /* \"#utility.yul\":9120:9131   */\n      mul\n        /* \"#utility.yul\":9114:9118   */\n      dup3\n        /* \"#utility.yul\":9111:9132   */\n      or\n        /* \"#utility.yul\":9103:9132   */\n      swap1\n      pop\n        /* \"#utility.yul\":8843:9138   */\n      swap3\n      swap2\n      pop\n      pop\n      jump\t// out\n        /* \"#utility.yul\":9143:10538   */\n    tag_27:\n        /* \"#utility.yul\":9260:9297   */\n      tag_187\n        /* \"#utility.yul\":9293:9296   */\n      dup3\n        /* \"#utility.yul\":9260:9297   */\n      tag_59\n      jump\t// in\n    tag_187:\n        /* \"#utility.yul\":9362:9380   */\n      0xffffffffffffffff\n        /* \"#utility.yul\":9354:9360   */\n      dup2\n        /* \"#utility.yul\":9351:9381   */\n      gt\n        /* \"#utility.yul\":9348:9404   */\n      iszero\n      tag_188\n      jumpi\n        /* \"#utility.yul\":9384:9402   */\n      tag_189\n      tag_51\n      jump\t// in\n    tag_189:\n        /* \"#utility.yul\":9348:9404   */\n    tag_188:\n        /* \"#utility.yul\":9428:9466   */\n      tag_190\n        /* \"#utility.yul\":9460:9464   */\n      dup3\n        /* \"#utility.yul\":9454:9465   */\n      sload\n        /* \"#utility.yul\":9428:9466   */\n      tag_29\n      jump\t// in\n    tag_190:\n        /* \"#utility.yul\":9513:9580   */\n      tag_191\n        /* \"#utility.yul\":9573:9579   */\n      dup3\n        /* \"#utility.yul\":9565:9571   */\n      dup3\n        /* \"#utility.yul\":9559:9563   */\n      dup6\n        /* \"#utility.yul\":9513:9580   */\n      tag_75\n      jump\t// in\n    tag_191:\n        /* \"#utility.yul\":9607:9608   */\n      0x00\n        /* \"#utility.yul\":9631:9635   */\n      0x20\n        /* \"#utility.yul\":9618:9635   */\n      swap1\n      pop\n        /* \"#utility.yul\":9663:9665   */\n      0x1f\n        /* \"#utility.yul\":9655:9661   */\n      dup4\n        /* \"#utility.yul\":9652:9666   */\n      gt\n        /* \"#utility.yul\":9680:9681   */\n      0x01\n        /* \"#utility.yul\":9675:10293   */\n      dup2\n      eq\n      tag_193\n      jumpi\n        /* \"#utility.yul\":10337:10338   */\n      0x00\n        /* \"#utility.yul\":10354:10360   */\n      dup5\n        /* \"#utility.yul\":10351:10428   */\n      iszero\n      tag_194\n      jumpi\n        /* \"#utility.yul\":10403:10412   */\n      dup3\n        /* \"#utility.yul\":10398:10401   */\n      dup8\n        /* \"#utility.yul\":10394:10413   */\n      add\n        /* \"#utility.yul\":10388:10414   */\n      mload\n        /* \"#utility.yul\":10379:10414   */\n      swap1\n      pop\n        /* \"#utility.yul\":10351:10428   */\n    tag_194:\n        /* \"#utility.yul\":10454:10521   */\n      tag_195\n        /* \"#utility.yul\":10514:10520   */\n      dup6\n        /* \"#utility.yul\":10507:10512   */\n      dup3\n        /* \"#utility.yul\":10454:10521   */\n      tag_78\n      jump\t// in\n    tag_195:\n        /* \"#utility.yul\":10448:10452   */\n      dup7\n        /* \"#utility.yul\":10441:10522   */\n      sstore\n        /* \"#utility.yul\":10310:10532   */\n      pop\n        /* \"#utility.yul\":9645:10532   */\n      jump(tag_192)\n        /* \"#utility.yul\":9675:10293   */\n    tag_193:\n        /* \"#utility.yul\":9727:9731   */\n      0x1f\n        /* \"#utility.yul\":9723:9732   */\n      not\n        /* \"#utility.yul\":9715:9721   */\n      dup5\n        /* \"#utility.yul\":9711:9733   */\n      and\n        /* \"#utility.yul\":9761:9798   */\n      tag_196\n        /* \"#utility.yul\":9793:9797   */\n      dup7\n        /* \"#utility.yul\":9761:9798   */\n      tag_64\n      jump\t// in\n    tag_196:\n        /* \"#utility.yul\":9820:9821   */\n      0x00\n        /* \"#utility.yul\":9834:10042   */\n    tag_197:\n        /* \"#utility.yul\":9848:9855   */\n      dup3\n        /* \"#utility.yul\":9845:9846   */\n      dup2\n        /* \"#utility.yul\":9842:9856   */\n      lt\n        /* \"#utility.yul\":9834:10042   */\n      iszero\n      tag_199\n      jumpi\n        /* \"#utility.yul\":9927:9936   */\n      dup5\n        /* \"#utility.yul\":9922:9925   */\n      dup10\n        /* \"#utility.yul\":9918:9937   */\n      add\n        /* \"#utility.yul\":9912:9938   */\n      mload\n        /* \"#utility.yul\":9904:9910   */\n      dup3\n        /* \"#utility.yul\":9897:9939   */\n      sstore\n        /* \"#utility.yul\":9978:9979   */\n      0x01\n        /* \"#utility.yul\":9970:9976   */\n      dup3\n        /* \"#utility.yul\":9966:9980   */\n      add\n        /* \"#utility.yul\":9956:9980   */\n      swap2\n      pop\n        /* \"#utility.yul\":10025:10027   */\n      0x20\n        /* \"#utility.yul\":10014:10023   */\n      dup6\n        /* \"#utility.yul\":10010:10028   */\n      add\n        /* \"#utility.yul\":9997:10028   */\n      swap5\n      pop\n        /* \"#utility.yul\":9871:9875   */\n      0x20\n        /* \"#utility.yul\":9868:9869   */\n      dup2\n        /* \"#utility.yul\":9864:9876   */\n      add\n        /* \"#utility.yul\":9859:9876   */\n      swap1\n      pop\n        /* \"#utility.yul\":9834:10042   */\n      jump(tag_197)\n    tag_199:\n        /* \"#utility.yul\":10070:10076   */\n      dup7\n        /* \"#utility.yul\":10061:10068   */\n      dup4\n        /* \"#utility.yul\":10058:10077   */\n      lt\n        /* \"#utility.yul\":10055:10234   */\n      iszero\n      tag_200\n      jumpi\n        /* \"#utility.yul\":10128:10137   */\n      dup5\n        /* \"#utility.yul\":10123:10126   */\n      dup10\n        /* \"#utility.yul\":10119:10138   */\n      add\n        /* \"#utility.yul\":10113:10139   */\n      mload\n        /* \"#utility.yul\":10171:10219   */\n      tag_201\n        /* \"#utility.yul\":10213:10217   */\n      0x1f\n        /* \"#utility.yul\":10205:10211   */\n      dup10\n        /* \"#utility.yul\":10201:10218   */\n      and\n        /* \"#utility.yul\":10190:10199   */\n      dup3\n        /* \"#utility.yul\":10171:10219   */\n      tag_77\n      jump\t// in\n    tag_201:\n        /* \"#utility.yul\":10163:10169   */\n      dup4\n        /* \"#utility.yul\":10156:10220   */\n      sstore\n        /* \"#utility.yul\":10078:10234   */\n      pop\n        /* \"#utility.yul\":10055:10234   */\n    tag_200:\n        /* \"#utility.yul\":10280:10281   */\n      0x01\n        /* \"#utility.yul\":10276:10277   */\n      0x02\n        /* \"#utility.yul\":10268:10274   */\n      dup9\n        /* \"#utility.yul\":10264:10278   */\n      mul\n        /* \"#utility.yul\":10260:10282   */\n      add\n        /* \"#utility.yul\":10254:10258   */\n      dup9\n        /* \"#utility.yul\":10247:10283   */\n      sstore\n        /* \"#utility.yul\":9682:10293   */\n      pop\n      pop\n      pop\n        /* \"#utility.yul\":9645:10532   */\n    tag_192:\n      pop\n        /* \"#utility.yul\":9235:10538   */\n      pop\n      pop\n      pop\n        /* \"#utility.yul\":9143:10538   */\n      pop\n      pop\n      jump\t// out\n\n    auxdata: 0xa2646970667358221220009aa01a0650d18a23c59b6ac3e74b2defe9859f76e5cb64f020de7310f9f4d364736f6c63430008180033\n}\n",
				"bytecode": {
					"linkReferences": {},
					"object": "608060405234801561000f575f80fd5b506108a38061001d5f395ff3fe608060405234801561000f575f80fd5b506004361061004a575f3560e01c806354023f0b1461004e5780637e080d7e1461006a5780639507d39a1461009b5780639d1939db146100cb575b5f80fd5b61006860048036038101906100639190610448565b6100e7565b005b610084600480360381019061007f91906104a2565b610131565b604051610092929190610556565b60405180910390f35b6100b560048036038101906100b091906104a2565b6101d6565b6040516100c29190610584565b60405180910390f35b6100e560048036038101906100e09190610448565b610279565b005b6040518060400160405280838152602001828152505f808481526020019081526020015f205f820151815f01556020820151816001019081610129919061079e565b509050505050565b5f602052805f5260405f205f91509050805f015490806001018054610155906105d1565b80601f0160208091040260200160405190810160405280929190818152602001828054610181906105d1565b80156101cc5780601f106101a3576101008083540402835291602001916101cc565b820191905f5260205f20905b8154815290600101906020018083116101af57829003601f168201915b5050505050905082565b60605f808381526020019081526020015f2060010180546101f6906105d1565b80601f0160208091040260200160405190810160405280929190818152602001828054610222906105d1565b801561026d5780601f106102445761010080835404028352916020019161026d565b820191905f5260205f20905b81548152906001019060200180831161025057829003601f168201915b50505050509050919050565b5f6040518060400160405280848152602001838152509050805f808581526020019081526020015f205f820151815f015560208201518160010190816102bf919061079e565b50905050505050565b5f604051905090565b5f80fd5b5f80fd5b5f819050919050565b6102eb816102d9565b81146102f5575f80fd5b50565b5f81359050610306816102e2565b92915050565b5f80fd5b5f80fd5b5f601f19601f8301169050919050565b7f4e487b71000000000000000000000000000000000000000000000000000000005f52604160045260245ffd5b61035a82610314565b810181811067ffffffffffffffff8211171561037957610378610324565b5b80604052505050565b5f61038b6102c8565b90506103978282610351565b919050565b5f67ffffffffffffffff8211156103b6576103b5610324565b5b6103bf82610314565b9050602081019050919050565b828183375f83830152505050565b5f6103ec6103e78461039c565b610382565b90508281526020810184848401111561040857610407610310565b5b6104138482856103cc565b509392505050565b5f82601f83011261042f5761042e61030c565b5b813561043f8482602086016103da565b91505092915050565b5f806040838503121561045e5761045d6102d1565b5b5f61046b858286016102f8565b925050602083013567ffffffffffffffff81111561048c5761048b6102d5565b5b6104988582860161041b565b9150509250929050565b5f602082840312156104b7576104b66102d1565b5b5f6104c4848285016102f8565b91505092915050565b6104d6816102d9565b82525050565b5f81519050919050565b5f82825260208201905092915050565b5f5b838110156105135780820151818401526020810190506104f8565b5f8484015250505050565b5f610528826104dc565b61053281856104e6565b93506105428185602086016104f6565b61054b81610314565b840191505092915050565b5f6040820190506105695f8301856104cd565b818103602083015261057b818461051e565b90509392505050565b5f6020820190508181035f83015261059c818461051e565b905092915050565b7f4e487b71000000000000000000000000000000000000000000000000000000005f52602260045260245ffd5b5f60028204905060018216806105e857607f821691505b6020821081036105fb576105fa6105a4565b5b50919050565b5f819050815f5260205f209050919050565b5f6020601f8301049050919050565b5f82821b905092915050565b5f6008830261065d7fffffffffffffffffffffffffffffffffffffffffffffffffffffffffffffffff82610622565b6106678683610622565b95508019841693508086168417925050509392505050565b5f819050919050565b5f6106a261069d610698846102d9565b61067f565b6102d9565b9050919050565b5f819050919050565b6106bb83610688565b6106cf6106c7826106a9565b84845461062e565b825550505050565b5f90565b6106e36106d7565b6106ee8184846106b2565b505050565b5b81811015610711576107065f826106db565b6001810190506106f4565b5050565b601f8211156107565761072781610601565b61073084610613565b8101602085101561073f578190505b61075361074b85610613565b8301826106f3565b50505b505050565b5f82821c905092915050565b5f6107765f198460080261075b565b1980831691505092915050565b5f61078e8383610767565b9150826002028217905092915050565b6107a7826104dc565b67ffffffffffffffff8111156107c0576107bf610324565b5b6107ca82546105d1565b6107d5828285610715565b5f60209050601f831160018114610806575f84156107f4578287015190505b6107fe8582610783565b865550610865565b601f19841661081486610601565b5f5b8281101561083b57848901518255600182019150602085019450602081019050610816565b868310156108585784890151610854601f891682610767565b8355505b6001600288020188555050505b50505050505056fea2646970667358221220009aa01a0650d18a23c59b6ac3e74b2defe9859f76e5cb64f020de7310f9f4d364736f6c63430008180033",
					"opcodes": "PUSH1 0x80 PUSH1 0x40 MSTORE CALLVALUE DUP1 ISZERO PUSH2 0xF JUMPI PUSH0 DUP1 REVERT JUMPDEST POP PUSH2 0x8A3 DUP1 PUSH2 0x1D PUSH0 CODECOPY PUSH0 RETURN INVALID PUSH1 0x80 PUSH1 0x40 MSTORE CALLVALUE DUP1 ISZERO PUSH2 0xF JUMPI PUSH0 DUP1 REVERT JUMPDEST POP PUSH1 0x4 CALLDATASIZE LT PUSH2 0x4A JUMPI PUSH0 CALLDATALOAD PUSH1 0xE0 SHR DUP1 PUSH4 0x54023F0B EQ PUSH2 0x4E JUMPI DUP1 PUSH4 0x7E080D7E EQ PUSH2 0x6A JUMPI DUP1 PUSH4 0x9507D39A EQ PUSH2 0x9B JUMPI DUP1 PUSH4 0x9D1939DB EQ PUSH2 0xCB JUMPI JUMPDEST PUSH0 DUP1 REVERT JUMPDEST PUSH2 0x68 PUSH1 0x4 DUP1 CALLDATASIZE SUB DUP2 ADD SWAP1 PUSH2 0x63 SWAP2 SWAP1 PUSH2 0x448 JUMP JUMPDEST PUSH2 0xE7 JUMP JUMPDEST STOP JUMPDEST PUSH2 0x84 PUSH1 0x4 DUP1 CALLDATASIZE SUB DUP2 ADD SWAP1 PUSH2 0x7F SWAP2 SWAP1 PUSH2 0x4A2 JUMP JUMPDEST PUSH2 0x131 JUMP JUMPDEST PUSH1 0x40 MLOAD PUSH2 0x92 SWAP3 SWAP2 SWAP1 PUSH2 0x556 JUMP JUMPDEST PUSH1 0x40 MLOAD DUP1 SWAP2 SUB SWAP1 RETURN JUMPDEST PUSH2 0xB5 PUSH1 0x4 DUP1 CALLDATASIZE SUB DUP2 ADD SWAP1 PUSH2 0xB0 SWAP2 SWAP1 PUSH2 0x4A2 JUMP JUMPDEST PUSH2 0x1D6 JUMP JUMPDEST PUSH1 0x40 MLOAD PUSH2 0xC2 SWAP2 SWAP1 PUSH2 0x584 JUMP JUMPDEST PUSH1 0x40 MLOAD DUP1 SWAP2 SUB SWAP1 RETURN JUMPDEST PUSH2 0xE5 PUSH1 0x4 DUP1 CALLDATASIZE SUB DUP2 ADD SWAP1 PUSH2 0xE0 SWAP2 SWAP1 PUSH2 0x448 JUMP JUMPDEST PUSH2 0x279 JUMP JUMPDEST STOP JUMPDEST PUSH1 0x40 MLOAD DUP1 PUSH1 0x40 ADD PUSH1 0x40 MSTORE DUP1 DUP4 DUP2 MSTORE PUSH1 0x20 ADD DUP3 DUP2 MSTORE POP PUSH0 DUP1 DUP5 DUP2 MSTORE PUSH1 0x20 ADD SWAP1 DUP2 MSTORE PUSH1 0x20 ADD PUSH0 KECCAK256 PUSH0 DUP3 ADD MLOAD DUP2 PUSH0 ADD SSTORE PUSH1 0x20 DUP3 ADD MLOAD DUP2 PUSH1 0x1 ADD SWAP1 DUP2 PUSH2 0x129 SWAP2 SWAP1 PUSH2 0x79E JUMP JUMPDEST POP SWAP1 POP POP POP POP JUMP JUMPDEST PUSH0 PUSH1 0x20 MSTORE DUP1 PUSH0 MSTORE PUSH1 0x40 PUSH0 KECCAK256 PUSH0 SWAP2 POP SWAP1 POP DUP1 PUSH0 ADD SLOAD SWAP1 DUP1 PUSH1 0x1 ADD DUP1 SLOAD PUSH2 0x155 SWAP1 PUSH2 0x5D1 JUMP JUMPDEST DUP1 PUSH1 0x1F ADD PUSH1 0x20 DUP1 SWAP2 DIV MUL PUSH1 0x20 ADD PUSH1 0x40 MLOAD SWAP1 DUP2 ADD PUSH1 0x40 MSTORE DUP1 SWAP3 SWAP2 SWAP1 DUP2 DUP2 MSTORE PUSH1 0x20 ADD DUP3 DUP1 SLOAD PUSH2 0x181 SWAP1 PUSH2 0x5D1 JUMP JUMPDEST DUP1 ISZERO PUSH2 0x1CC JUMPI DUP1 PUSH1 0x1F LT PUSH2 0x1A3 JUMPI PUSH2 0x100 DUP1 DUP4 SLOAD DIV MUL DUP4 MSTORE SWAP2 PUSH1 0x20 ADD SWAP2 PUSH2 0x1CC JUMP JUMPDEST DUP3 ADD SWAP2 SWAP1 PUSH0 MSTORE PUSH1 0x20 PUSH0 KECCAK256 SWAP1 JUMPDEST DUP2 SLOAD DUP2 MSTORE SWAP1 PUSH1 0x1 ADD SWAP1 PUSH1 0x20 ADD DUP1 DUP4 GT PUSH2 0x1AF JUMPI DUP3 SWAP1 SUB PUSH1 0x1F AND DUP3 ADD SWAP2 JUMPDEST POP POP POP POP POP SWAP1 POP DUP3 JUMP JUMPDEST PUSH1 0x60 PUSH0 DUP1 DUP4 DUP2 MSTORE PUSH1 0x20 ADD SWAP1 DUP2 MSTORE PUSH1 0x20 ADD PUSH0 KECCAK256 PUSH1 0x1 ADD DUP1 SLOAD PUSH2 0x1F6 SWAP1 PUSH2 0x5D1 JUMP JUMPDEST DUP1 PUSH1 0x1F ADD PUSH1 0x20 DUP1 SWAP2 DIV MUL PUSH1 0x20 ADD PUSH1 0x40 MLOAD SWAP1 DUP2 ADD PUSH1 0x40 MSTORE DUP1 SWAP3 SWAP2 SWAP1 DUP2 DUP2 MSTORE PUSH1 0x20 ADD DUP3 DUP1 SLOAD PUSH2 0x222 SWAP1 PUSH2 0x5D1 JUMP JUMPDEST DUP1 ISZERO PUSH2 0x26D JUMPI DUP1 PUSH1 0x1F LT PUSH2 0x244 JUMPI PUSH2 0x100 DUP1 DUP4 SLOAD DIV MUL DUP4 MSTORE SWAP2 PUSH1 0x20 ADD SWAP2 PUSH2 0x26D JUMP JUMPDEST DUP3 ADD SWAP2 SWAP1 PUSH0 MSTORE PUSH1 0x20 PUSH0 KECCAK256 SWAP1 JUMPDEST DUP2 SLOAD DUP2 MSTORE SWAP1 PUSH1 0x1 ADD SWAP1 PUSH1 0x20 ADD DUP1 DUP4 GT PUSH2 0x250 JUMPI DUP3 SWAP1 SUB PUSH1 0x1F AND DUP3 ADD SWAP2 JUMPDEST POP POP POP POP POP SWAP1 POP SWAP2 SWAP1 POP JUMP JUMPDEST PUSH0 PUSH1 0x40 MLOAD DUP1 PUSH1 0x40 ADD PUSH1 0x40 MSTORE DUP1 DUP5 DUP2 MSTORE PUSH1 0x20 ADD DUP4 DUP2 MSTORE POP SWAP1 POP DUP1 PUSH0 DUP1 DUP6 DUP2 MSTORE PUSH1 0x20 ADD SWAP1 DUP2 MSTORE PUSH1 0x20 ADD PUSH0 KECCAK256 PUSH0 DUP3 ADD MLOAD DUP2 PUSH0 ADD SSTORE PUSH1 0x20 DUP3 ADD MLOAD DUP2 PUSH1 0x1 ADD SWAP1 DUP2 PUSH2 0x2BF SWAP2 SWAP1 PUSH2 0x79E JUMP JUMPDEST POP SWAP1 POP POP POP POP POP JUMP JUMPDEST PUSH0 PUSH1 0x40 MLOAD SWAP1 POP SWAP1 JUMP JUMPDEST PUSH0 DUP1 REVERT JUMPDEST PUSH0 DUP1 REVERT JUMPDEST PUSH0 DUP2 SWAP1 POP SWAP2 SWAP1 POP JUMP JUMPDEST PUSH2 0x2EB DUP2 PUSH2 0x2D9 JUMP JUMPDEST DUP2 EQ PUSH2 0x2F5 JUMPI PUSH0 DUP1 REVERT JUMPDEST POP JUMP JUMPDEST PUSH0 DUP2 CALLDATALOAD SWAP1 POP PUSH2 0x306 DUP2 PUSH2 0x2E2 JUMP JUMPDEST SWAP3 SWAP2 POP POP JUMP JUMPDEST PUSH0 DUP1 REVERT JUMPDEST PUSH0 DUP1 REVERT JUMPDEST PUSH0 PUSH1 0x1F NOT PUSH1 0x1F DUP4 ADD AND SWAP1 POP SWAP2 SWAP1 POP JUMP JUMPDEST PUSH32 0x4E487B7100000000000000000000000000000000000000000000000000000000 PUSH0 MSTORE PUSH1 0x41 PUSH1 0x4 MSTORE PUSH1 0x24 PUSH0 REVERT JUMPDEST PUSH2 0x35A DUP3 PUSH2 0x314 JUMP JUMPDEST DUP2 ADD DUP2 DUP2 LT PUSH8 0xFFFFFFFFFFFFFFFF DUP3 GT OR ISZERO PUSH2 0x379 JUMPI PUSH2 0x378 PUSH2 0x324 JUMP JUMPDEST JUMPDEST DUP1 PUSH1 0x40 MSTORE POP POP POP JUMP JUMPDEST PUSH0 PUSH2 0x38B PUSH2 0x2C8 JUMP JUMPDEST SWAP1 POP PUSH2 0x397 DUP3 DUP3 PUSH2 0x351 JUMP JUMPDEST SWAP2 SWAP1 POP JUMP JUMPDEST PUSH0 PUSH8 0xFFFFFFFFFFFFFFFF DUP3 GT ISZERO PUSH2 0x3B6 JUMPI PUSH2 0x3B5 PUSH2 0x324 JUMP JUMPDEST JUMPDEST PUSH2 0x3BF DUP3 PUSH2 0x314 JUMP JUMPDEST SWAP1 POP PUSH1 0x20 DUP2 ADD SWAP1 POP SWAP2 SWAP1 POP JUMP JUMPDEST DUP3 DUP2 DUP4 CALLDATACOPY PUSH0 DUP4 DUP4 ADD MSTORE POP POP POP JUMP JUMPDEST PUSH0 PUSH2 0x3EC PUSH2 0x3E7 DUP5 PUSH2 0x39C JUMP JUMPDEST PUSH2 0x382 JUMP JUMPDEST SWAP1 POP DUP3 DUP2 MSTORE PUSH1 0x20 DUP2 ADD DUP5 DUP5 DUP5 ADD GT ISZERO PUSH2 0x408 JUMPI PUSH2 0x407 PUSH2 0x310 JUMP JUMPDEST JUMPDEST PUSH2 0x413 DUP5 DUP3 DUP6 PUSH2 0x3CC JUMP JUMPDEST POP SWAP4 SWAP3 POP POP POP JUMP JUMPDEST PUSH0 DUP3 PUSH1 0x1F DUP4 ADD SLT PUSH2 0x42F JUMPI PUSH2 0x42E PUSH2 0x30C JUMP JUMPDEST JUMPDEST DUP2 CALLDATALOAD PUSH2 0x43F DUP5 DUP3 PUSH1 0x20 DUP7 ADD PUSH2 0x3DA JUMP JUMPDEST SWAP2 POP POP SWAP3 SWAP2 POP POP JUMP JUMPDEST PUSH0 DUP1 PUSH1 0x40 DUP4 DUP6 SUB SLT ISZERO PUSH2 0x45E JUMPI PUSH2 0x45D PUSH2 0x2D1 JUMP JUMPDEST JUMPDEST PUSH0 PUSH2 0x46B DUP6 DUP3 DUP7 ADD PUSH2 0x2F8 JUMP JUMPDEST SWAP3 POP POP PUSH1 0x20 DUP4 ADD CALLDATALOAD PUSH8 0xFFFFFFFFFFFFFFFF DUP2 GT ISZERO PUSH2 0x48C JUMPI PUSH2 0x48B PUSH2 0x2D5 JUMP JUMPDEST JUMPDEST PUSH2 0x498 DUP6 DUP3 DUP7 ADD PUSH2 0x41B JUMP JUMPDEST SWAP2 POP POP SWAP3 POP SWAP3 SWAP1 POP JUMP JUMPDEST PUSH0 PUSH1 0x20 DUP3 DUP5 SUB SLT ISZERO PUSH2 0x4B7 JUMPI PUSH2 0x4B6 PUSH2 0x2D1 JUMP JUMPDEST JUMPDEST PUSH0 PUSH2 0x4C4 DUP5 DUP3 DUP6 ADD PUSH2 0x2F8 JUMP JUMPDEST SWAP2 POP POP SWAP3 SWAP2 POP POP JUMP JUMPDEST PUSH2 0x4D6 DUP2 PUSH2 0x2D9 JUMP JUMPDEST DUP3 MSTORE POP POP JUMP JUMPDEST PUSH0 DUP2 MLOAD SWAP1 POP SWAP2 SWAP1 POP JUMP JUMPDEST PUSH0 DUP3 DUP3 MSTORE PUSH1 0x20 DUP3 ADD SWAP1 POP SWAP3 SWAP2 POP POP JUMP JUMPDEST PUSH0 JUMPDEST DUP4 DUP2 LT ISZERO PUSH2 0x513 JUMPI DUP1 DUP3 ADD MLOAD DUP2 DUP5 ADD MSTORE PUSH1 0x20 DUP2 ADD SWAP1 POP PUSH2 0x4F8 JUMP JUMPDEST PUSH0 DUP5 DUP5 ADD MSTORE POP POP POP POP JUMP JUMPDEST PUSH0 PUSH2 0x528 DUP3 PUSH2 0x4DC JUMP JUMPDEST PUSH2 0x532 DUP2 DUP6 PUSH2 0x4E6 JUMP JUMPDEST SWAP4 POP PUSH2 0x542 DUP2 DUP6 PUSH1 0x20 DUP7 ADD PUSH2 0x4F6 JUMP JUMPDEST PUSH2 0x54B DUP2 PUSH2 0x314 JUMP JUMPDEST DUP5 ADD SWAP2 POP POP SWAP3 SWAP2 POP POP JUMP JUMPDEST PUSH0 PUSH1 0x40 DUP3 ADD SWAP1 POP PUSH2 0x569 PUSH0 DUP4 ADD DUP6 PUSH2 0x4CD JUMP JUMPDEST DUP2 DUP2 SUB PUSH1 0x20 DUP4 ADD MSTORE PUSH2 0x57B DUP2 DUP5 PUSH2 0x51E JUMP JUMPDEST SWAP1 POP SWAP4 SWAP3 POP POP POP JUMP JUMPDEST PUSH0 PUSH1 0x20 DUP3 ADD SWAP1 POP DUP2 DUP2 SUB PUSH0 DUP4 ADD MSTORE PUSH2 0x59C DUP2 DUP5 PUSH2 0x51E JUMP JUMPDEST SWAP1 POP SWAP3 SWAP2 POP POP JUMP JUMPDEST PUSH32 0x4E487B7100000000000000000000000000000000000000000000000000000000 PUSH0 MSTORE PUSH1 0x22 PUSH1 0x4 MSTORE PUSH1 0x24 PUSH0 REVERT JUMPDEST PUSH0 PUSH1 0x2 DUP3 DIV SWAP1 POP PUSH1 0x1 DUP3 AND DUP1 PUSH2 0x5E8 JUMPI PUSH1 0x7F DUP3 AND SWAP2 POP JUMPDEST PUSH1 0x20 DUP3 LT DUP2 SUB PUSH2 0x5FB JUMPI PUSH2 0x5FA PUSH2 0x5A4 JUMP JUMPDEST JUMPDEST POP SWAP2 SWAP1 POP JUMP JUMPDEST PUSH0 DUP2 SWAP1 POP DUP2 PUSH0 MSTORE PUSH1 0x20 PUSH0 KECCAK256 SWAP1 POP SWAP2 SWAP1 POP JUMP JUMPDEST PUSH0 PUSH1 0x20 PUSH1 0x1F DUP4 ADD DIV SWAP1 POP SWAP2 SWAP1 POP JUMP JUMPDEST PUSH0 DUP3 DUP3 SHL SWAP1 POP SWAP3 SWAP2 POP POP JUMP JUMPDEST PUSH0 PUSH1 0x8 DUP4 MUL PUSH2 0x65D PUSH32 0xFFFFFFFFFFFFFFFFFFFFFFFFFFFFFFFFFFFFFFFFFFFFFFFFFFFFFFFFFFFFFFFF DUP3 PUSH2 0x622 JUMP JUMPDEST PUSH2 0x667 DUP7 DUP4 PUSH2 0x622 JUMP JUMPDEST SWAP6 POP DUP1 NOT DUP5 AND SWAP4 POP DUP1 DUP7 AND DUP5 OR SWAP3 POP POP POP SWAP4 SWAP3 POP POP POP JUMP JUMPDEST PUSH0 DUP2 SWAP1 POP SWAP2 SWAP1 POP JUMP JUMPDEST PUSH0 PUSH2 0x6A2 PUSH2 0x69D PUSH2 0x698 DUP5 PUSH2 0x2D9 JUMP JUMPDEST PUSH2 0x67F JUMP JUMPDEST PUSH2 0x2D9 JUMP JUMPDEST SWAP1 POP SWAP2 SWAP1 POP JUMP JUMPDEST PUSH0 DUP2 SWAP1 POP SWAP2 SWAP1 POP JUMP JUMPDEST PUSH2 0x6BB DUP4 PUSH2 0x688 JUMP JUMPDEST PUSH2 0x6CF PUSH2 0x6C7 DUP3 PUSH2 0x6A9 JUMP JUMPDEST DUP5 DUP5 SLOAD PUSH2 0x62E JUMP JUMPDEST DUP3 SSTORE POP POP POP POP JUMP JUMPDEST PUSH0 SWAP1 JUMP JUMPDEST PUSH2 0x6E3 PUSH2 0x6D7 JUMP JUMPDEST PUSH2 0x6EE DUP2 DUP5 DUP5 PUSH2 0x6B2 JUMP JUMPDEST POP POP POP JUMP JUMPDEST JUMPDEST DUP2 DUP2 LT ISZERO PUSH2 0x711 JUMPI PUSH2 0x706 PUSH0 DUP3 PUSH2 0x6DB JUMP JUMPDEST PUSH1 0x1 DUP2 ADD SWAP1 POP PUSH2 0x6F4 JUMP JUMPDEST POP POP JUMP JUMPDEST PUSH1 0x1F DUP3 GT ISZERO PUSH2 0x756 JUMPI PUSH2 0x727 DUP2 PUSH2 0x601 JUMP JUMPDEST PUSH2 0x730 DUP5 PUSH2 0x613 JUMP JUMPDEST DUP2 ADD PUSH1 0x20 DUP6 LT ISZERO PUSH2 0x73F JUMPI DUP2 SWAP1 POP JUMPDEST PUSH2 0x753 PUSH2 0x74B DUP6 PUSH2 0x613 JUMP JUMPDEST DUP4 ADD DUP3 PUSH2 0x6F3 JUMP JUMPDEST POP POP JUMPDEST POP POP POP JUMP JUMPDEST PUSH0 DUP3 DUP3 SHR SWAP1 POP SWAP3 SWAP2 POP POP JUMP JUMPDEST PUSH0 PUSH2 0x776 PUSH0 NOT DUP5 PUSH1 0x8 MUL PUSH2 0x75B JUMP JUMPDEST NOT DUP1 DUP4 AND SWAP2 POP POP SWAP3 SWAP2 POP POP JUMP JUMPDEST PUSH0 PUSH2 0x78E DUP4 DUP4 PUSH2 0x767 JUMP JUMPDEST SWAP2 POP DUP3 PUSH1 0x2 MUL DUP3 OR SWAP1 POP SWAP3 SWAP2 POP POP JUMP JUMPDEST PUSH2 0x7A7 DUP3 PUSH2 0x4DC JUMP JUMPDEST PUSH8 0xFFFFFFFFFFFFFFFF DUP2 GT ISZERO PUSH2 0x7C0 JUMPI PUSH2 0x7BF PUSH2 0x324 JUMP JUMPDEST JUMPDEST PUSH2 0x7CA DUP3 SLOAD PUSH2 0x5D1 JUMP JUMPDEST PUSH2 0x7D5 DUP3 DUP3 DUP6 PUSH2 0x715 JUMP JUMPDEST PUSH0 PUSH1 0x20 SWAP1 POP PUSH1 0x1F DUP4 GT PUSH1 0x1 DUP2 EQ PUSH2 0x806 JUMPI PUSH0 DUP5 ISZERO PUSH2 0x7F4 JUMPI DUP3 DUP8 ADD MLOAD SWAP1 POP JUMPDEST PUSH2 0x7FE DUP6 DUP3 PUSH2 0x783 JUMP JUMPDEST DUP7 SSTORE POP PUSH2 0x865 JUMP JUMPDEST PUSH1 0x1F NOT DUP5 AND PUSH2 0x814 DUP7 PUSH2 0x601 JUMP JUMPDEST PUSH0 JUMPDEST DUP3 DUP2 LT ISZERO PUSH2 0x83B JUMPI DUP5 DUP10 ADD MLOAD DUP3 SSTORE PUSH1 0x1 DUP3 ADD SWAP2 POP PUSH1 0x20 DUP6 ADD SWAP5 POP PUSH1 0x20 DUP2 ADD SWAP1 POP PUSH2 0x816 JUMP JUMPDEST DUP7 DUP4 LT ISZERO PUSH2 0x858 JUMPI DUP5 DUP10 ADD MLOAD PUSH2 0x854 PUSH1 0x1F DUP10 AND DUP3 PUSH2 0x767 JUMP JUMPDEST DUP4 SSTORE POP JUMPDEST PUSH1 0x1 PUSH1 0x2 DUP9 MUL ADD DUP9 SSTORE POP POP POP JUMPDEST POP POP POP POP POP POP JUMP INVALID LOG2 PUSH5 0x6970667358 0x22 SLT KECCAK256 STOP SWAP11 LOG0 BYTE MOD POP 0xD1 DUP11 0x23 0xC5 SWAP12 PUSH11 0xC3E74B2DEFE9859F76E5CB PUSH5 0xF020DE7310 0xF9 DELEGATECALL 0xD3 PUSH5 0x736F6C6343 STOP ADDMOD XOR STOP CALLER "
				},
				"gasEstimates": {
					"creation": {
						"codeDepositCost": "442200",
						"executionCost": "478",
						"totalCost": "442678"
					},
					"external": {
						"Update(uint256,string)": "infinite",
						"get(uint256)": "infinite",
						"setValue(uint256,string)": "infinite",
						"std(uint256)": "infinite"
					}
				},
				"methodIdentifiers": {
					"Update(uint256,string)": "54023f0b",
					"get(uint256)": "9507d39a",
					"setValue(uint256,string)": "9d1939db",
					"std(uint256)": "7e080d7e"
				}
			},
			"storageLayout": {
				"storage": [
					{
						"astId": 11,
						"contract": "contracts/Grading.sol:Student",
						"label": "std",
						"offset": 0,
						"slot": "0",
						"type": "t_mapping(t_uint256,t_struct(Grade)6_storage)"
					}
				],
				"types": {
					"t_mapping(t_uint256,t_struct(Grade)6_storage)": {
						"encoding": "mapping",
						"key": "t_uint256",
						"label": "mapping(uint256 => struct Student.Grade)",
						"numberOfBytes": "32",
						"value": "t_struct(Grade)6_storage"
					},
					"t_string_storage": {
						"encoding": "bytes",
						"label": "string",
						"numberOfBytes": "32"
					},
					"t_struct(Grade)6_storage": {
						"encoding": "inplace",
						"label": "struct Student.Grade",
						"members": [
							{
								"astId": 3,
								"contract": "contracts/Grading.sol:Student",
								"label": "id",
								"offset": 0,
								"slot": "0",
								"type": "t_uint256"
							},
							{
								"astId": 5,
								"contract": "contracts/Grading.sol:Student",
								"label": "grade",
								"offset": 0,
								"slot": "1",
								"type": "t_string_storage"
							}
						],
						"numberOfBytes": "64"
					},
					"t_uint256": {
						"encoding": "inplace",
						"label": "uint256",
						"numberOfBytes": "32"
					}
				}
			},
			"userdoc": {
				"kind": "user",
				"methods": {},
				"version": 1
			}
		}
	}
}