{
	"data": {
		"bytecode": {
			"linkReferences": {},
			"object": "608060405234801561000f575f80fd5b503360045f6101000a81548173ffffffffffffffffffffffffffffffffffffffff021916908373ffffffffffffffffffffffffffffffffffffffff160217905550610d2a8061005d5f395ff3fe608060405234801561000f575f80fd5b506004361061004a575f3560e01c8063272cc76a1461004e5780634fa519fa146100805780638da5cb5b1461008a578063b34fad41146100a8575b5f80fd5b6100686004803603810190610063919061083e565b6100c8565b60405161007793929190610941565b60405180910390f35b6100886101a2565b005b6100926106f2565b60405161009f919061097d565b60405180910390f35b6100b0610717565b6040516100bf93929190610941565b60405180910390f35b600381815481106100d7575f80fd5b905f5260205f2090600302015f91509050805f0180546100f6906109c3565b80601f0160208091040260200160405190810160405280929190818152602001828054610122906109c3565b801561016d5780601f106101445761010080835404028352916020019161016d565b820191905f5260205f20905b81548152906001019060200180831161015057829003601f168201915b505050505090806001015490806002015f9054906101000a900473ffffffffffffffffffffffffffffffffffffffff16905083565b3373ffffffffffffffffffffffffffffffffffffffff1660045f9054906101000a900473ffffffffffffffffffffffffffffffffffffffff1673ffffffffffffffffffffffffffffffffffffffff1614610231576040517f08c379a000000000000000000000000000000000000000000000000000000000815260040161022890610a3d565b60405180910390fd5b5f60405180606001604052806040518060400160405280600681526020017f417368697368000000000000000000000000000000000000000000000000000081525081526020016016815260200173dd870fa1b7c4700f2bd7f44238821c26f739214873ffffffffffffffffffffffffffffffffffffffff1681525090505f60405180606001604052806040518060400160405280600481526020017f416d697400000000000000000000000000000000000000000000000000000000815250815260200160168152602001738f1e386e2d3b8975445eb4476d6f80b24cae454073ffffffffffffffffffffffffffffffffffffffff1681525090506103356107d2565b6040518060400160405280600681526020017f52616d6573680000000000000000000000000000000000000000000000000000815250815f0181905250603881602001818152505073583031d1113ad414f02576bd6afabfb302140225816040019073ffffffffffffffffffffffffffffffffffffffff16908173ffffffffffffffffffffffffffffffffffffffff16815250505f60405180606001604052806040518060400160405280600781526020017f5368756268616d0000000000000000000000000000000000000000000000000081525081526020016020815260200173ca35b7d915458ef540ade6068dfe2f44e8fa733c73ffffffffffffffffffffffffffffffffffffffff168152509050805f80820151815f01908161045c9190610c25565b50602082015181600101556040820151816002015f6101000a81548173ffffffffffffffffffffffffffffffffffffffff021916908373ffffffffffffffffffffffffffffffffffffffff160217905550905050600384908060018154018082558091505060019003905f5260205f2090600302015f909190919091505f820151815f0190816104ec9190610c25565b50602082015181600101556040820151816002015f6101000a81548173ffffffffffffffffffffffffffffffffffffffff021916908373ffffffffffffffffffffffffffffffffffffffff1602179055505050600383908060018154018082558091505060019003905f5260205f2090600302015f909190919091505f820151815f01908161057b9190610c25565b50602082015181600101556040820151816002015f6101000a81548173ffffffffffffffffffffffffffffffffffffffff021916908373ffffffffffffffffffffffffffffffffffffffff1602179055505050600382908060018154018082558091505060019003905f5260205f2090600302015f909190919091505f820151815f01908161060a9190610c25565b50602082015181600101556040820151816002015f6101000a81548173ffffffffffffffffffffffffffffffffffffffff021916908373ffffffffffffffffffffffffffffffffffffffff1602179055505050600381908060018154018082558091505060019003905f5260205f2090600302015f909190919091505f820151815f0190816106999190610c25565b50602082015181600101556040820151816002015f6101000a81548173ffffffffffffffffffffffffffffffffffffffff021916908373ffffffffffffffffffffffffffffffffffffffff160217905550505050505050565b60045f9054906101000a900473ffffffffffffffffffffffffffffffffffffffff1681565b5f805f018054610726906109c3565b80601f0160208091040260200160405190810160405280929190818152602001828054610752906109c3565b801561079d5780601f106107745761010080835404028352916020019161079d565b820191905f5260205f20905b81548152906001019060200180831161078057829003601f168201915b505050505090806001015490806002015f9054906101000a900473ffffffffffffffffffffffffffffffffffffffff16905083565b6040518060600160405280606081526020015f81526020015f73ffffffffffffffffffffffffffffffffffffffff1681525090565b5f80fd5b5f819050919050565b61081d8161080b565b8114610827575f80fd5b50565b5f8135905061083881610814565b92915050565b5f6020828403121561085357610852610807565b5b5f6108608482850161082a565b91505092915050565b5f81519050919050565b5f82825260208201905092915050565b5f5b838110156108a0578082015181840152602081019050610885565b5f8484015250505050565b5f601f19601f8301169050919050565b5f6108c582610869565b6108cf8185610873565b93506108df818560208601610883565b6108e8816108ab565b840191505092915050565b6108fc8161080b565b82525050565b5f73ffffffffffffffffffffffffffffffffffffffff82169050919050565b5f61092b82610902565b9050919050565b61093b81610921565b82525050565b5f6060820190508181035f83015261095981866108bb565b905061096860208301856108f3565b6109756040830184610932565b949350505050565b5f6020820190506109905f830184610932565b92915050565b7f4e487b71000000000000000000000000000000000000000000000000000000005f52602260045260245ffd5b5f60028204905060018216806109da57607f821691505b6020821081036109ed576109ec610996565b5b50919050565b7f42686169205265616c20494420736520616100000000000000000000000000005f82015250565b5f610a27601283610873565b9150610a32826109f3565b602082019050919050565b5f6020820190508181035f830152610a5481610a1b565b9050919050565b7f4e487b71000000000000000000000000000000000000000000000000000000005f52604160045260245ffd5b5f819050815f5260205f209050919050565b5f6020601f8301049050919050565b5f82821b905092915050565b5f60088302610ae47fffffffffffffffffffffffffffffffffffffffffffffffffffffffffffffffff82610aa9565b610aee8683610aa9565b95508019841693508086168417925050509392505050565b5f819050919050565b5f610b29610b24610b1f8461080b565b610b06565b61080b565b9050919050565b5f819050919050565b610b4283610b0f565b610b56610b4e82610b30565b848454610ab5565b825550505050565b5f90565b610b6a610b5e565b610b75818484610b39565b505050565b5b81811015610b9857610b8d5f82610b62565b600181019050610b7b565b5050565b601f821115610bdd57610bae81610a88565b610bb784610a9a565b81016020851015610bc6578190505b610bda610bd285610a9a565b830182610b7a565b50505b505050565b5f82821c905092915050565b5f610bfd5f1984600802610be2565b1980831691505092915050565b5f610c158383610bee565b9150826002028217905092915050565b610c2e82610869565b67ffffffffffffffff811115610c4757610c46610a5b565b5b610c5182546109c3565b610c5c828285610b9c565b5f60209050601f831160018114610c8d575f8415610c7b578287015190505b610c858582610c0a565b865550610cec565b601f198416610c9b86610a88565b5f5b82811015610cc257848901518255600182019150602085019450602081019050610c9d565b86831015610cdf5784890151610cdb601f891682610bee565b8355505b6001600288020188555050505b50505050505056fea2646970667358221220ed67fb4063df151f7e70c2fc40210d37137177ffcfdb4442880113bee263539c64736f6c63430008180033",
			"opcodes": "PUSH1 0x80 PUSH1 0x40 MSTORE CALLVALUE DUP1 ISZERO PUSH2 0xF JUMPI PUSH0 DUP1 REVERT JUMPDEST POP CALLER PUSH1 0x4 PUSH0 PUSH2 0x100 EXP DUP2 SLOAD DUP2 PUSH20 0xFFFFFFFFFFFFFFFFFFFFFFFFFFFFFFFFFFFFFFFF MUL NOT AND SWAP1 DUP4 PUSH20 0xFFFFFFFFFFFFFFFFFFFFFFFFFFFFFFFFFFFFFFFF AND MUL OR SWAP1 SSTORE POP PUSH2 0xD2A DUP1 PUSH2 0x5D PUSH0 CODECOPY PUSH0 RETURN INVALID PUSH1 0x80 PUSH1 0x40 MSTORE CALLVALUE DUP1 ISZERO PUSH2 0xF JUMPI PUSH0 DUP1 REVERT JUMPDEST POP PUSH1 0x4 CALLDATASIZE LT PUSH2 0x4A JUMPI PUSH0 CALLDATALOAD PUSH1 0xE0 SHR DUP1 PUSH4 0x272CC76A EQ PUSH2 0x4E JUMPI DUP1 PUSH4 0x4FA519FA EQ PUSH2 0x80 JUMPI DUP1 PUSH4 0x8DA5CB5B EQ PUSH2 0x8A JUMPI DUP1 PUSH4 0xB34FAD41 EQ PUSH2 0xA8 JUMPI JUMPDEST PUSH0 DUP1 REVERT JUMPDEST PUSH2 0x68 PUSH1 0x4 DUP1 CALLDATASIZE SUB DUP2 ADD SWAP1 PUSH2 0x63 SWAP2 SWAP1 PUSH2 0x83E JUMP JUMPDEST PUSH2 0xC8 JUMP JUMPDEST PUSH1 0x40 MLOAD PUSH2 0x77 SWAP4 SWAP3 SWAP2 SWAP1 PUSH2 0x941 JUMP JUMPDEST PUSH1 0x40 MLOAD DUP1 SWAP2 SUB SWAP1 RETURN JUMPDEST PUSH2 0x88 PUSH2 0x1A2 JUMP JUMPDEST STOP JUMPDEST PUSH2 0x92 PUSH2 0x6F2 JUMP JUMPDEST PUSH1 0x40 MLOAD PUSH2 0x9F SWAP2 SWAP1 PUSH2 0x97D JUMP JUMPDEST PUSH1 0x40 MLOAD DUP1 SWAP2 SUB SWAP1 RETURN JUMPDEST PUSH2 0xB0 PUSH2 0x717 JUMP JUMPDEST PUSH1 0x40 MLOAD PUSH2 0xBF SWAP4 SWAP3 SWAP2 SWAP1 PUSH2 0x941 JUMP JUMPDEST PUSH1 0x40 MLOAD DUP1 SWAP2 SUB SWAP1 RETURN JUMPDEST PUSH1 0x3 DUP2 DUP2 SLOAD DUP2 LT PUSH2 0xD7 JUMPI PUSH0 DUP1 REVERT JUMPDEST SWAP1 PUSH0 MSTORE PUSH1 0x20 PUSH0 KECCAK256 SWAP1 PUSH1 0x3 MUL ADD PUSH0 SWAP2 POP SWAP1 POP DUP1 PUSH0 ADD DUP1 SLOAD PUSH2 0xF6 SWAP1 PUSH2 0x9C3 JUMP JUMPDEST DUP1 PUSH1 0x1F ADD PUSH1 0x20 DUP1 SWAP2 DIV MUL PUSH1 0x20 ADD PUSH1 0x40 MLOAD SWAP1 DUP2 ADD PUSH1 0x40 MSTORE DUP1 SWAP3 SWAP2 SWAP1 DUP2 DUP2 MSTORE PUSH1 0x20 ADD DUP3 DUP1 SLOAD PUSH2 0x122 SWAP1 PUSH2 0x9C3 JUMP JUMPDEST DUP1 ISZERO PUSH2 0x16D JUMPI DUP1 PUSH1 0x1F LT PUSH2 0x144 JUMPI PUSH2 0x100 DUP1 DUP4 SLOAD DIV MUL DUP4 MSTORE SWAP2 PUSH1 0x20 ADD SWAP2 PUSH2 0x16D JUMP JUMPDEST DUP3 ADD SWAP2 SWAP1 PUSH0 MSTORE PUSH1 0x20 PUSH0 KECCAK256 SWAP1 JUMPDEST DUP2 SLOAD DUP2 MSTORE SWAP1 PUSH1 0x1 ADD SWAP1 PUSH1 0x20 ADD DUP1 DUP4 GT PUSH2 0x150 JUMPI DUP3 SWAP1 SUB PUSH1 0x1F AND DUP3 ADD SWAP2 JUMPDEST POP POP POP POP POP SWAP1 DUP1 PUSH1 0x1 ADD SLOAD SWAP1 DUP1 PUSH1 0x2 ADD PUSH0 SWAP1 SLOAD SWAP1 PUSH2 0x100 EXP SWAP1 DIV PUSH20 0xFFFFFFFFFFFFFFFFFFFFFFFFFFFFFFFFFFFFFFFF AND SWAP1 POP DUP4 JUMP JUMPDEST CALLER PUSH20 0xFFFFFFFFFFFFFFFFFFFFFFFFFFFFFFFFFFFFFFFF AND PUSH1 0x4 PUSH0 SWAP1 SLOAD SWAP1 PUSH2 0x100 EXP SWAP1 DIV PUSH20 0xFFFFFFFFFFFFFFFFFFFFFFFFFFFFFFFFFFFFFFFF AND PUSH20 0xFFFFFFFFFFFFFFFFFFFFFFFFFFFFFFFFFFFFFFFF AND EQ PUSH2 0x231 JUMPI PUSH1 0x40 MLOAD PUSH32 0x8C379A000000000000000000000000000000000000000000000000000000000 DUP2 MSTORE PUSH1 0x4 ADD PUSH2 0x228 SWAP1 PUSH2 0xA3D JUMP JUMPDEST PUSH1 0x40 MLOAD DUP1 SWAP2 SUB SWAP1 REVERT JUMPDEST PUSH0 PUSH1 0x40 MLOAD DUP1 PUSH1 0x60 ADD PUSH1 0x40 MSTORE DUP1 PUSH1 0x40 MLOAD DUP1 PUSH1 0x40 ADD PUSH1 0x40 MSTORE DUP1 PUSH1 0x6 DUP2 MSTORE PUSH1 0x20 ADD PUSH32 0x4173686973680000000000000000000000000000000000000000000000000000 DUP2 MSTORE POP DUP2 MSTORE PUSH1 0x20 ADD PUSH1 0x16 DUP2 MSTORE PUSH1 0x20 ADD PUSH20 0xDD870FA1B7C4700F2BD7F44238821C26F7392148 PUSH20 0xFFFFFFFFFFFFFFFFFFFFFFFFFFFFFFFFFFFFFFFF AND DUP2 MSTORE POP SWAP1 POP PUSH0 PUSH1 0x40 MLOAD DUP1 PUSH1 0x60 ADD PUSH1 0x40 MSTORE DUP1 PUSH1 0x40 MLOAD DUP1 PUSH1 0x40 ADD PUSH1 0x40 MSTORE DUP1 PUSH1 0x4 DUP2 MSTORE PUSH1 0x20 ADD PUSH32 0x416D697400000000000000000000000000000000000000000000000000000000 DUP2 MSTORE POP DUP2 MSTORE PUSH1 0x20 ADD PUSH1 0x16 DUP2 MSTORE PUSH1 0x20 ADD PUSH20 0x8F1E386E2D3B8975445EB4476D6F80B24CAE4540 PUSH20 0xFFFFFFFFFFFFFFFFFFFFFFFFFFFFFFFFFFFFFFFF AND DUP2 MSTORE POP SWAP1 POP PUSH2 0x335 PUSH2 0x7D2 JUMP JUMPDEST PUSH1 0x40 MLOAD DUP1 PUSH1 0x40 ADD PUSH1 0x40 MSTORE DUP1 PUSH1 0x6 DUP2 MSTORE PUSH1 0x20 ADD PUSH32 0x52616D6573680000000000000000000000000000000000000000000000000000 DUP2 MSTORE POP DUP2 PUSH0 ADD DUP2 SWAP1 MSTORE POP PUSH1 0x38 DUP2 PUSH1 0x20 ADD DUP2 DUP2 MSTORE POP POP PUSH20 0x583031D1113AD414F02576BD6AFABFB302140225 DUP2 PUSH1 0x40 ADD SWAP1 PUSH20 0xFFFFFFFFFFFFFFFFFFFFFFFFFFFFFFFFFFFFFFFF AND SWAP1 DUP2 PUSH20 0xFFFFFFFFFFFFFFFFFFFFFFFFFFFFFFFFFFFFFFFF AND DUP2 MSTORE POP POP PUSH0 PUSH1 0x40 MLOAD DUP1 PUSH1 0x60 ADD PUSH1 0x40 MSTORE DUP1 PUSH1 0x40 MLOAD DUP1 PUSH1 0x40 ADD PUSH1 0x40 MSTORE DUP1 PUSH1 0x7 DUP2 MSTORE PUSH1 0x20 ADD PUSH32 0x5368756268616D00000000000000000000000000000000000000000000000000 DUP2 MSTORE POP DUP2 MSTORE PUSH1 0x20 ADD PUSH1 0x20 DUP2 MSTORE PUSH1 0x20 ADD PUSH20 0xCA35B7D915458EF540ADE6068DFE2F44E8FA733C PUSH20 0xFFFFFFFFFFFFFFFFFFFFFFFFFFFFFFFFFFFFFFFF AND DUP2 MSTORE POP SWAP1 POP DUP1 PUSH0 DUP1 DUP3 ADD MLOAD DUP2 PUSH0 ADD SWAP1 DUP2 PUSH2 0x45C SWAP2 SWAP1 PUSH2 0xC25 JUMP JUMPDEST POP PUSH1 0x20 DUP3 ADD MLOAD DUP2 PUSH1 0x1 ADD SSTORE PUSH1 0x40 DUP3 ADD MLOAD DUP2 PUSH1 0x2 ADD PUSH0 PUSH2 0x100 EXP DUP2 SLOAD DUP2 PUSH20 0xFFFFFFFFFFFFFFFFFFFFFFFFFFFFFFFFFFFFFFFF MUL NOT AND SWAP1 DUP4 PUSH20 0xFFFFFFFFFFFFFFFFFFFFFFFFFFFFFFFFFFFFFFFF AND MUL OR SWAP1 SSTORE POP SWAP1 POP POP PUSH1 0x3 DUP5 SWAP1 DUP1 PUSH1 0x1 DUP2 SLOAD ADD DUP1 DUP3 SSTORE DUP1 SWAP2 POP POP PUSH1 0x1 SWAP1 SUB SWAP1 PUSH0 MSTORE PUSH1 0x20 PUSH0 KECCAK256 SWAP1 PUSH1 0x3 MUL ADD PUSH0 SWAP1 SWAP2 SWAP1 SWAP2 SWAP1 SWAP2 POP PUSH0 DUP3 ADD MLOAD DUP2 PUSH0 ADD SWAP1 DUP2 PUSH2 0x4EC SWAP2 SWAP1 PUSH2 0xC25 JUMP JUMPDEST POP PUSH1 0x20 DUP3 ADD MLOAD DUP2 PUSH1 0x1 ADD SSTORE PUSH1 0x40 DUP3 ADD MLOAD DUP2 PUSH1 0x2 ADD PUSH0 PUSH2 0x100 EXP DUP2 SLOAD DUP2 PUSH20 0xFFFFFFFFFFFFFFFFFFFFFFFFFFFFFFFFFFFFFFFF MUL NOT AND SWAP1 DUP4 PUSH20 0xFFFFFFFFFFFFFFFFFFFFFFFFFFFFFFFFFFFFFFFF AND MUL OR SWAP1 SSTORE POP POP POP PUSH1 0x3 DUP4 SWAP1 DUP1 PUSH1 0x1 DUP2 SLOAD ADD DUP1 DUP3 SSTORE DUP1 SWAP2 POP POP PUSH1 0x1 SWAP1 SUB SWAP1 PUSH0 MSTORE PUSH1 0x20 PUSH0 KECCAK256 SWAP1 PUSH1 0x3 MUL ADD PUSH0 SWAP1 SWAP2 SWAP1 SWAP2 SWAP1 SWAP2 POP PUSH0 DUP3 ADD MLOAD DUP2 PUSH0 ADD SWAP1 DUP2 PUSH2 0x57B SWAP2 SWAP1 PUSH2 0xC25 JUMP JUMPDEST POP PUSH1 0x20 DUP3 ADD MLOAD DUP2 PUSH1 0x1 ADD SSTORE PUSH1 0x40 DUP3 ADD MLOAD DUP2 PUSH1 0x2 ADD PUSH0 PUSH2 0x100 EXP DUP2 SLOAD DUP2 PUSH20 0xFFFFFFFFFFFFFFFFFFFFFFFFFFFFFFFFFFFFFFFF MUL NOT AND SWAP1 DUP4 PUSH20 0xFFFFFFFFFFFFFFFFFFFFFFFFFFFFFFFFFFFFFFFF AND MUL OR SWAP1 SSTORE POP POP POP PUSH1 0x3 DUP3 SWAP1 DUP1 PUSH1 0x1 DUP2 SLOAD ADD DUP1 DUP3 SSTORE DUP1 SWAP2 POP POP PUSH1 0x1 SWAP1 SUB SWAP1 PUSH0 MSTORE PUSH1 0x20 PUSH0 KECCAK256 SWAP1 PUSH1 0x3 MUL ADD PUSH0 SWAP1 SWAP2 SWAP1 SWAP2 SWAP1 SWAP2 POP PUSH0 DUP3 ADD MLOAD DUP2 PUSH0 ADD SWAP1 DUP2 PUSH2 0x60A SWAP2 SWAP1 PUSH2 0xC25 JUMP JUMPDEST POP PUSH1 0x20 DUP3 ADD MLOAD DUP2 PUSH1 0x1 ADD SSTORE PUSH1 0x40 DUP3 ADD MLOAD DUP2 PUSH1 0x2 ADD PUSH0 PUSH2 0x100 EXP DUP2 SLOAD DUP2 PUSH20 0xFFFFFFFFFFFFFFFFFFFFFFFFFFFFFFFFFFFFFFFF MUL NOT AND SWAP1 DUP4 PUSH20 0xFFFFFFFFFFFFFFFFFFFFFFFFFFFFFFFFFFFFFFFF AND MUL OR SWAP1 SSTORE POP POP POP PUSH1 0x3 DUP2 SWAP1 DUP1 PUSH1 0x1 DUP2 SLOAD ADD DUP1 DUP3 SSTORE DUP1 SWAP2 POP POP PUSH1 0x1 SWAP1 SUB SWAP1 PUSH0 MSTORE PUSH1 0x20 PUSH0 KECCAK256 SWAP1 PUSH1 0x3 MUL ADD PUSH0 SWAP1 SWAP2 SWAP1 SWAP2 SWAP1 SWAP2 POP PUSH0 DUP3 ADD MLOAD DUP2 PUSH0 ADD SWAP1 DUP2 PUSH2 0x699 SWAP2 SWAP1 PUSH2 0xC25 JUMP JUMPDEST POP PUSH1 0x20 DUP3 ADD MLOAD DUP2 PUSH1 0x1 ADD SSTORE PUSH1 0x40 DUP3 ADD MLOAD DUP2 PUSH1 0x2 ADD PUSH0 PUSH2 0x100 EXP DUP2 SLOAD DUP2 PUSH20 0xFFFFFFFFFFFFFFFFFFFFFFFFFFFFFFFFFFFFFFFF MUL NOT AND SWAP1 DUP4 PUSH20 0xFFFFFFFFFFFFFFFFFFFFFFFFFFFFFFFFFFFFFFFF AND MUL OR SWAP1 SSTORE POP POP POP POP POP POP POP JUMP JUMPDEST PUSH1 0x4 PUSH0 SWAP1 SLOAD SWAP1 PUSH2 0x100 EXP SWAP1 DIV PUSH20 0xFFFFFFFFFFFFFFFFFFFFFFFFFFFFFFFFFFFFFFFF AND DUP2 JUMP JUMPDEST PUSH0 DUP1 PUSH0 ADD DUP1 SLOAD PUSH2 0x726 SWAP1 PUSH2 0x9C3 JUMP JUMPDEST DUP1 PUSH1 0x1F ADD PUSH1 0x20 DUP1 SWAP2 DIV MUL PUSH1 0x20 ADD PUSH1 0x40 MLOAD SWAP1 DUP2 ADD PUSH1 0x40 MSTORE DUP1 SWAP3 SWAP2 SWAP1 DUP2 DUP2 MSTORE PUSH1 0x20 ADD DUP3 DUP1 SLOAD PUSH2 0x752 SWAP1 PUSH2 0x9C3 JUMP JUMPDEST DUP1 ISZERO PUSH2 0x79D JUMPI DUP1 PUSH1 0x1F LT PUSH2 0x774 JUMPI PUSH2 0x100 DUP1 DUP4 SLOAD DIV MUL DUP4 MSTORE SWAP2 PUSH1 0x20 ADD SWAP2 PUSH2 0x79D JUMP JUMPDEST DUP3 ADD SWAP2 SWAP1 PUSH0 MSTORE PUSH1 0x20 PUSH0 KECCAK256 SWAP1 JUMPDEST DUP2 SLOAD DUP2 MSTORE SWAP1 PUSH1 0x1 ADD SWAP1 PUSH1 0x20 ADD DUP1 DUP4 GT PUSH2 0x780 JUMPI DUP3 SWAP1 SUB PUSH1 0x1F AND DUP3 ADD SWAP2 JUMPDEST POP POP POP POP POP SWAP1 DUP1 PUSH1 0x1 ADD SLOAD SWAP1 DUP1 PUSH1 0x2 ADD PUSH0 SWAP1 SLOAD SWAP1 PUSH2 0x100 EXP SWAP1 DIV PUSH20 0xFFFFFFFFFFFFFFFFFFFFFFFFFFFFFFFFFFFFFFFF AND SWAP1 POP DUP4 JUMP JUMPDEST PUSH1 0x40 MLOAD DUP1 PUSH1 0x60 ADD PUSH1 0x40 MSTORE DUP1 PUSH1 0x60 DUP2 MSTORE PUSH1 0x20 ADD PUSH0 DUP2 MSTORE PUSH1 0x20 ADD PUSH0 PUSH20 0xFFFFFFFFFFFFFFFFFFFFFFFFFFFFFFFFFFFFFFFF AND DUP2 MSTORE POP SWAP1 JUMP JUMPDEST PUSH0 DUP1 REVERT JUMPDEST PUSH0 DUP2 SWAP1 POP SWAP2 SWAP1 POP JUMP JUMPDEST PUSH2 0x81D DUP2 PUSH2 0x80B JUMP JUMPDEST DUP2 EQ PUSH2 0x827 JUMPI PUSH0 DUP1 REVERT JUMPDEST POP JUMP JUMPDEST PUSH0 DUP2 CALLDATALOAD SWAP1 POP PUSH2 0x838 DUP2 PUSH2 0x814 JUMP JUMPDEST SWAP3 SWAP2 POP POP JUMP JUMPDEST PUSH0 PUSH1 0x20 DUP3 DUP5 SUB SLT ISZERO PUSH2 0x853 JUMPI PUSH2 0x852 PUSH2 0x807 JUMP JUMPDEST JUMPDEST PUSH0 PUSH2 0x860 DUP5 DUP3 DUP6 ADD PUSH2 0x82A JUMP JUMPDEST SWAP2 POP POP SWAP3 SWAP2 POP POP JUMP JUMPDEST PUSH0 DUP2 MLOAD SWAP1 POP SWAP2 SWAP1 POP JUMP JUMPDEST PUSH0 DUP3 DUP3 MSTORE PUSH1 0x20 DUP3 ADD SWAP1 POP SWAP3 SWAP2 POP POP JUMP JUMPDEST PUSH0 JUMPDEST DUP4 DUP2 LT ISZERO PUSH2 0x8A0 JUMPI DUP1 DUP3 ADD MLOAD DUP2 DUP5 ADD MSTORE PUSH1 0x20 DUP2 ADD SWAP1 POP PUSH2 0x885 JUMP JUMPDEST PUSH0 DUP5 DUP5 ADD MSTORE POP POP POP POP JUMP JUMPDEST PUSH0 PUSH1 0x1F NOT PUSH1 0x1F DUP4 ADD AND SWAP1 POP SWAP2 SWAP1 POP JUMP JUMPDEST PUSH0 PUSH2 0x8C5 DUP3 PUSH2 0x869 JUMP JUMPDEST PUSH2 0x8CF DUP2 DUP6 PUSH2 0x873 JUMP JUMPDEST SWAP4 POP PUSH2 0x8DF DUP2 DUP6 PUSH1 0x20 DUP7 ADD PUSH2 0x883 JUMP JUMPDEST PUSH2 0x8E8 DUP2 PUSH2 0x8AB JUMP JUMPDEST DUP5 ADD SWAP2 POP POP SWAP3 SWAP2 POP POP JUMP JUMPDEST PUSH2 0x8FC DUP2 PUSH2 0x80B JUMP JUMPDEST DUP3 MSTORE POP POP JUMP JUMPDEST PUSH0 PUSH20 0xFFFFFFFFFFFFFFFFFFFFFFFFFFFFFFFFFFFFFFFF DUP3 AND SWAP1 POP SWAP2 SWAP1 POP JUMP JUMPDEST PUSH0 PUSH2 0x92B DUP3 PUSH2 0x902 JUMP JUMPDEST SWAP1 POP SWAP2 SWAP1 POP JUMP JUMPDEST PUSH2 0x93B DUP2 PUSH2 0x921 JUMP JUMPDEST DUP3 MSTORE POP POP JUMP JUMPDEST PUSH0 PUSH1 0x60 DUP3 ADD SWAP1 POP DUP2 DUP2 SUB PUSH0 DUP4 ADD MSTORE PUSH2 0x959 DUP2 DUP7 PUSH2 0x8BB JUMP JUMPDEST SWAP1 POP PUSH2 0x968 PUSH1 0x20 DUP4 ADD DUP6 PUSH2 0x8F3 JUMP JUMPDEST PUSH2 0x975 PUSH1 0x40 DUP4 ADD DUP5 PUSH2 0x932 JUMP JUMPDEST SWAP5 SWAP4 POP POP POP POP JUMP JUMPDEST PUSH0 PUSH1 0x20 DUP3 ADD SWAP1 POP PUSH2 0x990 PUSH0 DUP4 ADD DUP5 PUSH2 0x932 JUMP JUMPDEST SWAP3 SWAP2 POP POP JUMP JUMPDEST PUSH32 0x4E487B7100000000000000000000000000000000000000000000000000000000 PUSH0 MSTORE PUSH1 0x22 PUSH1 0x4 MSTORE PUSH1 0x24 PUSH0 REVERT JUMPDEST PUSH0 PUSH1 0x2 DUP3 DIV SWAP1 POP PUSH1 0x1 DUP3 AND DUP1 PUSH2 0x9DA JUMPI PUSH1 0x7F DUP3 AND SWAP2 POP JUMPDEST PUSH1 0x20 DUP3 LT DUP2 SUB PUSH2 0x9ED JUMPI PUSH2 0x9EC PUSH2 0x996 JUMP JUMPDEST JUMPDEST POP SWAP2 SWAP1 POP JUMP JUMPDEST PUSH32 0x42686169205265616C2049442073652061610000000000000000000000000000 PUSH0 DUP3 ADD MSTORE POP JUMP JUMPDEST PUSH0 PUSH2 0xA27 PUSH1 0x12 DUP4 PUSH2 0x873 JUMP JUMPDEST SWAP2 POP PUSH2 0xA32 DUP3 PUSH2 0x9F3 JUMP JUMPDEST PUSH1 0x20 DUP3 ADD SWAP1 POP SWAP2 SWAP1 POP JUMP JUMPDEST PUSH0 PUSH1 0x20 DUP3 ADD SWAP1 POP DUP2 DUP2 SUB PUSH0 DUP4 ADD MSTORE PUSH2 0xA54 DUP2 PUSH2 0xA1B JUMP JUMPDEST SWAP1 POP SWAP2 SWAP1 POP JUMP JUMPDEST PUSH32 0x4E487B7100000000000000000000000000000000000000000000000000000000 PUSH0 MSTORE PUSH1 0x41 PUSH1 0x4 MSTORE PUSH1 0x24 PUSH0 REVERT JUMPDEST PUSH0 DUP2 SWAP1 POP DUP2 PUSH0 MSTORE PUSH1 0x20 PUSH0 KECCAK256 SWAP1 POP SWAP2 SWAP1 POP JUMP JUMPDEST PUSH0 PUSH1 0x20 PUSH1 0x1F DUP4 ADD DIV SWAP1 POP SWAP2 SWAP1 POP JUMP JUMPDEST PUSH0 DUP3 DUP3 SHL SWAP1 POP SWAP3 SWAP2 POP POP JUMP JUMPDEST PUSH0 PUSH1 0x8 DUP4 MUL PUSH2 0xAE4 PUSH32 0xFFFFFFFFFFFFFFFFFFFFFFFFFFFFFFFFFFFFFFFFFFFFFFFFFFFFFFFFFFFFFFFF DUP3 PUSH2 0xAA9 JUMP JUMPDEST PUSH2 0xAEE DUP7 DUP4 PUSH2 0xAA9 JUMP JUMPDEST SWAP6 POP DUP1 NOT DUP5 AND SWAP4 POP DUP1 DUP7 AND DUP5 OR SWAP3 POP POP POP SWAP4 SWAP3 POP POP POP JUMP JUMPDEST PUSH0 DUP2 SWAP1 POP SWAP2 SWAP1 POP JUMP JUMPDEST PUSH0 PUSH2 0xB29 PUSH2 0xB24 PUSH2 0xB1F DUP5 PUSH2 0x80B JUMP JUMPDEST PUSH2 0xB06 JUMP JUMPDEST PUSH2 0x80B JUMP JUMPDEST SWAP1 POP SWAP2 SWAP1 POP JUMP JUMPDEST PUSH0 DUP2 SWAP1 POP SWAP2 SWAP1 POP JUMP JUMPDEST PUSH2 0xB42 DUP4 PUSH2 0xB0F JUMP JUMPDEST PUSH2 0xB56 PUSH2 0xB4E DUP3 PUSH2 0xB30 JUMP JUMPDEST DUP5 DUP5 SLOAD PUSH2 0xAB5 JUMP JUMPDEST DUP3 SSTORE POP POP POP POP JUMP JUMPDEST PUSH0 SWAP1 JUMP JUMPDEST PUSH2 0xB6A PUSH2 0xB5E JUMP JUMPDEST PUSH2 0xB75 DUP2 DUP5 DUP5 PUSH2 0xB39 JUMP JUMPDEST POP POP POP JUMP JUMPDEST JUMPDEST DUP2 DUP2 LT ISZERO PUSH2 0xB98 JUMPI PUSH2 0xB8D PUSH0 DUP3 PUSH2 0xB62 JUMP JUMPDEST PUSH1 0x1 DUP2 ADD SWAP1 POP PUSH2 0xB7B JUMP JUMPDEST POP POP JUMP JUMPDEST PUSH1 0x1F DUP3 GT ISZERO PUSH2 0xBDD JUMPI PUSH2 0xBAE DUP2 PUSH2 0xA88 JUMP JUMPDEST PUSH2 0xBB7 DUP5 PUSH2 0xA9A JUMP JUMPDEST DUP2 ADD PUSH1 0x20 DUP6 LT ISZERO PUSH2 0xBC6 JUMPI DUP2 SWAP1 POP JUMPDEST PUSH2 0xBDA PUSH2 0xBD2 DUP6 PUSH2 0xA9A JUMP JUMPDEST DUP4 ADD DUP3 PUSH2 0xB7A JUMP JUMPDEST POP POP JUMPDEST POP POP POP JUMP JUMPDEST PUSH0 DUP3 DUP3 SHR SWAP1 POP SWAP3 SWAP2 POP POP JUMP JUMPDEST PUSH0 PUSH2 0xBFD PUSH0 NOT DUP5 PUSH1 0x8 MUL PUSH2 0xBE2 JUMP JUMPDEST NOT DUP1 DUP4 AND SWAP2 POP POP SWAP3 SWAP2 POP POP JUMP JUMPDEST PUSH0 PUSH2 0xC15 DUP4 DUP4 PUSH2 0xBEE JUMP JUMPDEST SWAP2 POP DUP3 PUSH1 0x2 MUL DUP3 OR SWAP1 POP SWAP3 SWAP2 POP POP JUMP JUMPDEST PUSH2 0xC2E DUP3 PUSH2 0x869 JUMP JUMPDEST PUSH8 0xFFFFFFFFFFFFFFFF DUP2 GT ISZERO PUSH2 0xC47 JUMPI PUSH2 0xC46 PUSH2 0xA5B JUMP JUMPDEST JUMPDEST PUSH2 0xC51 DUP3 SLOAD PUSH2 0x9C3 JUMP JUMPDEST PUSH2 0xC5C DUP3 DUP3 DUP6 PUSH2 0xB9C JUMP JUMPDEST PUSH0 PUSH1 0x20 SWAP1 POP PUSH1 0x1F DUP4 GT PUSH1 0x1 DUP2 EQ PUSH2 0xC8D JUMPI PUSH0 DUP5 ISZERO PUSH2 0xC7B JUMPI DUP3 DUP8 ADD MLOAD SWAP1 POP JUMPDEST PUSH2 0xC85 DUP6 DUP3 PUSH2 0xC0A JUMP JUMPDEST DUP7 SSTORE POP PUSH2 0xCEC JUMP JUMPDEST PUSH1 0x1F NOT DUP5 AND PUSH2 0xC9B DUP7 PUSH2 0xA88 JUMP JUMPDEST PUSH0 JUMPDEST DUP3 DUP2 LT ISZERO PUSH2 0xCC2 JUMPI DUP5 DUP10 ADD MLOAD DUP3 SSTORE PUSH1 0x1 DUP3 ADD SWAP2 POP PUSH1 0x20 DUP6 ADD SWAP5 POP PUSH1 0x20 DUP2 ADD SWAP1 POP PUSH2 0xC9D JUMP JUMPDEST DUP7 DUP4 LT ISZERO PUSH2 0xCDF JUMPI DUP5 DUP10 ADD MLOAD PUSH2 0xCDB PUSH1 0x1F DUP10 AND DUP3 PUSH2 0xBEE JUMP JUMPDEST DUP4 SSTORE POP JUMPDEST PUSH1 0x1 PUSH1 0x2 DUP9 MUL ADD DUP9 SSTORE POP POP POP JUMPDEST POP POP POP POP POP POP JUMP INVALID LOG2 PUSH5 0x6970667358 0x22 SLT KECCAK256 0xED PUSH8 0xFB4063DF151F7E70 0xC2 0xFC BLOCKHASH 0x21 0xD CALLDATACOPY SGT PUSH18 0x77FFCFDB4442880113BEE263539C64736F6C PUSH4 0x43000818 STOP CALLER "
		},
		"gasEstimates": {
			"creation": {
				"codeDepositCost": "674000",
				"executionCost": "24971",
				"totalCost": "698971"
			},
			"external": {
				"emp()": "infinite",
				"empData(uint256)": "infinite",
				"owner()": "2530",
				"setValue()": "infinite"
			}
		},
		"methodIdentifiers": {
			"emp()": "b34fad41",
			"empData(uint256)": "272cc76a",
			"owner()": "8da5cb5b",
			"setValue()": "4fa519fa"
		}
	},
	"abi": [
		{
			"inputs": [],
			"stateMutability": "nonpayable",
			"type": "constructor"
		},
		{
			"inputs": [],
			"name": "emp",
			"outputs": [
				{
					"internalType": "string",
					"name": "name",
					"type": "string"
				},
				{
					"internalType": "uint256",
					"name": "age",
					"type": "uint256"
				},
				{
					"internalType": "address",
					"name": "addr",
					"type": "address"
				}
			],
			"stateMutability": "view",
			"type": "function"
		},
		{
			"inputs": [
				{
					"internalType": "uint256",
					"name": "",
					"type": "uint256"
				}
			],
			"name": "empData",
			"outputs": [
				{
					"internalType": "string",
					"name": "name",
					"type": "string"
				},
				{
					"internalType": "uint256",
					"name": "age",
					"type": "uint256"
				},
				{
					"internalType": "address",
					"name": "addr",
					"type": "address"
				}
			],
			"stateMutability": "view",
			"type": "function"
		},
		{
			"inputs": [],
			"name": "owner",
			"outputs": [
				{
					"internalType": "address",
					"name": "",
					"type": "address"
				}
			],
			"stateMutability": "view",
			"type": "function"
		},
		{
			"inputs": [],
			"name": "setValue",
			"outputs": [],
			"stateMutability": "nonpayable",
			"type": "function"
		}
	]
}