{
	"data": {
		"bytecode": {
			"linkReferences": {},
			"object": "608060405234801561000f575f80fd5b5061025e8061001d5f395ff3fe608060405234801561000f575f80fd5b506004361061003f575f3560e01c80634cee7fc914610043578063d7c98a9e1461005f578063e1e0485e14610090575b5f80fd5b61005d60048036038101906100589190610170565b6100c0565b005b610079600480360381019061007491906101ae565b6100fe565b6040516100879291906101e8565b60405180910390f35b6100aa60048036038101906100a591906101ae565b61011d565b6040516100b7919061020f565b60405180910390f35b6040518060400160405280838152602001828152505f808481526020019081526020015f205f820151815f0155602082015181600101559050505050565b5f602052805f5260405f205f91509050805f0154908060010154905082565b5f805f8381526020019081526020015f20600101549050919050565b5f80fd5b5f819050919050565b61014f8161013d565b8114610159575f80fd5b50565b5f8135905061016a81610146565b92915050565b5f806040838503121561018657610185610139565b5b5f6101938582860161015c565b92505060206101a48582860161015c565b9150509250929050565b5f602082840312156101c3576101c2610139565b5b5f6101d08482850161015c565b91505092915050565b6101e28161013d565b82525050565b5f6040820190506101fb5f8301856101d9565b61020860208301846101d9565b9392505050565b5f6020820190506102225f8301846101d9565b9291505056fea26469706673582212206398038dd02b04515d6dbfe31d7aec0d4f750cf8f9ed98cf4e57b21b2fac6b4864736f6c63430008180033",
			"opcodes": "PUSH1 0x80 PUSH1 0x40 MSTORE CALLVALUE DUP1 ISZERO PUSH2 0xF JUMPI PUSH0 DUP1 REVERT JUMPDEST POP PUSH2 0x25E DUP1 PUSH2 0x1D PUSH0 CODECOPY PUSH0 RETURN INVALID PUSH1 0x80 PUSH1 0x40 MSTORE CALLVALUE DUP1 ISZERO PUSH2 0xF JUMPI PUSH0 DUP1 REVERT JUMPDEST POP PUSH1 0x4 CALLDATASIZE LT PUSH2 0x3F JUMPI PUSH0 CALLDATALOAD PUSH1 0xE0 SHR DUP1 PUSH4 0x4CEE7FC9 EQ PUSH2 0x43 JUMPI DUP1 PUSH4 0xD7C98A9E EQ PUSH2 0x5F JUMPI DUP1 PUSH4 0xE1E0485E EQ PUSH2 0x90 JUMPI JUMPDEST PUSH0 DUP1 REVERT JUMPDEST PUSH2 0x5D PUSH1 0x4 DUP1 CALLDATASIZE SUB DUP2 ADD SWAP1 PUSH2 0x58 SWAP2 SWAP1 PUSH2 0x170 JUMP JUMPDEST PUSH2 0xC0 JUMP JUMPDEST STOP JUMPDEST PUSH2 0x79 PUSH1 0x4 DUP1 CALLDATASIZE SUB DUP2 ADD SWAP1 PUSH2 0x74 SWAP2 SWAP1 PUSH2 0x1AE JUMP JUMPDEST PUSH2 0xFE JUMP JUMPDEST PUSH1 0x40 MLOAD PUSH2 0x87 SWAP3 SWAP2 SWAP1 PUSH2 0x1E8 JUMP JUMPDEST PUSH1 0x40 MLOAD DUP1 SWAP2 SUB SWAP1 RETURN JUMPDEST PUSH2 0xAA PUSH1 0x4 DUP1 CALLDATASIZE SUB DUP2 ADD SWAP1 PUSH2 0xA5 SWAP2 SWAP1 PUSH2 0x1AE JUMP JUMPDEST PUSH2 0x11D JUMP JUMPDEST PUSH1 0x40 MLOAD PUSH2 0xB7 SWAP2 SWAP1 PUSH2 0x20F JUMP JUMPDEST PUSH1 0x40 MLOAD DUP1 SWAP2 SUB SWAP1 RETURN JUMPDEST PUSH1 0x40 MLOAD DUP1 PUSH1 0x40 ADD PUSH1 0x40 MSTORE DUP1 DUP4 DUP2 MSTORE PUSH1 0x20 ADD DUP3 DUP2 MSTORE POP PUSH0 DUP1 DUP5 DUP2 MSTORE PUSH1 0x20 ADD SWAP1 DUP2 MSTORE PUSH1 0x20 ADD PUSH0 KECCAK256 PUSH0 DUP3 ADD MLOAD DUP2 PUSH0 ADD SSTORE PUSH1 0x20 DUP3 ADD MLOAD DUP2 PUSH1 0x1 ADD SSTORE SWAP1 POP POP POP POP JUMP JUMPDEST PUSH0 PUSH1 0x20 MSTORE DUP1 PUSH0 MSTORE PUSH1 0x40 PUSH0 KECCAK256 PUSH0 SWAP2 POP SWAP1 POP DUP1 PUSH0 ADD SLOAD SWAP1 DUP1 PUSH1 0x1 ADD SLOAD SWAP1 POP DUP3 JUMP JUMPDEST PUSH0 DUP1 PUSH0 DUP4 DUP2 MSTORE PUSH1 0x20 ADD SWAP1 DUP2 MSTORE PUSH1 0x20 ADD PUSH0 KECCAK256 PUSH1 0x1 ADD SLOAD SWAP1 POP SWAP2 SWAP1 POP JUMP JUMPDEST PUSH0 DUP1 REVERT JUMPDEST PUSH0 DUP2 SWAP1 POP SWAP2 SWAP1 POP JUMP JUMPDEST PUSH2 0x14F DUP2 PUSH2 0x13D JUMP JUMPDEST DUP2 EQ PUSH2 0x159 JUMPI PUSH0 DUP1 REVERT JUMPDEST POP JUMP JUMPDEST PUSH0 DUP2 CALLDATALOAD SWAP1 POP PUSH2 0x16A DUP2 PUSH2 0x146 JUMP JUMPDEST SWAP3 SWAP2 POP POP JUMP JUMPDEST PUSH0 DUP1 PUSH1 0x40 DUP4 DUP6 SUB SLT ISZERO PUSH2 0x186 JUMPI PUSH2 0x185 PUSH2 0x139 JUMP JUMPDEST JUMPDEST PUSH0 PUSH2 0x193 DUP6 DUP3 DUP7 ADD PUSH2 0x15C JUMP JUMPDEST SWAP3 POP POP PUSH1 0x20 PUSH2 0x1A4 DUP6 DUP3 DUP7 ADD PUSH2 0x15C JUMP JUMPDEST SWAP2 POP POP SWAP3 POP SWAP3 SWAP1 POP JUMP JUMPDEST PUSH0 PUSH1 0x20 DUP3 DUP5 SUB SLT ISZERO PUSH2 0x1C3 JUMPI PUSH2 0x1C2 PUSH2 0x139 JUMP JUMPDEST JUMPDEST PUSH0 PUSH2 0x1D0 DUP5 DUP3 DUP6 ADD PUSH2 0x15C JUMP JUMPDEST SWAP2 POP POP SWAP3 SWAP2 POP POP JUMP JUMPDEST PUSH2 0x1E2 DUP2 PUSH2 0x13D JUMP JUMPDEST DUP3 MSTORE POP POP JUMP JUMPDEST PUSH0 PUSH1 0x40 DUP3 ADD SWAP1 POP PUSH2 0x1FB PUSH0 DUP4 ADD DUP6 PUSH2 0x1D9 JUMP JUMPDEST PUSH2 0x208 PUSH1 0x20 DUP4 ADD DUP5 PUSH2 0x1D9 JUMP JUMPDEST SWAP4 SWAP3 POP POP POP JUMP JUMPDEST PUSH0 PUSH1 0x20 DUP3 ADD SWAP1 POP PUSH2 0x222 PUSH0 DUP4 ADD DUP5 PUSH2 0x1D9 JUMP JUMPDEST SWAP3 SWAP2 POP POP JUMP INVALID LOG2 PUSH5 0x6970667358 0x22 SLT KECCAK256 PUSH4 0x98038DD0 0x2B DIV MLOAD TSTORE PUSH14 0xBFE31D7AEC0D4F750CF8F9ED98CF 0x4E JUMPI 0xB2 SHL 0x2F 0xAC PUSH12 0x4864736F6C63430008180033 "
		},
		"gasEstimates": {
			"creation": {
				"codeDepositCost": "121200",
				"executionCost": "163",
				"totalCost": "121363"
			},
			"external": {
				"addOrUpdateGrade(uint256,uint256)": "infinite",
				"getGrade(uint256)": "infinite",
				"studentGrades(uint256)": "infinite"
			}
		},
		"methodIdentifiers": {
			"addOrUpdateGrade(uint256,uint256)": "4cee7fc9",
			"getGrade(uint256)": "e1e0485e",
			"studentGrades(uint256)": "d7c98a9e"
		}
	},
	"abi": [
		{
			"inputs": [
				{
					"internalType": "uint256",
					"name": "_studentID",
					"type": "uint256"
				},
				{
					"internalType": "uint256",
					"name": "_grade",
					"type": "uint256"
				}
			],
			"name": "addOrUpdateGrade",
			"outputs": [],
			"stateMutability": "nonpayable",
			"type": "function"
		},
		{
			"inputs": [
				{
					"internalType": "uint256",
					"name": "_studentID",
					"type": "uint256"
				}
			],
			"name": "getGrade",
			"outputs": [
				{
					"internalType": "uint256",
					"name": "",
					"type": "uint256"
				}
			],
			"stateMutability": "view",
			"type": "function"
		},
		{
			"inputs": [
				{
					"internalType": "uint256",
					"name": "",
					"type": "uint256"
				}
			],
			"name": "studentGrades",
			"outputs": [
				{
					"internalType": "uint256",
					"name": "studentID",
					"type": "uint256"
				},
				{
					"internalType": "uint256",
					"name": "grade",
					"type": "uint256"
				}
			],
			"stateMutability": "view",
			"type": "function"
		}
	]
}